:020000040800F2
:1000000080D80120D102000879200008651E000870
:1000100075200008610F000855210008000000004D
:100020000000000000000000000000008120000827
:10003000710F0008000000007D20000885200008E6
:10004000EB020008EB020008EB020008EB020008DC
:10005000EB020008EB020008EB020008EB020008CC
:10006000EB020008EB020008EB020008EB020008BC
:10007000EB020008EB020008EB020008EB020008AC
:10008000EB020008EB020008EB020008EB0200089C
:10009000EB020008EB020008EB020008EB0200088C
:1000A000EB020008EB020008EB020008EB0200087C
:1000B000EB020008EB020008EB020008EB0200086C
:1000C000EB020008EB020008EB020008EB0200085C
:1000D000EB020008EB020008EB020008EB0200084C
:1000E000EB020008EB020008EB020008EB0200083C
:1000F000EB020008EB020008EB020008EB0200082C
:10010000EB020008EB020008EB020008EB0200081B
:10011000EB020008EB020008EB020008EB0200080B
:10012000650F0008EB020008EB020008EB02000874
:10013000EB020008EB020008EB020008EB020008EB
:10014000EB020008EB020008EB020008EB020008DB
:10015000EB020008EB020008EB020008EB020008CB
:10016000EB020008EB020008EB020008EB020008BB
:10017000EB020008EB020008EB02000800000000A0
:10018000EB020008EB02000800F002F800F090F823
:1001900014A696E8000CB244B344DA4501D100F04D
:1001A00087F8BAE80F000FA696E83000A5EB040523
:1001B00004EB0607AAEB0704A7F101074FEA1515A0
:1001C0004FEA3414A4F10104AC4201D300F070F8FA
:1001D00013F0010F18BFFB1A43F0010300F001F800
:1001E000DBE7184718140500581405000A444FF0BF
:1001F000000C10F8013B13F0070408BF10F8014B86
:100200001D1108BF10F8015B641E05D010F8016BCA
:10021000641E01F8016BF9D113F0080F1EBF10F82E
:10022000014BAD1C0C1B09D16D1E58BF01F801CB51
:10023000FAD505E014F8016B01F8016B6D1EF9D5D4
:100240009142D6D370470000103A24BF78C878C1D5
:10025000FAD8520724BF30C830C144BF04680C60CC
:10026000704700007047000000230024002500268E
:10027000103A28BF78C1FBD8520728BF30C148BF09
:100280000B607047662934F03285642900F0CC8019
:10029000002070471FB534F01DFD00F02BFD040059
:1002A0000020002134F050FAE0601FBD10B510BDF1
:1002B00000F020FE1146FFF7EDFF2CF029F800F0CA
:1002C0003EFE03B4FFF7F2FF03BC00F041FE000066
:1002D0000948804709480047FEE7FEE7FEE7FEE7DA
:1002E000FEE7FEE7FEE7FEE7FEE7FEE70448054916
:1002F000054A064B704700004121000889010008AB
:100300007088012080D801207098012080C80120C9
:1003100053EA020C00F069802DE9F04B4FF0000623
:10032000002B1FBFB3FA83F503FA05F424FA05F690
:100330005E4012BF1643B2FA82F502FA05F4C5F127
:1003400020051EBF22FA05FC44EA0C04203556EABB
:10035000044C4FEA144418BF641C4FF000084FF0DF
:100360000009904271EB030C39D3002919BFB1FA8F
:1003700081F701FA07F6B0FA80F700FA07F6C7F13D
:1003800020071EBF20FA07FC46EA0C062037B6FB02
:10039000F4FCA7EB0507103F07F01F0BCBF120067D
:1003A0002CFA06F60CFA0BFB44BFB3460026202FAE
:1003B000A4BF5E464FF0000B5BEA060C08BF4FF08F
:1003C000010B19EB0B0948EB0608ABFB027C06FBA3
:1003D00002CC0BFB03CCC01B71EB0C01C1E70B463D
:1003E000024641464846BDE8F08B13B5084318BFA6
:1003F0004FF0FF300146AFF30080BDE81C4070476E
:100400000FB41CB5074B06AA7B44694600900598BB
:1004100000F057FC0020694600F066FC1CBC5DF84B
:1004200014FB0000DD0800002DE9F0410646002421
:1004300010687529314616A510D0AFF3008000284A
:1004400002DA404213A507E031688A0701D512A5F8
:1004500002E0490704D511A5012401E0AFF30080B3
:1004600000210A2206F1240709E0B0FBF2FCB0FBF0
:10047000F2F302FB1C00303078541846491C002867
:10048000F3D123462A463046BDE8F04100F0ADB92D
:10049000000000002D0000002B00000020000000E4
:1004A0002DE9F05F894604464FF0000ADFF824B1D9
:1004B000FB44C0F820A02046E168884700287DD092
:1004C000252806D0D4E901219047206A401C2062EB
:1004D000F1E700255F462046E16888472028064668
:1004E00007DB312E05D2B81910F8200C08B10543EE
:1004F000F1E7A80701D525F00405C4F81CA00027E2
:10050000C4F818A02A2E09D0304634F015F938B3B3
:1005100004EB8708303EC8F8186019E059F8041B4E
:10052000204604EB87029161E1688847012F064667
:1005300018D1E069002820DA25F020051DE0D8F860
:10054000180000EB800006EB40003038C8F81800B7
:100550002046E1688847064634F0EEF80028EED1E0
:10056000012F0AD02E2E08D12046E16888477F1C33
:100570000646022F45F02005C4DBA069002803DAF7
:10058000404245F00105A061E80701D025F01005C3
:10059000A6B1A6F14100192802D8203645F400651D
:1005A0004A463146204625604D46FFF76BFE60B156
:1005B000012807D0ED1D25F0070000E007E000F15D
:1005C000080978E705F1040975E730467AE7206AFB
:1005D000BDE8F09F3E48030040EA010310B59B07C9
:1005E0000FD1042A0DD310C808C9121F9C42F8D09D
:1005F00020BA19BA884201D9012010BD4FF0FF304E
:1006000010BD1AB1D30703D0521C07E0002010BD63
:1006100010F8013B11F8014B1B1B07D110F8013BEF
:1006200011F8014B1B1B01D1921EF1D1184610BDD0
:1006300040EA0103024630B59B0710D14FF0013468
:1006400000E008C208C91D1B9D4315EAC41FF8D06D
:1006500013F0FF0102F8011B0DD01B0AF8E711F897
:10066000013B002B02F8013B05D011F8013B002BA8
:1006700002F8013BF3D130BD10B5431C02E010F885
:10068000011B71B18107FAD14FF0013202C88C1AF7
:100690008C4314EAC211F9D0C01A0A0603D0C01E56
:1006A00010BDC01A10BD0A0401D0801E10BD090281
:1006B000FCD0401E10BD02F0FF0343EA032242EAD1
:1006C000024200F00AB802F0FF0343EA032242EAC2
:1006D000024200F024B84FF000020429C0F012805A
:1006E00010F0030C00F01B80CCF1040CBCF1020FE5
:1006F00018BF00F8012BA8BF20F8022BA1EB0C01BA
:1007000000F00DB85FEAC17C24BF00F8012B00F8AF
:10071000012B48BF00F8012B70474FF0000200B5D5
:10072000134694469646203922BFA0E80C50A0E814
:100730000C50B1F12001BFF4F7AF090728BFA0E8C2
:100740000C5048BF0CC05DF804EB890028BF40F88E
:10075000042B08BF704748BF20F8022B11F0804FD0
:1007600018BF00F8012B704730B44FF0013C50F82F
:10077000042B51F8043BCCFA52F4D51A20D1FCB921
:1007800050F8042B51F8043BCCFA52F4D51A17D187
:10079000B4B950F8042B51F8043BCCFA52F4D51AF2
:1007A0000ED16CB950F8042B51F8043BCCFA52F43A
:1007B000D51A05D1002CDAD030BC4FF000007047BC
:1007C00029BAB1FA81F111F01801D1F12000844069
:1007D000F2D1CA40CB4012F0FF0213F0FF0330BC4D
:1007E000D01A70477047704770472DE9F0470D46A3
:1007F00099469246044600F124080168880604D50B
:10080000E06921F01001216000E00120A84201DD33
:10081000471B00E00027A1697A1902EB0900081ABA
:10082000A0612078C00602D42046AFF300800026E5
:1008300008E0D4E901211AF806009047206A401C1C
:10084000761C20624E45F4DB2078C0060AD520468F
:10085000AFF3008006E0D4E9012130209047206A00
:10086000401C2062381EA7F10107F4DC07E0D4E940
:10087000012118F805009047206A401C2062281EBC
:10088000A5F10105F3DC2046AFF3008020780006D7
:1008900002D50220BDE8F0870120FBE72DE9FF4FDC
:1008A0000C461E464FF0FF378BB0D2E90001DDF851
:1008B00060800A908A46C1F30A5505B93D46002179
:1008C00008464FF00000BAF1000F00F4400005DACE
:1008D00000EB80004FF4400101EA50004FEA9059CC
:1008E000B9F1010F00DDB9460A9850EA4A000ED06E
:1008F00044F61050A5F2FF3545432F14B8F1000F10
:100900001ED07542291E1EDDC9F100021CE0B8F19F
:10091000010F4FF0000001D0302103E0F24305E069
:100920002154401CB042FBDB304600220021215400
:100930000B99C1F80880C1E900200FB0BDE8F08F25
:10094000BD1B6D1CDEE74A4600DA694206A800F0CE
:100950005BFA06AB93E8070003AB83E80700504659
:100960000A9933F008FB8DE80700A0F500501F3806
:1009700000900398002D0ADD42F21F014A46084408
:10098000002303A90390684633F072FD09E0A0F547
:1009900000504A461F38002303A90390684633F0ED
:1009A0007CFD8DE807000004000C03D04FF0FF3001
:1009B000410800E01046B8F1000F03D00022009279
:1009C00015461EE0751E05D400F098F930326255C8
:1009D0006D1EF9D5B3460122084302D000227F1CC8
:1009E00004E02078302801D100227F1E002A0997D8
:1009F00084D01DE0112D07DA00F080F93032625505
:100A00006D1C50EA0102F5D1084302D00098C8B12C
:100A10000EE00021681E05E0235C625C63542254F2
:100A2000401E491C8142F7DBAB46A81B401E0990C3
:100A3000002004F80B000B98099AC0F80880C0E960
:100A4000002B7AE711264FF0000857E72DE9F04F09
:100A500088460446D21D22F0070191B0D1E9000179
:100A6000CDE90A0133F050FE02460B98C00F01D0C9
:100A70002D2007E02068810701D52B2002E02021EE
:100A800001EAC000032A099001D0072A05DB0346CA
:100A90004146204600F078F90BE12078800601D528
:100AA000E06900E00620B8F1650F814606D0B8F194
:100AB000660F18D0B8F1670F70D131E00020B9F19E
:100AC000110F009001DB112301E009F101030AAAD3
:100AD00001A90CA8FFF7E2FEDDE90C70002609F180
:100AE0000105834647E001204B4600904FF0004748
:100AF0000AAA01A90CA8FFF7D1FEDDE90DB00C99F7
:100B00005D46002610B909F101000D18B9EB05008A
:100B100003D4C0F1FF3609F10105A5EB09002BE074
:100B2000B9F1010F01DA4FF001090020B9F1110FFD
:100B30000090484601DD112300E003460AAA01A9FE
:100B40000CA8FFF7ABFEDDE90C704D46002683468E
:100B5000207800070AD4AB4500DA5D4601A8012DD4
:100B600004DD411911F8011C302907D04F4502DA84
:100B700017F1040F04DA012082460FE06D1EEEE744
:100B8000002F02DCED1B3E4403E0781CA84200DD90
:100B90007D1CB81B00F1010A4FF0004720780007C8
:100BA00003D4AA4501DB4FF0FF3A0021B7F1004F13
:100BB0000DF143088DF8431024D002202B23002F81
:100BC00001DA7F422D230A21021EA0F1010000DC80
:100BD0005FB197FBF1FC97FBF1F201FB1C7C174620
:100BE0000CF1300C08F801CDEEE7A8F1010003701C
:100BF0002188090501D5452100E06521A0F1010802
:100C000000F8011C09980FA9A1EB0807FF1D00B10E
:100C10000120411901EBEA70A1693844081A401E0D
:100C2000A0612078C00602D42046AFF30080099866
:100C300028B1D4E901219047206A401C2062207825
:100C4000C00622D52046AFF300801EE0002E04DB54
:100C5000B34502DD01A8805D00E03020D4E9012128
:100C60009047206A401C2062761CAAF101005FEACE
:100C7000000A0AD100F03EF8C0680168405CD4E97F
:100C800001219047206A401C2062281EA5F1010521
:100C9000DCDC07E0D4E9012118F8010B9047206A59
:100CA000401C2062381EA7F10107F3DC2046AFF399
:100CB0000080032011B041E601694A1C02610878F6
:100CC000704700B58FB0CDE901310021059105498C
:100CD0007944CDE9031011466846FFF7E1FB0FB0F8
:100CE00000BD0000E5FFFFFF0A6802F8010B0A6083
:100CF000704700000048704750C2012030B5B0F185
:100D00000A0271F100034FEA900E4EEA817EB0EBC9
:100D10000E0061EB91014FEA101E4EEA017E10EBCE
:100D20000E0041EB11114FEA102E4EEA016E10EB4E
:100D30000E0041EB11214FEA104E4EEA014E10EB2E
:100D40000E0041EB1141401841F100014FEAD00083
:100D500040EA41704FEAD1014FEA810444EA9074BD
:100D600010EB800544EB01046D1944EB0404521BA5
:100D7000A3414FF0000348BF0A3200D530BD401CEC
:100D800041F1000130BD00002DE9F0411F4604464D
:100D900003260168072A01F4006004DB08B116A5E8
:100DA00005E016A503E008B115A500E015A521F0A2
:100DB00010002060A069C01EA0610FB1401EA0619C
:100DC0002046AFF300804FB1D4E901213846904767
:100DD000206A401C2062C01C206206E0206AFAE7FC
:100DE000D4E9012115F8010B9047761EF8D2204670
:100DF000AFF30080BDE8F0814E414E006E616E00A1
:100E0000494E4600696E66002DE9F0478146164658
:100E10008AB0354878440DC88DE80D0032487844D2
:100E2000801C03AC0DC884E80D0041F69B300844DB
:100E3000372190FBF1F290FBF1F5A5F1800501FB64
:100E400012041B3C02D56442012000E00020DFF8C0
:100E500098A080460027FA44AAF1BE0A0EE0E007F7
:100E60000AD03246684607EB470101230AEB8101AD
:100E700033F013FB8DE8070064107F1C002CEED1CB
:100E8000194F7F44AE3F19E0E80715D007EB041077
:100E90000DF1180A90E80E008AE80E00C068F042D2
:100EA00001D1981908903246012306A903A833F00E
:100EB000F4FA03AB83E807006D10641C002DE3D146
:100EC0004FF0010332466946B8F1000F03A802D083
:100ED00033F0CEFA01E033F0E0FAC9E90001C9F8D5
:100EE00008200AB0BDE8F087683F0300004870475B
:100EF00030C201207546FFF7F9FFAE46050069468E
:100F0000534620F00700854618B020B5FFF7EEF9EC
:100F1000BDE820404FF000064FF000074FF00008FA
:100F20004FF0000BAC46ACE8C009ACE8C009ACE837
:100F3000C009ACE8C00921F007018D46704710B523
:100F40000446AFF300802046BDE81040FFF7B9B972
:100F500001491820ABBEFEE72600020070470000E2
:100F6000FEE700004CF29C50C2F2010000F090B885
:100F70007047000072B600BFFEE70000B3F5804F77
:100F8000034619D1B0B553F822C00020CCF6F0705A
:100F90000CEA000E91E83100D1F818C040EA0E00CA
:100FA00040EA0410C96840EA052040EA0C0040EA23
:100FB0000141BDE8B04001E06FF07041002043F80E
:100FC000221070472DE9F04F83B00B68024650F8AD
:100FD000230001F1240B20F0010042F82300D1E9A5
:100FE00002C0D1E900E301908869D1E9049A029036
:100FF000C86BD1E9077600909BE83008D1F83080C3
:1010000052F82E008021CFF6F0710840BCF1080F95
:1010100008BF43F040030199194341EA090141EA3D
:101020000A01394331432143294341EA0B01029B21
:1010300041EA08011943009B1943084340EA0C01A7
:10104000002042F82E1003B0BDE8F08FF0B500EBA1
:1010500082025068D1E902E400F0404CD1E900304E
:10106000D1E9045643EA0C03002743EA0010CFF607
:10107000F07740EA0E20896907EB055540EA044005
:101080002843FE36084340EA066100205160F0BD67
:10109000F0B581B00446002000904CF20000C2F28E
:1010A00001000268D4E9166048F2B51337680821D8
:1010B000C1F64E3381403942A2FB03250CD0226891
:1010C00013685B0708D5136823F004031360B1604D
:1010D000616D41F00101616501218140394208D013
:1010E00022685269120604D5B160616D41F00201B7
:1010F000616504218140394208D022681268920754
:1011000004D5B160616D41F0040161651021814039
:10111000394215D020680268120711D5B160026803
:101120000168520306D4C90506D4016821F00801FC
:10113000016001E008033ED4216C09B120468847D4
:10114000E16D202000FA01F23A4240D020680368A5
:10115000DB063CD5B26094F835300268052B1AD115
:1011600022F016020260426922F080024261226C83
:101170000AB9A26C1AB1026822F0080202603F208C
:101180008840B060012084F83500216D002084F88B
:101190003400D9BB3FE00168520310D4C90512D412
:1011A000016821F010010160012084F83500002061
:1011B00084F8340007E0A16C0029BFD1C0E7080320
:1011C00001D4616C00E0E16B09B120468847606D95
:1011D00008B3606DC00717D0052084F8350020687B
:1011E000A90A026822F00102026000BF009A0132DF
:1011F0008A42009202D80268D207F7D1012084F80F
:101200003500002084F83400E16C21B1204601B0A3
:10121000BDE8F040084701B0F0BD00002DE9F04105
:10122000044600F013FAC4B10546022084F83500E4
:101230000020216884F83400086820F0010008606C
:1012400020680168C9070BD000F000FA401B052890
:10125000F6D90321202203207AE00120BDE8F081A5
:10126000016848F23F02CFF21002D4E9013501EAE9
:10127000020ED4E9032143EA0E032B43D4E9056CA3
:101280001A43D4E907781143314341EA0702616AFE
:1012900042EA0802042942EA0C0303D1D4E90B27ED
:1012A0003A43134303604269042922F0070241EAEA
:1012B00002012DD1D4E90A5341EA050143B3BCF53B
:1012C000005F08D0BCF1000F12D1022D16D0012D05
:1012D00007D09DB119E0032D17D8DFE805F00B0FFB
:1012E0000B02A3F1C072B2FA82F252094AB90FE0BE
:1012F000032D02D2012222B90AE006D1C3F3006213
:1013000032B101214022012022E00022002AF8D13E
:1013100000F0F8024AF6AB23103ACAF6AA23A2FB61
:10132000033747F6507341613909C0F60303595C2E
:1013300040F2FF3398435F2A4FF03F0288BF0430EA
:10134000C4E9160102FA01F18160002201210020A6
:10135000626584F83510BDE8F081000090F8343003
:10136000012B04BF022070474FF0010C80F834C0FD
:1013700090F83530012B1AD1052918D8DFE801F093
:101380000306090C0F1200F13C010DE000F14001D1
:101390000AE000F1440107E000F1480104E000F137
:1013A0004C0101E000F150014FF0000C0A600021F7
:1013B00080F834106046704790F834C0BCF1010FDB
:1013C00004BF0220704770B54FF0010C80F834C0A4
:1013D000D0F858E090F835C0BCF1010F37D14FF08C
:1013E000020C80F835C04FF0000CC0F854C0D0F8A3
:1013F00000C08468056CC06DDCF80060402C26F4E9
:101400008026CCF80060CCF804300B4604BF1346AD
:101410000A463F2101FA00F0CCF80830CCF80C2045
:10142000CEF80800DCF8000040F01600CCF8000010
:101430002DB1DCF8000040F00800CCF80000DCF82A
:10144000000040F00100CCF80000002070BD002139
:1014500080F83410022070BD80B54EF218014CF2B5
:101460009052CEF20001C2F2010251F804CC12688F
:1014700080B250434FF47A7200FB02FE08680023EA
:101480000A688242FCD003449B1A824228BF63440C
:101490007345104628BF80BDF2E700002DE9F04FEC
:1014A00082B000F13E4707F1FF77860546EA9727AD
:1014B00041F60046C4F202060822B04208BF0722E5
:1014C000072F38BF3A46002400274FF0000900924A
:1014D00009E000BF09F101090237B9F1100F04F169
:1014E000040400F0A4800D68012202FA09FC15EA48
:1014F0000C08EFD0D1F804B00BF0030AAAF10105F3
:10150000012D12D80322856802FA07FECA6825EA6F
:101510000E05BA402A4382604268CBF3001522EAE6
:101520000C0205FA09F52A434260BAF1030F1CD0F8
:10153000C26803238E6803FA07F5AA43BE4032430C
:10154000BAF1020FC26010D16FF0030202EA590231
:101550000244D2F820C004F01C050F230E69AB40F2
:101560002CEA0303AE4033431362026803234E6840
:10157000BB409A4306F00303BB401A4316F4403FB6
:101580000260A7D0002243F644030192C4F2020392
:101590001A6843F6004E42F480421A601A68C4F298
:1015A000010E02F480420192019A29F003024FF6E3
:1015B000084C7244CFF6FF7C52F80C3004F00C0655
:1015C0000F25B540AB43009D05FA06F6334342F8BC
:1015D0000C30DEF808204B6842EA080643F60C4C53
:1015E000DD0258BF22EA0806CEF80860C4F2010CFA
:1015F000DCF800209D0242EA080658BF22EA0806ED
:10160000CCF80060DEF804209D0342EA080658BFCB
:1016100022EA0806CEF80460DEF80020DB0342EA86
:10162000080658BF22EA0806CEF8006052E702B06A
:10163000BDE8F08F0069084018BF01207047000026
:10164000002A08BF09048161704700004CF6780049
:10165000C2F2010000687047002804BF01207047F3
:10166000B0B504460068D4E901124CF6CC430360DF
:1016700045F25553036041608260FFF7E7FF216840
:10168000CA68920711D0054604E000BF2168C86807
:1016900080070AD0FFF7DAFF401B3228F6D3206814
:1016A000C0688007F2D00320B0BD4AF6AA200860C7
:1016B0000020B0BD01684AF6AA2200200A607047E7
:1016C0004CF224204CF67801C2F20100C2F2010172
:1016D00000780A68104408607047000080B543F63F
:1016E0000040C4F20200016841F400710160016829
:1016F00041F480610160016841F480710160032060
:1017000000F088F80F2000F005F800F02BF800201A
:1017100080BD0000B0B54CF22422C2F201024CF2AE
:1017200000011278C2F201014FF47A730968B3FB29
:10173000F2F20446B1FBF2F1084600F07DFB0F2CFB
:101740004FF001050CD858B94FF0FF302146002268
:10175000002500F033F84CF22820C2F201000460AA
:101760002846B0BD82B0002043F640010190C4F28B
:1017700002014A6842F480424A604A6802F48042A8
:101780000192019A0090086840F080500860086853
:1017900000F080500090009802B07047002848BFC9
:1017A000704700F01F01012202FA01F14EF200120F
:1017B0004009CEF2000242F82010704710B54EF6F4
:1017C0000C5CCEF2000CDCF80030C3F3022E8EF07D
:1017D0000704042C28BF0424BEF103034FF0FF3E8E
:1017E0000EFA04F438BF0023A14399400EFA03F324
:1017F0009A43114300F1604200F00F03090102F522
:101800006442043B6344002848BF03F10C0211709A
:1018100010BD00004EF60C51CEF200010A684FF6E2
:10182000FF031A4060F30A2242F0806040F0FD702E
:1018300008607047002804BF012070472DE9F0417F
:1018400043F60808C4F202080446D8F8F8030D4627
:1018500000F00700884207D288F8F853D8F8F80358
:1018600000F00700A84276D12068810717D541070C
:1018700005D5D8F8001041F4E051C8F80010010770
:1018800005D5D8F8001041F46041C8F80010D8F828
:101890000010A26821F0F0011143C8F80010C00741
:1018A0003FD1D8F8F80300F00700A84207D988F81C
:1018B000F853D8F8F80300F00700A8424BD120688D
:1018C000410707D5D8F80010E26821F4E051114330
:1018D000C8F80010000708D5D8F80000216920F4E6
:1018E000604040EAC100C8F8000000F053F8D8F8A2
:1018F000001044F6F052C1F30311C0F60302515C2C
:101900004CF2000220FA01F14CF22820C2F2010050
:101910000068C2F201021160FFF7FCFE0020BDE882
:10192000F0816068811E022907D258F8081C8901DD
:101930005CBF0120BDE8F08110E0012807D158F814
:10194000081C89035CBF0120BDE8F08106E058F85F
:10195000081C890702D40120BDE8F081D8F80010E6
:1019600021F003010843C8F80000FFF76FFE0646A8
:1019700041F28837D8F80000616800F00C00B0EB45
:10198000810F8ED0FFF762FE801BB842F2D9032090
:10199000BDE8F08110B543F60404C4F202046068A7
:1019A00000F00C0142F200400829C0F2F40007D018
:1019B000042918BF10BD41F20020C0F27A0010BD0A
:1019C000216801F03F02216823684902C3F38811AE
:1019D00005D4A1FB00010023FEF79AFC06E041F2CA
:1019E0000020C0F27A004843B0FBF2F021680222E6
:1019F000C1F3014102EB4101B0FBF1F010BD000069
:101A0000002804BF012070472DE9F04182B0044650
:101A1000007843F60006C007C4F2020647D0B0685B
:101A200000F00C00042808D1306880033FD56068BE
:101A3000E8BB012002B0BDE8F081B06800F00C0006
:101A4000082802D170684002EED46568B5F5A02F71
:101A50000AD0B5F5803F0BD0306820F4803030607C
:101A6000306820F4802006E0306840F48020306048
:101A7000306840F480303060FFF7E8FD002D054607
:101A800012D000BF3068800311D4FFF7DFFD401B88
:101A90006428F7D926E100BFFFF7D8FD401B642872
:101AA0004FF0030000F2E28030688003F4D4207825
:101AB00080071BD5B06810F00C0F09D0B06800F09B
:101AC0000C00082840F087807068400200F1838095
:101AD0003068800703D5E068012840F09E803068B8
:101AE000216920F0F80040EAC1003060207800074A
:101AF00035D42078400748D4A56965B3B06800F0B4
:101B00000C00082840F09E80012D00F0868070684F
:101B1000E16900F480028A4240F07F80216A00F08F
:101B20003F028A4279D147F6C071626A0140B1EB47
:101B3000821F72D1A16A4FF6FF73C903994300F463
:101B40004032A1F580318A4267D1E16A00F07060CD
:101B5000B0EB016F61D1002002B0BDE8F081606997
:101B6000002840F20000C4F247205AD00121C0F8FA
:101B7000801EFFF76BFD0546706F8007B9D4FFF735
:101B800065FD401B0228F7D9ACE0306C5FEAC00865
:101B90000AD400200190306C40F080503064306CEA
:101BA00000F080500190019847F20007C4F200074E
:101BB0003868C00524D4386840F480703860FFF776
:101BC00045FD05463868C0051AD4FFF73FFD401BA8
:101BD0000228F7D986E0E068002857D00020C4F238
:101BE000472001210160FFF731FD0546306880077D
:101BF0003FF575AFFFF72AFD401B0228F6D971E0CB
:101C0000A568052D56D0012D58D0306F20F0010069
:101C10003067306F20F0040053E0012002B0BDE8CF
:101C2000F0810021C0F8801EFFF710FD054600BFBF
:101C3000706F80077FF55DAFFFF708FD401B02283E
:101C4000F6D94FE00027C4F2472700203866FFF797
:101C5000FDFC022D05460DD13068800159D5FFF7F6
:101C6000F5FC401B02284FF00300F5D902B0BDE897
:101C7000F08100BF306880017FF56DAFFFF7E6FCB3
:101C8000401B02284FF00300F4D9EFE70020C4F214
:101C9000472000210160FFF7D9FC05463068800726
:101CA0007FF524AFFFF7D2FC401B02284FF0030062
:101CB000F4D9DBE7306F40F004003067306F40F05C
:101CC00001003067FFF7C2FC002D054641F288375E
:101CD00013D000BF306F800712D4FFF7B7FC401B52
:101CE000B842F7D9032002B0BDE8F081FFF7AEFC9F
:101CF000401BB8424FF00300B8D8306F8007F5D4CE
:101D0000B8F1000F3FF5F8AE306C20F08050306431
:101D1000F2E604F11C052FCD084340EA8210D903F6
:101D20004FF6FF729143A1F5803140EA0560084308
:101D3000706001203866FFF789FC04463068800136
:101D40003FF509AFFFF782FC001B02284FF00300AC
:101D5000F4D98BE7002804BF0120704770B5044612
:101D600090F8490015460E4628B9002084F848002E
:101D7000204600F01DF8206804F10801FFF722F961
:101D80002068A2683146FFF761F9D4E90102236BAC
:101D90002946FFF7F3F82068A16850F8212042F0A7
:101DA000010240F82120012084F84900002070BD84
:101DB0002DE9F04387B040F21000C2F20000017834
:101DC00000260696CDE904660396029689BB01219A
:101DD000017043F638000196C4F20200016840F633
:101DE000004441F0010101600068C4F2020400F007
:101DF0000100019001984FF6807002AD02904FF003
:101E000002084FF003090C2704F580602946CDE94C
:101E10000386CDF814900697FFF740FB4CF6B3709D
:101E2000CDE9020820462946CDE904690697FFF767
:101E300035FB07B0BDE8F083411E0020B0EB116F09
:101E40001CBF012070474EF21002CEF2000251601A
:101E50004EF62351CEF20001F0230B700721906063
:101E600011607047FEE7000010B582B0002143F614
:101E700030000191C4F202000268802342F4800223
:101E80000260006846F2104200F480000190019860
:101E90004CF29C50C2F20100C4F202024FF4007CEA
:101EA0004FF4006E4FF40054C0E90021C0E9023C39
:101EB0004FF4803200F1200CC0E9041EC0E9064155
:101EC000042303248CE81C00C0E90B11FFF7A6F9DA
:101ED000002818BFFFF74EF8382000210022FFF736
:101EE0006DFC382002B0BDE81040FFF757BC000081
:101EF00080B58EB04CF2086040F20412C2F20100CC
:101F00004FF02043CAF200020021C0E900324FF432
:101F100080524FF480434FF0100CC0E90A21C0E911
:101F20000C310F224FF0FF0E1123CDE90C11CDE93A
:101F30000A11CDE90811CDE90611CDE90411CDE969
:101F40000211CDE90011C0E90211C0E9041CC0E989
:101F50000611C0E9081181634164CDE90722CDE98A
:101F600009E2CDE90C31CDE90022CDE902E206918A
:101F700007A96A46CDF82CC0CDE904C3FFF7EAFEF5
:101F8000002818BFFEF7F6FF0EB080BDF0B587B091
:101F9000002643F630000696CDE90466CDE90266D8
:101FA0000196C4F20200016840F2004441F01001C1
:101FB00001600168C4F2020401F01001019101996D
:101FC00001960168002241F080010160016801274B
:101FD00001F08001019101990196016841F002012F
:101FE0000160016801F00201019101990196016807
:101FF00041F008010160016801F0080101910199B7
:102000000196016841F0010101600068012100F0C2
:102010000100019001982046FFF712FB702002ADED
:10202000CDE9020604F5406029460496FFF736FA2A
:1020300020462946CDE90277CDE90466FFF72EFA5E
:1020400007B0F0BD80B54CF2FC5043F20001C2F283
:102050000100C4F20001012240F6FF7380E80E0087
:10206000FFF7FAFA002808BF80BDBDE88040FEF700
:1020700081BF0000FEE70000FEE70000704700009F
:102080007047000080B5012029F07CFABDE880404F
:10209000FFF716BB70B592B006AC20463021FEF7B4
:1020A0003CFB002543F640000595CDE90355CDE9FD
:1020B00001550095C4F202000168022641F08051EA
:1020C0000160006800F080500090009847F2000026
:1020D0000095C4F20000016841F48041016000688D
:1020E000A82100F4804000900098092006904FF449
:1020F0008030079001200B904FF480000D90042059
:102100000E90119020460C96CDE90F16FFF778FC43
:1021100008B172B6FEE70F20CDE901064FF4A050DA
:1021200004904FF48050059001A805210395FFF716
:1021300081FB10B172B600BFFEE712B070BD0000A7
:102140004EF68850CEF20000016841F47001016043
:1021500070470000FEE7000070B54CF2A424C2F204
:1021600001042046442101F0C9FC45F22500C0F6D7
:1021700000001E21002229F075FA4CF2B026C2F2AE
:1021800001064CF249453060C2F201050120287079
:10219000204601F08FFC0146306811B129F086FB22
:1021A00001E029F073FB0020287070BDB1F900C078
:1021B000B2F904309C45C2BFFF2358B270472DE9E5
:1021C000F041B1F90460B2F90050AE420BDBB1F955
:1021D0000260B2F90650AE4205DCB1F90660B2F910
:1021E0000250AE4204DAFF23BDE8F04158B2704716
:1021F000B2F90060B4450FDBB1F90260B2F90250E8
:10220000AE4209DBB1F904609E4205DCB1F906304B
:10221000B2F90660B34263DD4B885588CC88EE1A6C
:10222000B1F804E036B2012EA4EB030407DB4380CF
:102230000123A0F800C0A0F804E0C58000E000235E
:10224000B2F906504E88671B37443FB2012F10DBAE
:10225000B1F90670BD420CDA0F88B1F8048034443D
:1022600000EBC30620F8337001337580A6F80480B4
:10227000F480B2F90260B1F90250B2F90670B1F916
:102280000640AE42C8BF3546A742B8BF3C46661BB3
:1022900036B2012EAEEB0C0C10DBB2F800E00E886B
:1022A000AEEB06073FB2012F08DB00EBC30720F8B7
:1022B000336001337D80A7F804E0FC8092880988B0
:1022C000ACEB02070F443FB2012F8DDB614400EB02
:1022D000C30720F8332001337D80B980FC8083E779
:1022E000002381E770B50346B1F90000B2F9004060
:1022F000B1F902C0B2F90250B1F904E0B2F90460D8
:10230000A042B1F90610B2F90620C8BF0446AC4598
:102310001C80C8BF6546B6455D80B8BF7646914211
:102320009E80B8BF0A460020B4424FF00001D8BFDB
:1023300001219542D8BF01200840DA8070BD00001D
:102340002DE9F04381B00C46B0F90070B1F90010EE
:102350008F423DDBB0F90260B4F902108E4237DBE8
:10236000B0F90490B4F90410894531DCB0F9068065
:10237000B4F9060080452BDC15466AB36946204651
:102380002A46ADF80070ADF8026000F097F8F8B199
:10239000694620462A46ADF80090ADF8026000F08C
:1023A0008DF8A8B1694620462A46ADF80070ADF810
:1023B000028000F083F858B1694620462A46ADF8FD
:1023C0000090ADF8028000F079F801B0BDE8F0832C
:1023D000002001B0BDE8F083012001B0BDE8F0832A
:1023E000B0F90020B1F904309A4213DCB0F90420AE
:1023F000B1F900309A420DDBB0F90220B1F9063094
:102400009A4207DCB0F90600B1F902108842A4BF75
:1024100001207047002070472DE9F04381B00C4641
:10242000B0F90460B1F900108E4211DBB0F906700A
:10243000B4F902108F420BDBB0F90080B4F904103C
:10244000884505DCB0F90290B4F90600814503DD4A
:10245000012001B0BDE8F0831546EAB16946204687
:102460002A46ADF80080ADF8029000F027F898B940
:10247000694620462A46ADF80060ADF8029000F0AB
:102480001DF848B9694620462A46ADF80080ADF8E7
:10249000027000F013F818B1002001B0BDE8F0831D
:1024A000694620462A46ADF80060ADF8027000F09B
:1024B00005F880F0010001B0BDE8F0832DE9F0419E
:1024C000B1F90030B0F90040A3420DDBB0F904E0EF
:1024D000734509DCB1F90210B0F902C0614503DBB4
:1024E000B0F90600814202DD0020BDE8F081012A3A
:1024F00036DBAEEB04050135AEB205EBD6352EB2B8
:10250000A0EB0C050135AFB205EBD7352FB24FEA82
:1025100066087D10B8EB670FB8BF75109542A8BF6D
:1025200015462A1916B205EB0C02B34212B2D8BFF7
:10253000914218DD401BB34200B22CDC81422ADB01
:10254000721912B2121B02EBD272571004EB620620
:10255000294400EB62009B1B081A07FB07F110E0FF
:102560000120BDE8F081701900B2001B00EBD070B3
:10257000421004EB60070CEB6000DB1B081A02FB47
:1025800002F113FB03F210FB002200208A4298BFE5
:102590000120BDE8F081AEEB050424B2A342A8BF40
:1025A000814220DA91424FF001001ADCA342B8BF09
:1025B000BDE8F081601B02B2AEEB020202EBD27208
:1025C00000EB62005710181A0CEB6202891A10FB1C
:1025D00000F007FB07F211FB01010020914298BFB8
:1025E0000120BDE8F081621B17B2AEEB070707EBD5
:1025F000D77702EB67027E109A1A294400EB670036
:10260000081A06FB06F112FB02F2BCE770B5B1F93D
:102610000030B2F90040B1F902C0B2F90250B1F98C
:1026200004E0B2F90460A342B1F90610B2F9062041
:10263000B8BF1C46AC450480B8BF6546B64545806A
:10264000C8BF764686809142C8BF0A46C28070BD28
:102650002DE9F04F93B0044628F084FF0546002092
:102660000A900CB1E06801E012F0FCFF4CF27C4AE9
:102670000169C2F2010ACAF80000084625F0B2F961
:10268000DAF800004069002818BF25F0ABF9DAF845
:102690000000C06925F0A6F9DAF80000006A25F00C
:1026A000A1F9DAF800000169002900F0E680B0F82D
:1026B0005011049500295DD000250DF12C084FF034
:1026C000010906E0DAF800000135B0F850118D423A
:1026D00050D2284490F830010028F3D1DAF80000F5
:1026E000B0F850110029EDD0002706E0DAF800001C
:1026F0000137B0F850118F42E4D2AF42F6D0C11981
:1027000091F830110029F1D100F1300101EBC50041
:1027100001EBC701FFF764FE0028E7D0DAF80000FC
:10272000303000EBC50100EBC7024046FFF76EFFFB
:1027300040460DF017F8DAF80010044601EBC5002A
:1027400030300DF00FF8DAF80010064601EBC70044
:1027500030300DF007F830448442C7D2DAF8000078
:102760000B9A0C9B00EBC50138440A634B6380F85D
:102770003091BBE7DAF8000001680A7CD20700F06C
:10278000A980C9684968002900F0A48000F5AC70F0
:1027900001F022FA002840F09D80DAF8000001687C
:1027A000C9680B688A689A4208BF4B68CDE908324D
:1027B00012F072FFDAF800100790B1F850210020F3
:1027C000002ACDE91100CDE90F00CDE90D00CDE9DA
:1027D0000B0058D00BAEA6F108074FF0000907E038
:1027E000DAF8001009F10109B1F8500181454AD227
:1027F00001EB090090F830010028F1D101F5AC702F
:1028000001F058F90028EBD004460CE0DAF800009B
:10281000214600F5AC7001F0E9F920461EF04CFEAF
:10282000002D2C46DCD0DAF80000214600F5AC7013
:1028300001F056F9DAF80010054601EBC90000F185
:10284000300230462146FFF7B1FC411CE8D0012898
:10285000DCDB5FFA80F8BB46DAF80000214600F5C1
:10286000AC7001F06DF95BF8081FB8F10108DBF8F6
:10287000042001604260EFD1C8E70021A0F85011A8
:1028800013B0BDE8F08F01F5AC7001F013F90DF154
:102890001C0898E86001B8B1044600BFDAF80000EF
:1028A000414600682A46C06B2346876BCDE9006528
:1028B0000294B847DAF80000214600F5AC7001F048
:1028C0000FF904460028E9D1DAF8000000F5AC70F1
:1028D00001F0C4F8DAF800004CF2D479B0F85011E5
:1028E000C2F2010900220029C9F8002000F04F813E
:1028F000012907DB421892F82F214D1E002A294694
:10290000F6D100E000250068416B002918BF884718
:10291000DAF800000168C9688A6922F001028A6158
:102920000168C9688A6922F002028A61B0F8501110
:1029300090F82820002942F0040180F8281000F0C7
:1029400020810DF12C0B0024059520E0816962F3B4
:1029500041014A464CF2D47981613046C2F2010904
:10296000B2602AF021FADAF8000000EBC40030303F
:102970000CF0F8FED9F800100844C9F80000DAF8A5
:1029800000000134B0F850118C4280F0FA80011937
:1029900091F830110029F2D1AC4205D10168C96823
:1029A0008A6942F001028A61016800EBC408C968C3
:1029B00008F130098A6922F002028A610168CA6856
:1029C000CE6B92683260097C890720D012F064FED9
:1029D000DAF80010A0F10108084612F0B5FE01383F
:1029E00007B20FFA88F358460021002200970CF036
:1029F000F3FEDAF80000C6F804B00068D0E903017D
:102A000082698907A2D542F002015A46A2E738F846
:102A100032BFCDF82490414631F8022F4546CDE92A
:102A20000721B9F8001035F9047F069112F08CFEE9
:102A3000874202DAB5F8009005E0DAF8000012F0FB
:102A400083FEA0F10109DDE90610A7EB0B02401A95
:102A5000DAF800100130096800B2CB680132DB6897
:102A60008969B3FBF0F00FFA82FB5845B8BF834683
:102A700011B300205F460B90ADF830007D1EDAF8F0
:102A80000000ADF8325000680BA982699047BDF98B
:102A90003200BDF82E10411A013109B28B4502DA1D
:102AA0002FB2002FEADC39B20029C8BF00F1010BB8
:102AB0000129B8BF4FF0000BB8F900000FFA89F5F3
:102AC0000BEB0008A8F10101A94280B234DD002718
:102AD000059D1FFA89F10DF12C0BB9421CD0099903
:102AE0000988ADF82C1008990988ADF82E00DAF89D
:102AF0000000ADF83010ADF83290C6F804B0C6F85A
:102B000008B00068C06881683160816941F00201E5
:102B1000816130462AF048F94CF2D479C2F20109B9
:102B200021E700BF30462AF03FF940460BFA88F80B
:102B3000A8F10101A942CBDC099A1288ADF82C203A
:102B4000089A1288ADF82E00ADF830200BAADAF8FA
:102B50000000ADF832107260B260006809B2C0685F
:102B60008D4282681FFA89F13260B8BFADF83290A9
:102B7000BDF83270B942D5D1816941F0020181615D
:102B8000D0E790F8281001F0FB0180F82810DAF85F
:102B90000000B0F8501100294AD00068017CC90734
:102BA00026D0C068406818B3DAF80000B0F85011B9
:102BB000F1B130244FF498750BE000BFDAF8000053
:102BC0000135B0F85011A5F598728A4204F1080455
:102BD0000ED2415D0029F1D100F5AC7000F0E2FFAA
:102BE000DAF800100A195268095942600160E5E7F5
:102BF000DAF800004FF4807130301EF031FEDAF860
:102C00000000202100F598701EF02AFEDAF800007E
:102C10000021A0F85011049828F090FC0A90DAF8EE
:102C200000000068436A1BB10A99D9F80020984750
:102C30001EF05AFB00F036F900F00AF94CF2BC76AF
:102C4000C2F201067469E4BB12F00CFD12F03EFD05
:102C50001CF00AFF7F210022044624F0B9FD204623
:102C60000021002224F0A8FD20464FF6FF7100222B
:102C700024F01AFE20460321002224F0FDFD204608
:102C80000321002224F0DAFD20460321002224F053
:102C9000E1FD20460321002224F0E2FD204603212D
:102CA000002224F0FBFD40F63871C0F605012046F5
:102CB0001DF06CFF20460621002200231FF004FFB8
:102CC0007461306828F03AFC80084A280DD8D9F899
:102CD000000041F28931884238D30A98D6E90112BE
:102CE0000844511CC6E9010130E028F03BFCDAF849
:102CF00000103060496829B108684FF47A71B1FB5F
:102D0000F0F500E021257068002804BF0120706004
:102D1000B168284629B14FF47A7072684843B0FB15
:102D2000F2F00021C6E90111D6E90312A84238BF2A
:102D3000054650193061481CF06028F0B9FCC0F11C
:102D4000640336A120462A461DF05CFF4CF2B075A4
:102D5000C2F201052C68BCBB12F084FC12F0B6FC78
:102D60001CF082FE7F210022044624F031FD204623
:102D70000021002224F020FD20464FF6FF710022A2
:102D800024F092FD20460321002224F075FD204608
:102D90000321002224F052FD20460321002224F0CA
:102DA00059FD20460321002224F05AFD40F63871D7
:102DB000C0F6050120461DF0E9FE20460421002250
:102DC00000231FF081FE2C604CF2AC75C2F20105AD
:102DD000286828F0B3FBB0F5967F1CD928F0C2FB19
:102DE00028600BA81EF096FB0B980D9948F28322E1
:102DF000401A40F2FE310140C0F28222A1FB0213D0
:102E00009DF844709DF84560820A08A12046CDE9EE
:102E100000761DF0F7FE13B0BDE8F08F2575204653
:102E200050530A25752525204350550025752E251C
:102E300075206B4220757365642028256420252544
:102E4000290A2564252520667261672E000000008E
:102E5000B0B54CF2B4250024C2F20105285900286F
:102E600018BF1EF029FB28191C211EF0F9FC1C3488
:102E7000702C08BFB0BDF1E74CF28C51C2F20101D9
:102E8000096804E00A7E42F001020A7649690029D5
:102E900008BF70474A688242F4D00A688242F5D17E
:102EA000F0E70000704700004CF2B030C2F20100C1
:102EB000042100F023BE00004CF2C030C2F2010039
:102EC000202100F01BBE00002DE9F04F85B00E9EC2
:102ED0001D46002B834608BFB6F5807F6DD0DDF818
:102EE0003C800023019301A8ADF80810CDF80A300A
:102EF000ADF80E20ADF81010ADF81220294632467C
:102F00004346071D00F1080900F10C0A24F0C0FD3A
:102F1000384629463246434624F0BAFD48462946FB
:102F20003246434624F0B4FD5046294632464346D5
:102F300024F0AEFDBDF90420BDF90830BDF90C60E8
:102F4000BDF910409A421F46BDF90610BDF90A00AE
:102F5000B8BF1746A6422546B8BF3546AF42B8BFF0
:102F60003D46AF1E9A42ABF80070C8BF1346A6425A
:102F7000C8BF3446A342C8BF1C46A21CBDF90E30D0
:102F8000BDF91260ABF8042081420246B8BF0A4680
:102F9000B3423746B8BF1F46BA42B8BF1746BA1E3B
:102FA0008142ABF80220C8BF0846B342C8BF1E46E4
:102FB000B042C8BF0646B01C06E00020CBF80000B7
:102FC000481EABF80400501EABF8060005B0BDE883
:102FD000F08F0000F0B581B016460C46074628F089
:102FE000C1FAA2B24CF2CC34C2F20104054620462A
:102FF000394633461BF0AAF868B1E0690021A162A6
:1030000018B9284628F09AFAE061E069002804BF60
:103010000120E06107E020462C211EF021FC4FF04A
:103020000040A0620024204601B0F0BD10B54CF273
:10303000F834C2F201042046142100F05FFD20465E
:1030400000F064FDB0B1142104461EF009FC4DF6F9
:103050008520C0F601004DF671314DF68D524DF6CA
:103060004D23C0F60101C0F60102C0F601030FC4F2
:1030700010BD00BFFEE70000B0B50C46054608468F
:1030800010211EF0EDFB28680178042908D00229E0
:1030900008D0012908D1A98A2180E98A618003E04A
:1030A0000A2100E0E96861604268002A08BFB0BDFB
:1030B0002146BDE8B04010472DE9F04F8BB00746E0
:1030C000804637F8140F20B9B8F81600002800F031
:1030D0000A83D8F82C90B9F1000F23D0B9F1000F72
:1030E00000F0C7814FF4807600244D462846002129
:1030F0006E2221F06BFE0444284600216D2221F04F
:1031000065FE01B2C90D50FA81F000B200124643CB
:10311000284621F0CFF805460028E7D1200400F02A
:10312000AD81AFE101971BF027FD0068B8F81810DA
:10313000037EB8F81400B8F81A200844B8F816103E
:10314000A8F818005018D8F82470A8F81A005842A7
:1031500004904FF0000A4FF0000B00200593CDE9DA
:103160000600CDF8088012E0DDF808805FEACB7039
:1031700098F840104FF00C0018BF032001F0F00148
:10318000084488F840000120002840F03581002FD5
:1031900000F0328100244FF480763D460A9400BF4F
:1031A000284600216E2221F011FE04442846002109
:1031B0006D2221F00BFE00B270430612284621F06A
:1031C00079F805460028EBD1D8F8180021040990B9
:1031D00008BFB6F5807F09D04FF48031604291FB83
:1031E000F6F201B209A80AAB24F052FCBDF82400A3
:1031F00001B280EAE130A0EBE130BDF8261080B2E8
:103200000AB281EAE231A1EBE23189B288424FF0A1
:1032100000004FF0000188BF012098BF01214AEA59
:10322000010A4BEA000B3846102121F0BBFF0028B1
:1032300000F0BE80384621F0B1F8814600F004006D
:103240000AEA9000039009F008000AEAD004384620
:1032500021F0CCF90646384621F03EF805463846BE
:1032600021F0CAF88046384621F03EF9002ED8BF3A
:10327000012D19DBBDF92610059A91424FF000028D
:10328000A8BF0122039B1A40049B99424FF0000102
:10329000D8BF012121401143069918BF0C21069186
:1032A000079918BF3946079109F00201A64609EAB5
:1032B0000B02B8F1000F0BEA510CD8BF012819DB43
:1032C000BDF92430059CA3424FF00004A8BF01249F
:1032D000049914408B424FF00003D8BF012303EA46
:1032E0000C032343069918BF0321079B069118BFBF
:1032F0003B460793B8F1000F4FF00004C8BF01240C
:10330000002D4FF00003C8BF0123002E4FF0000630
:10331000C8BF012604EA0205BDF92420012D03D10E
:10332000059DAA42BFF620AF00284FF00000C8BF9D
:10333000012000EA0C00012803D1049882427FF7A3
:1033400013AFBDF92600059A039990424FF0000291
:1033500001EA0601A8BF0122049EB0424FF000001E
:10336000D8BF0120114204BF03EA0E0110EA010098
:103370007FF4FAAE38464FF4807121F013FF002835
:1033800004BF8BF001005FEAC07031D038464FF4C3
:10339000007121F007FF002804BF8AF001005FEAF6
:1033A000C07025D0384620F085FF0746002020E079
:1033B00038464FF4807121F0F5FE002804BF8BF0F1
:1033C00001005FEAC0703FF4DEAE38464FF4007192
:1033D00021F0E8FE002804BF8AF001005FEAC07017
:1033E0003FF4D1AE384620F065FF07460020CBE61B
:1033F0000120DDF80880C7E6DDF81C90019FB9F1D7
:10340000000F00F0708198F84000069900F0F0007D
:1034100001F00F01084488F840000020C8F81800A7
:10342000484680214EF20105C8F82C9021F0BAFEE2
:10343000002800F0AE80484621F0D0F8032800F0C4
:10344000B480022800F0CA80012840F0D980B9F881
:10345000160041F6FF72013001B24846002307F022
:1034600003F8A8F83600B9F8160029B2013802B2FC
:10347000C1E000244FF48076200403D1B0B2B0F54F
:10348000807F0DD030B24FF4803292FBF0F0614279
:103490000022089209B202B208AB384624F0F8FACA
:1034A00098F8400000F00F00032812D1484621F0A0
:1034B0001BF80546484620F09FFFB7F9001002466A
:1034C000032748462B46009706F09AFD064600253E
:1034D00011E0484621F08AF80546484620F0FCFEF7
:1034E000B8F9161003460C2748462A46009706F0FE
:1034F00087FD05460026484620F050FF002E344642
:10350000C8BF0024C10718BF344681072E4658BFE4
:1035100024EAE474002DC8BF0026410748BF2E46A8
:10352000000758BF26EAE676B8F91A10B8F936301F
:103530007718B8F91800B8F934209F42B8BF5E1A5E
:10354000B8F93A3001FA86F79F42C8BF5E1A2118CF
:103550009142B8BF141AB8F9381000FA84F28A42BE
:10356000C8BF0C1A21B232B2484600F08FFB98F85F
:103570000100800700F1B780B8F81800B8F81A10F9
:103580002044A8F818008819A8F81A000BB0BDE864
:10359000F08F29B208F1340041F6FF760A4641F671
:1035A000FF7300960CF018F977E0B9F81600B9F837
:1035B0001A100023091A01318AB201EBD23109B283
:1035C00000EB6104601C01B2484641F6FF7206F050
:1035D0004BFFA8F83600601E02B20BE0B9F91A10D2
:1035E000484641F6FF72002306F03EFFA8F8360079
:1035F000B9F91A2029B24846002306F035FF03E046
:1036000041F6FF70A8F83650A8F83A00484620F076
:10361000DDFF032810D0022827D0012837D1B9F9BF
:103620001410484641F6FF72002306F081FEA8F808
:103630003400B9F9142024E0B9F81400B9F81810CE
:103640000023091A01318AB201EBD23109B200EB31
:103650006104601C01B2484641F6FF7206F068FE44
:10366000A8F83400601E02B20BE0B9F91810484601
:1036700041F6FF72002306F05BFEA8F83400B9F9AA
:10368000182029B24846002306F052FE03E041F616
:10369000FF70A8F83450A8F83800B8F834000921B1
:1036A000002808BFA8F83450B8F8380000220028D5
:1036B00004BF41F6FF70A8F83800B8F836000028BB
:1036C00008BFA8F83650B8F83A00002804BF41F601
:1036D000FF70A8F83A00484619F09EF898F80100E3
:1036E00080077FF5FBAC0BB0BDE8F08F2DE9F0470C
:1036F00082B0C56A002D00F0F280044690F84000C8
:10370000000700F0EC801BF037FA8146006840218A
:10371000467E284621F046FD002804BF0020E061D7
:10372000284620F053FF8046284620F057FF94F8A3
:103730004010824601F00F01032922D00C2940F0ED
:10374000CC80E78B0020BAF1000FA08339D01BF0AA
:1037500013FA002F4FF000017BD0006848F21F528F
:10376000407E0026C0F16400C5F2EB1210FB07F3A7
:1037700053FB02F33E445F1107EBD3773B04F5D1D3
:1037800068E0A78B0020B8F1000FE0833DD01BF06C
:10379000F3F9002F4FF000017CD0006848F21F526F
:1037A000407E0026C0F16400C5F2EB1210FB07F367
:1037B00053FB02F33E445F1107EBD3773B04F5D193
:1037C00069E038B2C6F16401484348F21F51C5F2BE
:1037D000EB1150FB01F0410901EBD070E08328466A
:1037E00020F07AFD0646284620F000FFB4F91E10AE
:1037F00002460C2728463346009706F001FC024695
:10380000E08328460021002365E038B2C6F1640158
:10381000484348F21F51C5F2EB1150FB01F041093A
:1038200001EBD070A083284620F0E6FD064628462E
:1038300020F05AFEB4F91C100346032728463246EE
:10384000009706F0DDFB0146A083284600220023F6
:1038500041E00026B4F91A00E183B4F93610B4F956
:103860003A2000FA86F38B42B8BF0E1A00FA86F1AE
:1038700091424EF20101C8BF161A33B2CFF6FF7162
:10388000284641F6FF7206F0EFFD304402B22846AA
:1038900000211FE00026B4F91800A183B4F9341008
:1038A000B4F9382000FA86F38B42B8BF0E1A00FA3A
:1038B00086F191424EF20101C8BF161A33B2CFF61B
:1038C000FF71284641F6FF7206F032FD304401B226
:1038D00028460022012323F0D7F9A08B10B102B0B3
:1038E000BDE8F087E08B0028F9D1BAF1000F16D1BE
:1038F000284620F07BFE0746284620F0EDFC002FEE
:10390000D8BF01280BDB002F03D4B0F1FF3F06DC4A
:1039100047423AB228460021012323F0B5F9B8F115
:10392000000F16D1284620F067FD0746284620F0F4
:10393000DBFD002FD8BF01280BDB002F03D4B0F133
:10394000FF3F06DC474239B228460022012323F01C
:103950009BF928460A214A4618F05EFF60788007E6
:10396000BDD494F8400000F0F00084F8400000203E
:10397000E06202B0BDE8F087F0B585B004460D46C0
:1039800010B134B905B0F0BD11F06CFE0446002C46
:10399000F8D0204611F0F2FE0028F3D094F8280069
:1039A0004007EFD40020D5B30290204611F074FEFA
:1039B0000138ADF80C00204611F0C6FE0138ADF814
:1039C0000E00684602AA2946FEF78CFC0028D9D0D2
:1039D0002068017C890726D482690AB1694690472C
:1039E000B4F8500190B104F1300500276E4600BFD5
:1039F000304629460022FEF7A3FC0028C2D1B4F8C5
:103A000050010137874205F10805F1D31F2811D86D
:103A10000099019A04EBC0000163426311E0A4F82D
:103A2000500105B0F0BDDDE90201C4E90C01606898
:103A300001210AE00020A4F85001DDE90201206321
:103A40006163B4F85011606801310028A4F8501186
:103A500098D027F02BFF05B0F0BD0000F0B581B085
:103A60000028044614BF656800250DB3002707E051
:103A7000002D656014BF6F50A7601DF01DFDBDB126
:103A8000D4E9001328460A1DAD588342F0D0A66839
:103A90004358864206D0002B18BF9D50002D18BFFA
:103AA0006B50EAE7002BA36014BF9F506760E4E708
:103AB00001B0F0BD002814BF40680020704700002E
:103AC000002814BF4168002139B10068021D0020A0
:103AD000895801300029FBD1704700207047000051
:103AE0000068084440687047006808587047000044
:103AF000002814BF806800207047000003310022B6
:103B000021F00301C0E900128260704710B504463D
:103B1000006808301DF0C4FB002808BF10BD2168F4
:103B200000224250626801444A60616800291CBF5B
:103B300022688850A1686060002908BFA06010BD9D
:103B400070B5044600284FF0000013D00D4689B12F
:103B5000D4E9000608301DF0A3FBAE420BD0F0B153
:103B600021686A58002A1CBF8B18586043184250BD
:103B700068505D6070BD4FF0000280B12168425016
:103B8000626843185A606268002A18BF5050A168E2
:103B90006060002908BFA060002818BF70BD002029
:103BA00070BD000010B50446006808301DF078FBB9
:103BB000002808BF10BD2168002342185360A26886
:103BC0004250A16811B12268114448606168A06048
:103BD000002908BF606010BD28B1416809B980683C
:103BE00008B10020704701207047000080B5002810
:103BF00008BF80BD42688A4213D0D0F800E08268D6
:103C000051F80E308A4217D00EF1040C51F80C0016
:103C1000002B18BF43F80C00002818BF40F80E30E6
:103C200080BD0268114449680029416007BF002136
:103C300081600020885080BD0021002B836018BF68
:103C40000EEB0300416080BD10B5044606E000BFE6
:103C500020680068002808BF10BD206020688268C6
:103C6000002AF5D021469047F2E70000806800283E
:103C700014BFC08A002000B270470000806800288E
:103C80000EBF0020807E80097047000070B50E4690
:103C900011431BD0154604461FF064FAA0680123A7
:103CA000018A428A314401825119418220463146BB
:103CB0002A4621F037FE20460B21002218F0ACFDE9
:103CC000012818BF70BD204621F08AFD012070BD7B
:103CD000F0B581B01446A8B1622206460F4621F025
:103CE00075F878B10546006860B130463946632200
:103CF00021F06CF8010605D02B68A1B2C2B22846AB
:103D0000984700E02046C0EA040001B0F0BD000082
:103D10002DE9F04F91B00446408CDDF868B040F0DA
:103D20000400608422841646BBF8082020461F4603
:103D30008A4621F04BF82784BBF808200546204628
:103D4000514621F043F8618C814621F004004D4535
:103D5000608403D102D111B0BDE8F08F2684BBF896
:103D600008202046514621F031F880462046514631
:103D7000278407F0E7FD0068BBF80810424625F0ED
:103D800055FDBBF808000B2827D147F6FF75A9455C
:103D900018BFA84521D1204621F096F981B200EB49
:103DA000D13000B24610204620F028FA81B200EB54
:103DB000D13000B24010A84506F1010100F1010028
:103DC00003D180468142B8BF884647F6FF729145CD
:103DD00003D18142B8BF084681464CF21440C2F27A
:103DE0000100FFF793FEC8B3C0E9038904600646EB
:103DF000BBF808006C46B0802046C6F808A00AF060
:103E00000DFF43F68510C0F60300019043F6B9306C
:103E1000C0F60300029043F6F920C0F603000390B9
:103E20000020CDE90800FF200A90BBF80000BBF895
:103E300002100B9048420C90DBE903019DF84220F0
:103E4000079002F0FE008DF8420020460096069191
:103E50000AF064FF11B0BDE8F08F00BFFEE700007C
:103E60004CF21440C2F201001421FFF747BE0000DB
:103E70002DE9F04F81B00446408C10F4FC7F00F037
:103E80001E816FEA0109D5434FF0000AE8464FF062
:103E9000000B0BE00120002800F01481608C0BF176
:103EA000010BC0F3C500834580F00E81E06800EB94
:103EB000CB0149688A01F1D489B211EA090201EA09
:103EC0000501B1FA81F14FEA511118BF01224A40B0
:103ED000E0D150F83B6010213046424625F086FA8A
:103EE00080BB30461121424625F080FA50BB304657
:103EF0001221424625F07AFA20BB30461321424671
:103F000025F074FAF0B930461521424625F06EFAD4
:103F1000C0B930461421424625F068FA90B93046BF
:103F20000A21424625F062FA60B930466B214246CA
:103F300025F05CFA30B930466C21424625F056FA3D
:103F4000002852D00127002F58D13046692142461F
:103F500025F04CFA002842D130466A21424625F02D
:103F600045FAE0BB30466E21424625F03FFAB0BB31
:103F700030466D21424625F039FA80BB3046372164
:103F8000424625F033FA50BB30463821424625F0F0
:103F90002DFA20BB30463521424625F027FAF0B9EC
:103FA00030464021424625F021FAC0B9304645212D
:103FB000424625F01BFA90B930464121424625F091
:103FC00015FA60B930464221424625F00FFA30B961
:103FD00030464321424625F009FA00285AD04FF0D6
:103FE000020A002F3FF456AF0BE030460121424653
:103FF000012725F0FBF948B1002FA6D0002F3FF490
:1040000049AF002000287FF449AF5BE0304604212F
:10401000424625F0EBF900287FF494AF30460221A8
:10402000424625F0E3F900287FF48CAF30460321A7
:10403000424625F0DBF900287FF484AF30460521A5
:10404000424625F0D3F900287FF47CAF30460621A4
:10405000424625F0CBF900287FF474AF3046322178
:10406000424625F0C3F900287FF46CAF30466E213C
:10407000424625F0BBF900287FF464AF30466D213D
:10408000424625F0B3F90746002818BF0127002F44
:10409000B4D15AE730464921424625F0A7F95FFAE4
:1040A0008AFABAF1010F98BF4FF0010A00284FF0C9
:1040B000020018BF8246002F3FF4ECAEA1E74FF09C
:1040C000000A01E04FF0030A5FFA8AF001B0BDE890
:1040D000F08F00004CF27C40C2F201000068704793
:1040E0004CF2BC70C2F201000021C0E90011C0E92D
:1040F0000211C0E904114CF2AC70C2F2010001607F
:104100004CF2B070C2F2010001607047C0F30410BD
:10411000072828BF072070474FF6FF71884204BF69
:104120001F20704708B900207047702805D844F652
:104130003471C0F60301085C70474CF22041C2F2B2
:10414000010109680029EED04CF22442C2F20102BA
:104150007138126880B2824284BF085C7047E2E71F
:1041600080B54CF23040C2F201001821FFF7C6FCC6
:1041700048F64600C2F201000121017080BD000036
:10418000002808BF70472DE9F041164604460D4649
:10419000FCF772FA4CF20408C2F20108D8F80020C9
:1041A0000746204629469047D8F800200546204477
:1041B00031469047391A8D4205D82044425D6255F8
:1041C00001358D42FAD9BDE8F04170472DE9F04143
:1041D0004CF20C08C2F201081446D8F800200F4631
:1041E00019461D4606469047386040B12868D8F801
:1041F00000203044002190472060BDE8F08100207D
:104200002060BDE8F08100002DE9F04F91B01A9ECA
:104210000546002E1F460A921CBF002030802DB399
:1042200000294FF0000000F05E812A78002A00F09B
:104230005A811B9810F0060F1CD00020012142F279
:10424000014200E001302B5C0D2BFBD801FA03F793
:104250001742F7D0002B18BF0130002E00F0438129
:104260004FF6FF71318011B0BDE8F08F002011B022
:10427000BDE8F08F00200E9040F64670C0F60500B5
:1042800001384FF0000B4FF0000A049101900095A7
:104290000E9EA85D002800F00F8138B20128C0F200
:1042A0000B814CF20C00C2F2010005EB0609002163
:1042B000026810910F91484610A99047044699F85A
:1042C0000000109900280F910697039600F0B68021
:1042D0000A984FF0FF3600FA87F007900020002779
:1042E00000230D900B90CDF808A04CF20C00C2F208
:1042F0000100026848460FA909970C9390471B9943
:104300008046CF0704D10B980130089004984BE009
:10431000DDE90BA505962046A0F12301B1FA81F154
:104320005FFA8BF300224909032B38BF01220A40B0
:104330004FEAC30359464FF0010618BF26FA03F1AE
:10434000CBB2012B464603D1202808BF022103E04F
:104350006BEA0202D20719D1109D8B4619F80500AD
:104360000F99002810915DD04CF20C00C2F20100B0
:10437000026848460FA9904780460AF1010A002FBB
:104380003046C9D10AF10100089008E00AF10102A3
:10439000B0468B4604460892CDF82CA00C95009DA3
:1043A000DDF808A0DDE90406099F2146424618F021
:1043B000C7FB01B2074400290A98C8BF0744079900
:1043C00038B281420C99A8BF4FF0FF31721C08BF70
:1043D0000E460A2C47D00D2C45D0A4F59C4145F241
:1043E000A61291423FD3019A062100BF12F8013F65
:1043F0009C4203D00029A1F10101F7D19C4232D0A7
:10440000711C0D9908BF0146DDE90F030D9119F8E4
:10441000031044460029089910900B917FF465AF72
:1044200014E000BF0AF101012B463446B046009D5E
:10443000DDF808A0059E701C0AD11FE000200D9039
:104440004FF0FF36002300214FF00008701C15D0FC
:1044500003980D9A00284FF000001CBF0246064644
:10446000069F334614E00C9B63EA060100290D9970
:1044700008BF01460D910B99701CE9D129B10D2C93
:1044800004BFB8F10A0F109B00E0109B069F0D9A25
:1044900092448BB10E98297818440A290E900BD0BB
:1044A0000D2909D0295C0D2904D00A29A7EB0207A0
:1044B0007FF4EEAE01300E900E981A9C70B94CF25B
:1044C0000C00C2F2010002680EA9284690472CB1E8
:1044D00001460498002218F033FB8246002C18BFD6
:1044E000A4F800A00E9811B0BDE8F08F002808BF16
:1044F00070472DE9F04381B016464AB30546304671
:104500008846FCF7B9F818B304462846FCF7B4F817
:1045100007464CF20400C2F20100026828464146F8
:1045200007EB040990470119894507D32A1900BFF1
:10453000EB5DD355013FE3198B42F9D22844711E3C
:10454000013800BF11F8012F013C00F8012FF9D10B
:1045500001B0BDE8F043704723290BD10278022A4D
:1045600008D8D3004FF0010C2CFA03F32CEA020216
:10457000037000E000220378012B04D101222029DE
:1045800004BF022101701046704700002DE9F04180
:1045900082B004460B46CDE90011002000212246DE
:1045A0004FF0000827F068FE451C074628461CF01F
:1045B00077FE58B100F80780019B2946224606463F
:1045C00027F05AFE304602B0BDE8F081FEE7000059
:1045D0002DE9F047E2B1DDF820909A4614460F46E7
:1045E000804606E064F001003044441C05EB0A07F5
:1045F00074B1660806FB0A7540462946C84701287B
:10460000F0DAB0F1FF3F3446F2DD2846BDE8F0872E
:1046100000252846BDE8F0872DE9F04F83B01E46FF
:10462000129B0DF1300C8146DDE910E09CE820186A
:104630008A469F07904602903AD450B1D8070AD0D4
:1046400013F00C0018BF0120119940EA0C00081A61
:1046500000E000200290BEF1200F4FF0200538BF8F
:1046600075465D454FF020040DD90C98A5EB0B0164
:10467000584430229B46FCF71EF8DDF840E0DDF898
:1046800038C05B46AB460298202838BF0446D8079E
:1046900001D10C9D0CE00C9D302100BFA34507D239
:1046A0000BF1010205F80B1000289346F6D1934652
:1046B000D80638D50F98590507D4BBF1000F04D0A0
:1046C000F34512D002998B450FD0102819D19906C5
:1046D00004D4BBF1200F01D2782018E0002910D5B6
:1046E000BBF1200F0DD2582011E0BBF101010A46A9
:1046F00018BFABF10202102818BF0A4693461028D3
:10470000E5D0022807D1BBF11F0F04D8622005F8BD
:104710000B000BF1010BBBF11F0F9EBF302005F802
:104720000B000BF1010BBBF11F0F0FD8BCF1000FF9
:1047300001D02D2006E0580703D4180706D5202005
:1047400000E02B2005F80B000BF1010B444601970C
:1047500087B90298444658450CD902984246A0EBC6
:104760000B0700BF202051463346541CC847013F69
:104770002246F7D1BBF1000FCDF8008010D0A5F193
:10478000010800BF18F80B00514622463346ABF132
:104790000105671CC847002D3C46AB46F2D100E03E
:1047A00027460198002812D50099DDF80880781A6C
:1047B00040450CD24D4200BF202051463A46334678
:1047C0007C1CC847281940452746F5D300E03C46E5
:1047D000204603B0BDE8F08F9A4238BF8854704736
:1047E000704700002DE9F04F97B00D46209944F234
:1047F000E1781C461746C0F600084FF0000A0E91FB
:10480000002D18BF80460026A05D0AEB060B00288D
:1048100000F0FB83252805D029465A463B46C04771
:104820000136F1E7A019441C4FF000090D970B95D4
:1048300004E000BF01340020002821D12078A0F13D
:10484000200110294FF00100F6D8DFE801F00D0C2F
:104850000C090C0C0C0C0C0C0C100C130C0C160092
:1048600049F01009E6E7E7E749F00809E2E749F00F
:104870000409DFE749F00209DCE749F00109D9E75B
:104880002078CDF83080A0F13001092912D8601EBF
:104890004FF0000810F8011F08EB8802437801EB85
:1048A0004201A3F130020A2AA1F13008F2D3441CDC
:1048B00014E000BF2A280FD10E99013451F8040BDF
:1048C0000E9180460221002848BFC0F1000801EA8D
:1048D000907049EA000901E04FF0000820782E2886
:1048E0001AD1204610F8011F49F48069A1F1300265
:1048F000092A24D8601E0025827805EB8501C3783B
:1049000002EB4101A1F13005A3F130010A2900F1C8
:104910000100F1D3841C00E000252078A0F168019B
:10492000C00740EA5100092821D8DFE800F0131D34
:10493000812020200520200549F4807916E02A29CD
:1049400040F088800E99023451F8040B20EAE0759B
:104950000E91E2E7204610F8011F682940F07D80A3
:1049600049F0C009023402E049F4007901342078AA
:10497000A0F12501532900F2BF801023DFE811F0D8
:10498000B800BC00BC00BC00BC00BC00BC00BC004B
:10499000BC00BC00BC00BC00BC00BC00BC00BC0037
:1049A000BC00BC00BC00BC00BC00BC00BC00BC0027
:1049B000BC00BC00BC00BC00BC00BC00BC00BC0017
:1049C000BC00BC00BC00BC00BC00BC00BC00BC0007
:1049D000BC00BC00BC006100BC00BC00BC00BC0052
:1049E000BC00BC00BC00CA00BC00BC00BC00BC00D9
:1049F000BC00BC00BC00BC00BC00C800A20154004C
:104A0000BC00BC00BC00BC005400BC00BC00BC002E
:104A1000BC00BC0075006100BC00BC007700BC009D
:104A20005400BC00BC00CA0029F010090A2371E040
:104A3000204610F8011F6C2913D149F44079023443
:104A400095E7204610F8011F49F48879562908BFD8
:104A500004465FE0002504465FE749F0800904460C
:104A600085E749F48079044681E7082352E00E98EF
:104A7000002650F804AB0E909AF80000002850462B
:104A80000ED02846002D08BF4FF0FF30414250465F
:104A900010F8013F013146F100020BB1002AF7D0B6
:104AA000A0EB0A000994A8422C4638BF04465FEAEE
:104AB000495658BF04465FEA89700A9000F1468261
:104AC000A04540F242820895DDE90B590D9F08F19F
:104AD0000100A8EB040407905A46202029463B46D3
:104AE0000BF1010BC847013CF6D1DDE907452DE28A
:104AF0000BF1010A252001E00BF1010A0B9D0D9F2E
:104B0000DDF8308029465A463B46C04701347AE6F4
:104B1000022300BF207840F00801582908BF49F05F
:104B20002009642803D0692818BF29F00C095FEA1E
:104B3000495148BF29F00109562818D0692801D0E9
:104B4000642831D15FEA895042D45FEAC95057D412
:104B50005FEA496000F1C080DDF838E0AA46DEF87F
:104B600000C05FEA096048BF0FFA8CFCB9E00E99FB
:104B7000A44651F8040B0B9D0E9141680D9F0C68E3
:104B8000DDF830800F9405EB0A01A7EB0A020368F9
:104B90003144921B404600946446FFF723FE504484
:104BA00000EB060A01342EE65FEA89503DD45FEA45
:104BB000C95000F1A5805FEA496000F16281DDF82B
:104BC00038C05FEA0961DCF8000048BF80B25CE1F0
:104BD0000E98073020F007000246476852F8080B8D
:104BE00050EA070108BF29F010090E920994CDE997
:104BF0000775A1BB19F4806131D000221F465BE02C
:104C0000DDF838E05EF804CBBCF1000F08BF29F0F6
:104C10001009BCF1000F40F0868019F4806000F0AC
:104C20008280AA4600221F469EE00E980895073013
:104C300020F007000146456851F8086B56EA050068
:104C400008BF29F0100900280E91099440F09480C3
:104C500019F4806000F0908000221F46B0E080EAE6
:104C6000E770B0EBE77509F0200087EAE77180F0A4
:104C7000610061EBE776F63000221F460A9000BF24
:104C80009246284631463A460023FBF741FB00FB9B
:104C900017520A9B0A2A38BF302313440AF1010233
:104CA000BAF11E0F0FAC04F80A3005D8EB1B76F1F1
:104CB000000305460E46E3D207980FA9C00FCDE9C1
:104CC000001281E05FEA897640F1BF800B9DDDF83C
:104CD00038A04FF001096AE1DDF838E0AA469EF8F5
:104CE00000C0BCF1000F1F4608BF29F01009BCF13D
:104CF000000F40F07E8019F480607AD0002197E0A8
:104D0000DDF838C05CF8040B002808BF29F0100952
:104D1000002840F0C68019F4806100F0C280AE46E1
:104D200000211F46F6E009F0200181F06101AA464A
:104D3000604601F1F60600221F46BCF1000F48BF95
:104D4000CCF10000B0FBF7F1334601FB17050A2D4B
:104D500038BF30232B440FADAB541E2A02F10102A1
:104D600002D8B8420846EDD24FEADC700FA9CDF860
:104D700038E0CDE9001264E009F0200080F0610025
:104D8000F63000221F460A909246304629463A469F
:104D90000023FBF7BDFA00FB17620A9B0A2A38BF03
:104DA000302313440AF10102BAF11E0F0FAC04F8CC
:104DB0000A3005D8F31B75F1000306460D46E3D211
:104DC0000FA8CDE900020020CDE9020708980B9D4D
:104DD000CDE90408DDF830800D9F404629465A464B
:104DE0003B46CDF81890FFF717FC8246099C01342A
:104DF00009E509F0200181F06101604601F1F60644
:104E00000021BCF1000F48BFCCF10000B0FBF7F26D
:104E1000334602FB17050A2D38BF30232B440FAD54
:104E20006B541E2901F1010102D8B8421046EDD29F
:104E30000EF1040E0FAACDF838E04FEADC70CDE990
:104E4000002102A981E881046DE0DDF838A0B8F105
:104E5000020FC0F0A9800BAFCDE90946E0CF08F101
:104E60000109C8F1000400BF5A46202029463B46EC
:104E70000BF1010BB0470134601CF5D1DDE90946A7
:104E800095E0DDF838C09CF8000000281F4608BFF8
:104E900029F0100908BB19F480611ED0AE4600212C
:104EA00036E009F0200181F06101AE4601F1F6051E
:104EB00000211F46B0FBF7F32A4603FB17060A2E14
:104EC00038BF302232440FAE72541E2901F1010165
:104ED00020D8B8421846EDD21CE009F0200181F03C
:104EE0006101AE4601F1F605002100BFB0FBF7F30A
:104EF0002A4603FB17060A2E38BF302232440FAE73
:104F000072541E2901F1010102D8B8421846EDD2AF
:104F10000CF1040C0FA8CDE90001002002A9CDF886
:104F200038C081E88140CDF81480DDF830800B9DD9
:104F30000D9F404629465A463B46CDF81890FFF74C
:104F40006BFB82460134FFF75EBC01349AF8000027
:104F500098B10AF101090BE00B99DDE90C73C0B2BD
:104F60005A460BF1010AB84719F8010BD34628B18C
:104F7000002EF1D50DB1013DEEE7DA460A98002882
:104F80003CD50B9D0D9FA0453CD9A8EB0404DDF852
:104F9000308000BF5246202029463B460AF1010AD4
:104FA000C047013CF6D121E70B9D4FF002091AF8EA
:104FB000040BDDE90C7329465A46CDF838A00BF1F5
:104FC000010AB847002E14D5C84512D92646A8EBC9
:104FD0000904DDE90C8700BF5246202029463B46E4
:104FE0000AF1010AC047013CF6D13446741CFFF7B0
:104FF0000ABCDDE90C870134FFF705BCDDE90B587D
:105000000D9FF3E6DDF83080F0E65A460020294691
:105010003B46BB4528BF7A1EC047584617B0BDE87F
:10502000F08F00002DE9F04F81B04CF26868C2F2B9
:105030000108D8F8000026F081FA40F22509C2F2F2
:10504000000999F80010044681F0010089F8000079
:105050004CF2A420C2F20100FEF72CFD002800F063
:10506000AD804CF249474CF2A42B0646C2F2010730
:105070004FF0000AC2F2010B08E000BF584631466B
:10508000FEF72EFD0646002800F0988096F84200B4
:1050900099F80010C0F380028A4287F800A000F05F
:1050A000858000F0FB0242EA8101020786F8421087
:1050B0001AD4316B002917DC091915D4C00709D19E
:1050C000716939B130468847316AB26A0144104487
:1050D0003162B062B16809B13046884796F8420043
:1050E00040F0080086F84200306B001930635DD450
:1050F000F16A8842C8BF3163F16930468847726AF5
:10510000904205D07268014670620AB130689047DB
:10511000D6E90B01814249DB96F842108A0709D48F
:10512000B6F8403033B14FF6FF75AB421CBF013BC0
:10513000A6F84030B6F840301BB9002A16D4B36B3D
:10514000A3B1D6E90E356D4235637BB3002A02D494
:10515000726B5242326381F0020186F84210B16AEA
:10516000326A3162C6E90A23B0631FE0584631460D
:10517000FEF73CFD012038705846FEF79BFC0146C7
:105180004CF2B020C2F20100006811B126F08EFB93
:1051900001E026F07BFBF16809B1304688473169B0
:1051A00009B13046884730461CF086F93878012826
:1051B0007FF464AF5846FEF77DFC63E726F0D2F932
:1051C000C8F8000001B0BDE8F08F0000B0B504469B
:1051D00040680D4610B12946FFF7F8FF2268002A03
:1051E00008BFB0BD20462946BDE8B04010470000CA
:1051F00089B20AF0AFB9000089B20AF01FBA000004
:1052000007F092BB002A08BF70472DE9F041144611
:1052100005464E1E6FF05F08013C6F1C07F05AFCFC
:10522000C5F3062008EB4000C0B207F029FC07F0E8
:1052300095FCE8B207F024FC07F090FC07F04AFC6C
:10524000A12007F01DFC07F089FC002007F0BAFB45
:10525000054607F063FC06F8015F20043D46DBD1FC
:10526000BDE8F0417047000010B5044607F032FC7D
:10527000C4F306206FF05F0101EB4000C0B207F0FD
:10528000FFFB07F06BFCE0B207F0FAFB07F066FCEF
:1052900007F020FCA12007F0F3FB07F05FFC0020E3
:1052A00007F090FB044607F039FC204610BD0000D3
:1052B000002A08BF70472DE9F041144605464F1EED
:1052C0006FF05F0817F8016F013C07F003FCC5F3AE
:1052D000062008EB4000C0B207F0D2FB07F03EFC0E
:1052E000E8B207F0CDFB07F039FC304607F0C8FB09
:1052F00007F034FC07F012FC0A2001F069FD2004DD
:1053000005F10105DED1BDE8F0417047B0B50C46AE
:10531000054607F0DFFBC5F306206FF05F0101EBE8
:105320004000C0B207F0ACFB07F018FCE8B207F091
:10533000A7FB07F013FC204607F0A2FB07F00EFCCA
:1053400007F0ECFB0A20BDE8B04001F041BD0000D1
:10535000B0B592B00446808FF8B101AD284609F08F
:105360005DFC4CF69D50C0F602000290A08F0194A7
:105370000C900020CDE9090001200B904EF6F14081
:10538000C0F6000008904CF6A150C0F60200049050
:10539000284609F0C3FC12B0B0BD204612B0BDE8EB
:1053A000B04027F0A9BC000070B5044617F018FA09
:1053B0000546204617F02CFA0E2D3DD1044619F073
:1053C000DBFB19F025FC012836D140F22806C2F299
:1053D00000063068002818BF70BD10F043F910F0C7
:1053E0007FF902211DF0C2FA10F03CF910F078F9B3
:1053F0000BF0E2FC306010F035F910F071F97F210C
:10540000002222F0E5F910F02DF910F069F90546B7
:10541000122022F033FB81B22846002222F0CCF980
:1054200040F23900C2F200000078012805D040B9EE
:105430003068B421C82209E070BD3068C821DC2280
:1054400004E030684FF496714FF4A57222F00AF828
:10545000306840F2C67101220BF0F4FC306809217B
:1054600000221E231DF030FB306845F63101C0F6E6
:105470000001002223461DF031FA3068BDE870407B
:105480000BF0D2BCB0B5A1B180290A4609D3B1FA5C
:1054900081F2C2F11A024FF0FF3303FA02F2D24353
:1054A0000A447F2A09D84FEA920C0024092C0FDD08
:1054B0003BE000244FF0000C37E0B2FA82F3C3F176
:1054C0001A04E24082F0200CC3F11904092C2CDCF0
:1054D00000EB840252694FF0FF3E0EFA0CF31A40C3
:1054E0000DD05AB192FAA2F2B2FA82FC00EBC412C9
:1054F00002EB8C02D26BD2B93CE000BFFEE702693E
:10550000631C0EFA03F312EA030E0AD09EFAAEF2FF
:10551000B2FA82F400EB84025269BEF1000FE0D1CE
:1055200003E00022BEF1000FDBD1002212B353686A
:1055300023F003038B4200D2FEE7D368E3B1916806
:10554000E1B1CB60996000EBC41303EB8C0E5EF805
:105550003C3F93420ED18142CEF800100AD100EBBD
:1055600084034FF0010E5D690EFA0CF135EA01017A
:10557000596104D01046B0BDFEE700BFFEE70169E7
:105580000EFA04F3994301611046B0BDF0B54A68C4
:10559000032A09D922F003030E1D9B1906D05C686B
:1055A000E50704D10846F0BDFEE700BFFEE7032A89
:1055B00008D924F003027F2A05D84FEA940E4FF051
:1055C000000C09E0FEE7B2FA82F5C5F11A04E240E8
:1055D00082F0200EC5F1190CDC686CB39A686AB3CE
:1055E000D460A26000EBCC1404EB8E0454F83C5F52
:1055F0009D4211D1824222600ED100EB8C04012722
:10560000656907FA0EF235EA0202626104D10269A5
:1056100007FA0CF7BA4302614868032810D95A68A0
:1056200022F0030210440430032848600AD920F015
:10563000030081510846F0BDFEE700BFFEE700BF52
:10564000FEE700BFFEE7000070B531B122B14B6844
:10565000DD0704D1FEE700BFFEE7002070BD23F0A8
:10566000030402F110039C4211D2486803280DD9AB
:1056700020F0030201F10800835823F00203835055
:105680004A6822F001024A6070BD00BFFEE701F1E6
:10569000080E02EB0E03DD1D1E1D25F00305AE42B4
:1056A00001D000BFFEE7A3F1040CA31ADCF804400C
:1056B000043B04F003041C430B2BCCF804402BD90F
:1056C0004B6803F003031A434A60DCF80420032A02
:1056D00024D922F00304325942F002023251DCF89C
:1056E0000420344442F00103CCF804304B6844F801
:1056F00004CC032B14D923F00303734443F8041C94
:1057000022F0030342F003067F2BCCF8046008D894
:105710004FEA920E00230DE0FEE700BFFEE700BF58
:10572000FEE7B3FA83F2C2F11A06F34083F0200ECB
:10573000C2F1190300EBC31202EB8E0454F83C2FA4
:10574000B2B1BCF1000F15D0CCE90220C2F80CC0F8
:105750000122066902FA03F52E43066100EB83007D
:10576000436902FA0EF21A43C4F800C042617CE7B2
:10577000FEE700BFFEE70000B0B582B0044619F0B6
:10578000FBF9054619F038FA38B1218F2046E18639
:1057900002B0BDE8B04020F023B8606A01211FF0DC
:1057A00001FD28B1204602B0BDE8B04016F068BE49
:1057B000204601211DF0EEFE4FF6FF71606A618701
:1057C00001211DF0D3F820462021002217F024F8F3
:1057D000218FE08E81420BD02087019001AA2046C4
:1057E0001C2117F019F801280DD120461FF0F8FFF1
:1057F000284619F00DFA042805D120461EF0F8FCC1
:10580000002118F079F802B0B0BD0000B0B516F074
:10581000FFFF04461EF04EFD054620460BF056F8ED
:10582000014628460022BDE8B04024F0BDBD00007E
:10583000F0B58BB0054616F0D3FF0646284616F0A5
:10584000E9FF0446284616F0CFFF1C2E2CD10AA9EA
:105850000BF0C0FA9DF92B309DF92A60BDF8285055
:1058600002AF12A238462021CDE9006523F042FBA9
:105870002046394625F00EFD40F22804C2F200040D
:1058800020681DF0E7FE002020600FF0EBFE0FF017
:1058900027FF02211DF03EFE0FF0E4FE0FF020FF77
:1058A0000021002221F094FF0BB0F0BD25303264BE
:1058B0002E253032642E2564000000002DE9F047CB
:1058C000A8B0044616F08CFF0646204616F0A0FF4E
:1058D000012E054604D01A2E08D0082E40F0C080B4
:1058E000284628B0BDE8F0471FF07ABF204616F0E2
:1058F0008DFF0446406BB0F5A02F23D0B0F5C02F2C
:1059000040F0AE80A16B022918D128460CF0AEF908
:105910000246236CD4E90B01022A0EBFEBA244F627
:105920009852C0F6030252F8233041F20702C0F643
:10593000050228B0BDE8F04723F0DCBAB0F5A02F8F
:1059400040F08E80606A002870D0A06A00286DD078
:10595000D4E909071DAEB0F90010B0F90220B7F97B
:105960000030B7F902704FF0030C3046CDE9007CEF
:1059700011F040FC304600214FF0000910F0A2FE6B
:10598000804628461EF03AFCC0F30272E98A1044B1
:1059900000B205F11406B5F91A7001EBD0000DF153
:1059A0005C0A03B250463146FF22CDE9009711F060
:1059B0003DF95046002110F085FE0DF12409824684
:1059C000484612F089F87F20A1698DF827000888E1
:1059D00007AFADF828002068324681683846FCF7EA
:1059E00081FC206886688760D4E9091220680B88EA
:1059F000ADF814301388013BADF81830B1F902103E
:105A0000B2F902209142B8BF0A46698BADF8162060
:105A1000ADF81A1005AA494612F048F820688660C9
:105A2000404612F02FF8504612F02CF8D4F844A05B
:105A300028460CF00FF9A16B88420DD128464FF68D
:105A4000FF780CF013F9216901280CD1A1F824800A
:105A500020690221C1840EE020690021C184C18532
:105A600028B0BDE8F087BAF80800888520690F21C2
:105A7000C18500218186236C17AE93A23046082190
:105A800023F038FA40F23C09C2F20009D9F80020AC
:105A9000002741F6FF70CDE9007004A831460023CD
:105AA000029726F0AFF928460CF0E0F8E1680228EA
:105AB00037D14E8800200FF0DBFD10284FF6FF7025
:105AC0000CDB00200FF0D4FDC0EB001050304FF085
:105AD000993150FB01F0811101EBD070BDF812102B
