:020000040800F2
:10000000C0800120D1020008C11B0008851A000829
:10001000BD1B0008610F0008991C000800000000CB
:10002000000000000000000000000000C91B0008E4
:10003000650F000800000000C51B0008CD1B00086C
:10004000EB020008EB020008EB020008EB020008DC
:10005000EB020008EB020008EB020008EB020008CC
:10006000EB020008EB020008EB020008EB020008BC
:10007000EB020008EB020008EB020008EB020008AC
:10008000EB020008EB020008EB020008EB0200089C
:10009000EB020008EB020008EB020008EB0200088C
:1000A000EB020008EB020008EB020008EB0200087C
:1000B000EB020008EB020008EB020008EB0200086C
:1000C000EB020008EB020008EB020008EB0200085C
:1000D000EB020008EB020008EB020008EB0200084C
:1000E000EB020008EB020008EB020008EB0200083C
:1000F000EB020008EB020008EB020008EB0200082C
:10010000EB020008EB020008EB020008EB0200081B
:10011000EB020008EB020008EB020008EB0200080B
:10012000EB020008EB020008EB020008EB020008FB
:10013000EB020008EB020008EB020008EB020008EB
:10014000EB020008EB020008EB020008EB020008DB
:10015000EB020008EB020008EB020008EB020008CB
:10016000EB020008EB020008EB020008EB020008BB
:10017000EB020008EB020008EB02000800000000A0
:10018000EB020008EB02000800F002F800F090F823
:1001900014A696E8000CB244B344DA4501D100F04D
:1001A00087F8BAE80F000FA696E83000A5EB040523
:1001B00004EB0607AAEB0704A7F101074FEA1515A0
:1001C0004FEA3414A4F10104AC4201D300F070F8FA
:1001D00013F0010F18BFFB1A43F0010300F001F800
:1001E000DBE7184748A1050088A105000A444FF045
:1001F000000C10F8013B13F0070408BF10F8014B86
:100200001D1108BF10F8015B641E05D010F8016BCA
:10021000641E01F8016BF9D113F0080F1EBF10F82E
:10022000014BAD1C0C1B09D16D1E58BF01F801CB51
:10023000FAD505E014F8016B01F8016B6D1EF9D5D4
:100240009142D6D370470000103A24BF78C878C1D5
:10025000FAD8520724BF30C830C144BF04680C60CC
:10026000704700007047000000230024002500268E
:10027000103A28BF78C1FBD8520728BF30C148BF09
:100280000B60704766293DF0DA83642900F0CC806A
:10029000002070471FB53DF0C5FB00F02BFD0400AA
:1002A000002000213DF0F8F8E0601FBD10B510BD42
:1002B00000F020FE1146FFF7EDFF33F0B7F900F034
:1002C0003EFE03B4FFF7F2FF03BC00F041FE000066
:1002D0000948804709480047FEE7FEE7FEE7FEE7DA
:1002E000FEE7FEE7FEE7FEE7FEE7FEE70448054916
:1002F000054A064B70470000851C0008890100086C
:10030000C0200120C0800120C0500120C050012029
:1003100053EA020C00F069802DE9F04B4FF0000623
:10032000002B1FBFB3FA83F503FA05F424FA05F690
:100330005E4012BF1643B2FA82F502FA05F4C5F127
:1003400020051EBF22FA05FC44EA0C04203556EABB
:10035000044C4FEA144418BF641C4FF000084FF0DF
:100360000009904271EB030C39D3002919BFB1FA8F
:1003700081F701FA07F6B0FA80F700FA07F6C7F13D
:1003800020071EBF20FA07FC46EA0C062037B6FB02
:10039000F4FCA7EB0507103F07F01F0BCBF120067D
:1003A0002CFA06F60CFA0BFB44BFB3460026202FAE
:1003B000A4BF5E464FF0000B5BEA060C08BF4FF08F
:1003C000010B19EB0B0948EB0608ABFB027C06FBA3
:1003D00002CC0BFB03CCC01B71EB0C01C1E70B463D
:1003E000024641464846BDE8F08B13B5084318BFA6
:1003F0004FF0FF300146AFF30080BDE81C4070476E
:100400000FB41CB5074B06AA7B44694600900598BB
:1004100000F057FC0020694600F066FC1CBC5DF84B
:1004200014FB0000DD0800002DE9F0410646002421
:1004300010687529314616A510D0AFF3008000284A
:1004400002DA404213A507E031688A0701D512A5F8
:1004500002E0490704D511A5012401E0AFF30080B3
:1004600000210A2206F1240709E0B0FBF2FCB0FBF0
:10047000F2F302FB1C00303078541846491C002867
:10048000F3D123462A463046BDE8F04100F0ADB92D
:10049000000000002D0000002B00000020000000E4
:1004A0002DE9F05F894604464FF0000ADFF824B1D9
:1004B000FB44C0F820A02046E168884700287DD092
:1004C000252806D0D4E901219047206A401C2062EB
:1004D000F1E700255F462046E16888472028064668
:1004E00007DB312E05D2B81910F8200C08B10543EE
:1004F000F1E7A80701D525F00405C4F81CA00027E2
:10050000C4F818A02A2E09D030463CF0BDFF38B3FD
:1005100004EB8708303EC8F8186019E059F8041B4E
:10052000204604EB87029161E1688847012F064667
:1005300018D1E069002820DA25F020051DE0D8F860
:10054000180000EB800006EB40003038C8F81800B7
:100550002046E168884706463CF096FF0028EED129
:10056000012F0AD02E2E08D12046E16888477F1C33
:100570000646022F45F02005C4DBA069002803DAF7
:10058000404245F00105A061E80701D025F01005C3
:10059000A6B1A6F14100192802D8203645F400651D
:1005A0004A463146204625604D46FFF76BFE60B156
:1005B000012807D0ED1D25F0070000E007E000F15D
:1005C000080978E705F1040975E730467AE7206AFB
:1005D000BDE8F09F8ED5030040EA010310B59B07EC
:1005E0000FD1042A0DD310C808C9121F9C42F8D09D
:1005F00020BA19BA884201D9012010BD4FF0FF304E
:1006000010BD1AB1D30703D0521C07E0002010BD63
:1006100010F8013B11F8014B1B1B07D110F8013BEF
:1006200011F8014B1B1B01D1921EF1D1184610BDD0
:1006300040EA0103024630B59B0710D14FF0013468
:1006400000E008C208C91D1B9D4315EAC41FF8D06D
:1006500013F0FF0102F8011B0DD01B0AF8E711F897
:10066000013B002B02F8013B05D011F8013B002BA8
:1006700002F8013BF3D130BD10B5431C02E010F885
:10068000011B71B18107FAD14FF0013202C88C1AF7
:100690008C4314EAC211F9D0C01A0A0603D0C01E56
:1006A00010BDC01A10BD0A0401D0801E10BD090281
:1006B000FCD0401E10BD02F0FF0343EA032242EAD1
:1006C000024200F00AB802F0FF0343EA032242EAC2
:1006D000024200F024B84FF000020429C0F012805A
:1006E00010F0030C00F01B80CCF1040CBCF1020FE5
:1006F00018BF00F8012BA8BF20F8022BA1EB0C01BA
:1007000000F00DB85FEAC17C24BF00F8012B00F8AF
:10071000012B48BF00F8012B70474FF0000200B5D5
:10072000134694469646203922BFA0E80C50A0E814
:100730000C50B1F12001BFF4F7AF090728BFA0E8C2
:100740000C5048BF0CC05DF804EB890028BF40F88E
:10075000042B08BF704748BF20F8022B11F0804FD0
:1007600018BF00F8012B704730B44FF0013C50F82F
:10077000042B51F8043BCCFA52F4D51A20D1FCB921
:1007800050F8042B51F8043BCCFA52F4D51A17D187
:10079000B4B950F8042B51F8043BCCFA52F4D51AF2
:1007A0000ED16CB950F8042B51F8043BCCFA52F43A
:1007B000D51A05D1002CDAD030BC4FF000007047BC
:1007C00029BAB1FA81F111F01801D1F12000844069
:1007D000F2D1CA40CB4012F0FF0213F0FF0330BC4D
:1007E000D01A70477047704770472DE9F0470D46A3
:1007F00099469246044600F124080168880604D50B
:10080000E06921F01001216000E00120A84201DD33
:10081000471B00E00027A1697A1902EB0900081ABA
:10082000A0612078C00602D42046AFF300800026E5
:1008300008E0D4E901211AF806009047206A401C1C
:10084000761C20624E45F4DB2078C0060AD520468F
:10085000AFF3008006E0D4E9012130209047206A00
:10086000401C2062381EA7F10107F4DC07E0D4E940
:10087000012118F805009047206A401C2062281EBC
:10088000A5F10105F3DC2046AFF3008020780006D7
:1008900002D50220BDE8F0870120FBE72DE9FF4FDC
:1008A0000C461E464FF0FF378BB0D2E90001DDF851
:1008B00060800A908A46C1F30A5505B93D46002179
:1008C00008464FF00000BAF1000F00F4400005DACE
:1008D00000EB80004FF4400101EA50004FEA9059CC
:1008E000B9F1010F00DDB9460A9850EA4A000ED06E
:1008F00044F61050A5F2FF3545432F14B8F1000F10
:100900001ED07542291E1EDDC9F100021CE0B8F19F
:10091000010F4FF0000001D0302103E0F24305E069
:100920002154401CB042FBDB304600220021215400
:100930000B99C1F80880C1E900200FB0BDE8F08F25
:10094000BD1B6D1CDEE74A4600DA694206A800F0CE
:100950005BFA06AB93E8070003AB83E80700504659
:100960000A993CF0B0F98DE80700A0F500501F3857
:1009700000900398002D0ADD42F21F014A46084408
:10098000002303A9039068463CF01AFC09E0A0F597
:1009900000504A461F38002303A9039068463CF0E4
:1009A00024FC8DE807000004000C03D04FF0FF305A
:1009B000410800E01046B8F1000F03D00022009279
:1009C00015461EE0751E05D400F098F930326255C8
:1009D0006D1EF9D5B3460122084302D000227F1CC8
:1009E00004E02078302801D100227F1E002A0997D8
:1009F00084D01DE0112D07DA00F080F93032625505
:100A00006D1C50EA0102F5D1084302D00098C8B12C
:100A10000EE00021681E05E0235C625C63542254F2
:100A2000401E491C8142F7DBAB46A81B401E0990C3
:100A3000002004F80B000B98099AC0F80880C0E960
:100A4000002B7AE711264FF0000857E72DE9F04F09
:100A500088460446D21D22F0070191B0D1E9000179
:100A6000CDE90A013CF0F8FC02460B98C00F01D01A
:100A70002D2007E02068810701D52B2002E02021EE
:100A800001EAC000032A099001D0072A05DB0346CA
:100A90004146204600F078F90BE12078800601D528
:100AA000E06900E00620B8F1650F814606D0B8F194
:100AB000660F18D0B8F1670F70D131E00020B9F19E
:100AC000110F009001DB112301E009F101030AAAD3
:100AD00001A90CA8FFF7E2FEDDE90C70002609F180
:100AE0000105834647E001204B4600904FF0004748
:100AF0000AAA01A90CA8FFF7D1FEDDE90DB00C99F7
:100B00005D46002610B909F101000D18B9EB05008A
:100B100003D4C0F1FF3609F10105A5EB09002BE074
:100B2000B9F1010F01DA4FF001090020B9F1110FFD
:100B30000090484601DD112300E003460AAA01A9FE
:100B40000CA8FFF7ABFEDDE90C704D46002683468E
:100B5000207800070AD4AB4500DA5D4601A8012DD4
:100B600004DD411911F8011C302907D04F4502DA84
:100B700017F1040F04DA012082460FE06D1EEEE744
:100B8000002F02DCED1B3E4403E0781CA84200DD90
:100B90007D1CB81B00F1010A4FF0004720780007C8
:100BA00003D4AA4501DB4FF0FF3A0021B7F1004F13
:100BB0000DF143088DF8431024D002202B23002F81
:100BC00001DA7F422D230A21021EA0F1010000DC80
:100BD0005FB197FBF1FC97FBF1F201FB1C7C174620
:100BE0000CF1300C08F801CDEEE7A8F1010003701C
:100BF0002188090501D5452100E06521A0F1010802
:100C000000F8011C09980FA9A1EB0807FF1D00B10E
:100C10000120411901EBEA70A1693844081A401E0D
:100C2000A0612078C00602D42046AFF30080099866
:100C300028B1D4E901219047206A401C2062207825
:100C4000C00622D52046AFF300801EE0002E04DB54
:100C5000B34502DD01A8805D00E03020D4E9012128
:100C60009047206A401C2062761CAAF101005FEACE
:100C7000000A0AD100F03EF8C0680168405CD4E97F
:100C800001219047206A401C2062281EA5F1010521
:100C9000DCDC07E0D4E9012118F8010B9047206A59
:100CA000401C2062381EA7F10107F3DC2046AFF399
:100CB0000080032011B041E601694A1C02610878F6
:100CC000704700B58FB0CDE901310021059105498C
:100CD0007944CDE9031011466846FFF7E1FB0FB0F8
:100CE00000BD0000E5FFFFFF0A6802F8010B0A6083
:100CF00070470000004870474802002030B5B0F14E
:100D00000A0271F100034FEA900E4EEA817EB0EBC9
:100D10000E0061EB91014FEA101E4EEA017E10EBCE
:100D20000E0041EB11114FEA102E4EEA016E10EB4E
:100D30000E0041EB11214FEA104E4EEA014E10EB2E
:100D40000E0041EB1141401841F100014FEAD00083
:100D500040EA41704FEAD1014FEA810444EA9074BD
:100D600010EB800544EB01046D1944EB0404521BA5
:100D7000A3414FF0000348BF0A3200D530BD401CEC
:100D800041F1000130BD00002DE9F0411F4604464D
:100D900003260168072A01F4006004DB08B116A5E8
:100DA00005E016A503E008B115A500E015A521F0A2
:100DB00010002060A069C01EA0610FB1401EA0619C
:100DC0002046AFF300804FB1D4E901213846904767
:100DD000206A401C2062C01C206206E0206AFAE7FC
:100DE000D4E9012115F8010B9047761EF8D2204670
:100DF000AFF30080BDE8F0814E414E006E616E00A1
:100E0000494E4600696E66002DE9F0478146164658
:100E10008AB0354878440DC88DE80D0032487844D2
:100E2000801C03AC0DC884E80D0041F69B300844DB
:100E3000372190FBF1F290FBF1F5A5F1800501FB64
:100E400012041B3C02D56442012000E00020DFF8C0
:100E500098A080460027FA44AAF1BE0A0EE0E007F7
:100E60000AD03246684607EB470101230AEB8101AD
:100E70003CF0BBF98DE8070064107F1C002CEED11C
:100E8000194F7F44AE3F19E0E80715D007EB041077
:100E90000DF1180A90E80E008AE80E00C068F042D2
:100EA00001D1981908903246012306A903A83CF005
:100EB0009CF903AB83E807006D10641C002DE3D19F
:100EC0004FF0010332466946B8F1000F03A802D083
:100ED0003CF076F901E03CF088F9C9E90001C9F875
:100EE00008200AB0BDE8F087B8CC0300004870477E
:100EF000280200207546FFF7F9FFAE460500694657
:100F0000534620F00700854618B020B5FFF7EEF9EC
:100F1000BDE820404FF000064FF000074FF00008FA
:100F20004FF0000BAC46ACE8C009ACE8C009ACE837
:100F3000C009ACE8C00921F007018D46704710B523
:100F40000446AFF300802046BDE81040FFF7B9B972
:100F500001491820ABBEFEE72600020070470000E2
:100F6000FEE700007047000072B600BFFEE7000019
:100F7000B3F5804F03461DD1B0B553F822C0002011
:100F8000CCF6F0700CEA000E91E83100D1F818C0F0
:100F900040EA0E0040EA0410C96840EA052040EA31
:100FA0000C0040EA0141BDE8B040002043F82210A7
:100FB000704700BF6FF07041002043F82210704767
:100FC0002DE9F04F83B00B68024650F8230001F181
:100FD000240B20F0010042F82300D1E902C0D1E93E
:100FE00000E301908869D1E9049A0290C86BD1E9C5
:100FF000077600909BE83008D1F8308052F82E0038
:101000008021CFF6F0710840BCF1080F08BF43F013
:1010100040030199194341EA090141EA0A013943B0
:1010200031432143294341EA0B01029B41EA080174
:101030001943009B1943084340EA0C01002042F881
:101040002E1003B0BDE8F08FF0B500EB82025068BF
:10105000D1E902E400F0404CD1E90030D1E9045676
:1010600043EA0C03002743EA0010CFF6F07740EA8A
:101070000E20896907EB055540EA04402843FE36F7
:10108000084340EA066100205160F0BD80B54EF291
:10109000180140F2D062CEF20001C2F2000251F813
:1010A00004CC126880B250434FF47A7200FB02FE07
:1010B000086800230AE000BF03449B1A824228BF4D
:1010C00063447345104628BF80BD00BF0A68824252
:1010D000F2D10A688242EFD10A688242ECD10A68F2
:1010E0008242F3D0E8E700002DE9F04F82B000F132
:1010F0003E4707F1FF77860546EA972741F6004607
:10110000C4F20206082243F6004EB04208BF07228E
:10111000C4F2010E072F38BF3A46002600274FF0D1
:101120000008009209E000BF08F101080237B8F199
:10113000100F06F1040600F0A3800D68012202FAE8
:1011400008F415EA0409EFD0D1F804B003220BF03B
:10115000030CACF10105BA40012D6FEA020A0FD869
:101160008268CD6802EA0A02BD402A438260426872
:10117000A243CBF3001404FA08F42243426005E0D2
:10118000BCF1030F02D14FF0030C1EE0C2688C6863
:1011900002EA0A02BC402243BCF1020FC26014D131
:1011A0006FF0030202EA58020244D2F820C006F0AF
:1011B0001C040F230D69A3402CEA0303A5402B4315
:1011C0001362D1F804B00BF0030C02680CFA07F3B9
:1011D00002EA0A021A431BF4403F0260A4D0002234
:1011E00043F644030192C4F202031A684FF6084C16
:1011F00042F480421A601A68CFF6FF7C02F4804203
:101200000192019A28F00302724452F80C3006F061
:101210000C050F24AC40A343009C04FA05F52B43B6
:1012200042F80C30DEF808204B6842EA090543F624
:101230000C4CDC0258BF22EA0905CEF80850C4F273
:10124000010CDCF800209C0242EA090558BF22EAA2
:101250000905CCF80050DEF804209C0342EA090599
:1012600058BF22EA0905CEF80450DEF80020DB035F
:1012700042EA090558BF22EA0905CEF8005053E7B3
:1012800002B0BDE8F08F00000069084018BF0120DF
:1012900070470000002A08BF090481617047000000
:1012A00042F2B800C2F201000068704740F200004C
:1012B00042F2B801C2F20000C2F2010100780A68ED
:1012C000104408607047000080B543F60040C4F247
:1012D0000200016841F400710160016841F480611D
:1012E0000160016841F480710160032000F074F82E
:1012F0000F2000F005F800F027F8002080BD000066
:1013000070B540F20006C2F2000640F2A411327835
:10131000C2F200014FF47A730968B3FBF2F204469B
:10132000B1FBF2F1084600F097FB0F2C4FF00105DE
:1013300008D838B94FF0FF3021460022002500F0D0
:101340001FF87460284670BD82B0002043F640014B
:101350000190C4F202014A6842F480424A604A683D
:1013600002F480420192019A0090086840F0805097
:101370000860086800F080500090009802B0704744
:1013800010B54EF60C5CCEF2000CDCF80030C3F366
:10139000022E8EF00704042C28BF0424BEF10303A0
:1013A0004FF0FF3E0EFA04F438BF0023A1439940EA
:1013B0000EFA03F39A43114300F00F0200F1604369
:1013C0000901043A03F564436244002848BF02F16E
:1013D0000C03197010BD00004EF60C51CEF2000146
:1013E0000A684FF6FF031A4060F30A2242F0806059
:1013F00040F0FD7008607047002804BF012070476E
:101400002DE9F04143F60808C4F202080446D8F872
:10141000F8030D4600F00700884207D288F8F85319
:10142000D8F8F80300F00700A84277D120688107B8
:1014300017D5410705D5D8F8001041F4E051C8F898
:101440000010010705D5D8F8001041F46041C8F834
:101450000010D8F80010A26821F0F0011143C8F87C
:101460000010C00740D1D8F8F80300F00700A842E8
:1014700007D988F8F853D8F8F80300F00700A84215
:101480004CD12068410707D5D8F80010E26821F454
:10149000E0511143C8F80010000708D5D8F8000043
:1014A000216920F4604040EAC100C8F8000000F063
:1014B00055F8D8F800104DF64032C1F30311C0F6CC
:1014C0000302515C40F2A41220FA01F140F2040040
:1014D000C2F200000068C2F200021160FFF710FFC4
:1014E0000020BDE8F08100BF6068811E022907D29C
:1014F00058F8081C89015CBF0120BDE8F08111E0AB
:10150000012807D158F8081C89035CBF0120BDE8F9
:10151000F08107E058F8081C890703D40120BDE8D2
:10152000F08100BFD8F8001021F003010843C8F88B
:101530000000FFF7B5FE064641F28837D8F80000F4
:10154000616800F00C00B0EB810F8CD0FFF7A8FEB3
:10155000801BB842F2D90320BDE8F08110B543F6F4
:101560000404C4F20204606800F00C0142F200407E
:101570000829C0F2F40007D0042918BF10BD41F2B9
:101580000020C0F27A0010BD216801F03F022168FE
:1015900023684902C3F3881106D4A1FB000100238C
:1015A000FEF7B6FE07E000BF41F20020C0F27A006D
:1015B0004843B0FBF2F021680222C1F3014102EB83
:1015C0004101B0FBF1F010BD002804BF01207047BD
:1015D0002DE9F04182B00446007843F60006C007CA
:1015E000C4F202060CD0B06800F00C00042840F0F1
:1015F00081803068800303D56068002800F06A812C
:10160000207880071BD5B06810F00C0F09D0B068A7
:1016100000F00C00082840F087807068400200F15C
:1016200083803068800703D5E068012840F052814C
:101630003068216920F0F80040EAC100306020786D
:10164000000713D4207840072AD4A569002D00F0A4
:101650003C81B06800F00C00082840F0A180012D0A
:1016600040F01081012002B0BDE8F08160690028DF
:1016700040F20000C4F2472000F07E800121C0F853
:10168000801EFFF70DFE0546706F8007DAD4FFF766
:1016900007FE401B0228F7D9032002B0BDE8F08105
:1016A000306C5FEAC0080AD400200190306C40F032
:1016B00080503064306C00F080500190019847F207
:1016C0000007C4F200073868C00547D4386840F402
:1016D00080703860FFF7E4FD054600BF3868C0053C
:1016E0003CD4FFF7DDFD401B0228F7D9032002B0F0
:1016F000BDE8F081B06800F00C00082803D17068E4
:1017000040023FF576AF6068B0F5803F07D0B0F596
:10171000A02F40F09B80306840F48020306030681B
:1017200040F4803030609BE0E06800285CD000200E
:10173000C4F2472001210160FFF7B2FD054600BF5A
:10174000306880073FF574AFFFF7AAFD401B022801
:10175000F6D9032002B0BDE8F08100BFA0680128DF
:1017600005D0052854D1306F40F004003067306F49
:1017700040F00100306755E00021C0F8801EFFF7FF
:101780008FFD0546706F80077FF55CAFFFF788FD22
:10179000401B0228F6D9032002B0BDE8F08100BF4B
:1017A0000027C4F2472700203866FFF779FD022D95
:1017B00005460DD13068800140F19080FFF770FD43
:1017C000401B02284FF00300F4D902B0BDE8F081BD
:1017D0003068800179D5FFF763FD401B02284FF088
:1017E0000300F5D9F1E700BF0020C4F24720002133
:1017F0000160FFF755FD0546306880077FF51FAF94
:10180000FFF74EFD401B02284FF00300F4D9DCE740
:10181000316F002821F001013167316F21F004019F
:1018200031677DD0FFF73CFD054641F2883700BFA8
:10183000306F800700F18680FFF732FD401BB84211
:10184000F6D9032002B0BDE8F08100BF316800285E
:1018500021F480313160316821F4802131607BD006
:10186000FFF71EFD054600BF306880033FF5C8AE98
:10187000FFF716FD401B6428F6D9032002B0BDE82F
:10188000F08100BF7068E16900F480028A4221D1D2
:10189000216A00F03F028A421CD147F6C071626A99
:1018A0000140B1EB821F15D1A16A4FF6FF73C90346
:1018B000994300F44032A1F580318A420AD1E16AAD
:1018C00000F07060B0EB016F04D1002002B0BDE801
:1018D000F08100BF012002B0BDE8F08104F11C05D9
:1018E0002FCD084340EA8210D9034FF6FF7291438F
:1018F000A1F5803140EA0560084370600120386638
:10190000FFF7CEFC044600BF30688001DDD4FFF74E
:10191000C7FC001B02284FF00300F5D955E700BFB4
:10192000FFF7BEFC054641F2883700BF306F8007E5
:1019300008D5FFF7B5FC401BB8424FF00300F5D9BE
:1019400043E700BFB8F1000F3FF57FAE306C20F0E9
:101950008050306479E600BFFFF7A2FC054600BF67
:10196000306880037FF54CAEFFF79AFC401B64287B
:101970004FF00300F4D928E7002804BF0120704786
:1019800070B5044690F8490015460E4628B9002067
:1019900084F84800204600F01DF8206804F1080192
:1019A000FFF70EFB2068A2683146FFF74DFBD4E934
:1019B0000102236B2946FFF7DBFA2068A16850F883
:1019C000212042F0010240F82120012084F8490042
:1019D000002070BD4CF29000C2F201000178002995
:1019E00018BF70472DE9F04385B0012101704FF019
:1019F000000943F63800CDF80090C4F202000168F7
:101A000040F6004441F0010101600068C4F20204A4
:101A100000F00100009000984FF680706D46009035
:101A20004FF0020803270C2604F580602946CDE913
:101A3000018903970496FFF757FB4CF6B3708DE8C6
:101A4000010320462946CDE90376FFF74DFB05B09B
:101A5000BDE8F04370470000411E0020B0EB116F5D
:101A60001CBF012070474EF21002CEF200025160FE
:101A70004EF62351CEF20001F0230B700721906047
:101A800011607047FEE7000080B58EB040F2D46070
:101A900040F2041CC2F200004FF02043CAF2000CD6
:101AA00000214FF0100EC0E9003C4FF480534FF47A
:101AB000804C1122C0E90211C0E9041EC0E90611E0
:101AC000C0E90811C0E90A31C0E90CC18163416471
:101AD0000F234FF0FF0CCDE90C21CDE904E2069174
:101AE00007A96A46CDE90733CDE909C3CDF82CE053
:101AF000CDE90033CDE902C3FFF73EFF002818BF50
:101B0000FFF732FA0EB080BDF0B587B0002643F67D
:101B10003000CDE905660196C4F20200016840F28A
:101B2000004441F0100101600168C4F2020401F0B8
:101B300010010191019901960168002241F0800194
:101B400001600168012701F080010191019901966E
:101B5000016841F002010160016801F00201019198
:101B600001990196016841F008010160016801F0E6
:101B70000801019101990196016841F0010101609C
:101B80000068012100F00100019001982046FFF754
:101B900081FB702002ADCDE9020604F540602946C4
:101BA0000496FFF7A1FA20462946CDE90277CDE950
:101BB0000466FFF799FA07B0F0BD0000FEE70000E9
:101BC000FEE70000704700007047000080B501206C
:101BD00030F0C0FDBDE88040FFF768BBB0B592B003
:101BE000002443F64000CDE90A44CDE908440594B9
:101BF000CDE90344CDE901440094C4F20200016838
:101C0000022541F080510160006800F08050009092
:101C1000009847F200000094C4F20000016841F40B
:101C2000804101600068A82100F480400090009885
:101C3000012006904FF4803007904FF480000D9003
:101C400004200E90119006A80C95CDE90F15FFF712
:101C5000BBFC18B172B600BFFEE700BF0F20CDE994
:101C600001054FF4A05004904FF48050059001A856
:101C700005210394FFF7C0FB10B172B6FEE700BF69
:101C800012B0B0BD4EF68850CEF20000016841F4AB
:101C90007001016070470000FEE70000B0B540F23F
:101CA0008034C2F200042046442101F083FD45F255
:101CB0003120C0F600001E21002230F0ABFD40F2C2
:101CC0002C35C2F20005686001202870204601F022
:101CD0003FFD0146686829B130F0A2FE002028705F
:101CE000B0BD00BF30F08CFE00202870B0BD0000F9
:101CF0002DE9F043B1F900E0B2F90470BE4511DC02
:101D0000B1F904C0B2F90060B4450BDBB1F902507F
:101D1000B2F90640A54205DCB1F90680B2F90230FD
:101D2000984503DAFF2358B2BDE8F083B64509DBD6
:101D3000AB4207DCBC4505DCA04503DC002358B200
:101D4000BDE8F0835E1B36B2012EA8EB05090BDB64
:101D5000A0F800E04580A0F804C0C380D4884D8876
:101D6000B1F80680012300E00023A9EB04062E440D
:101D700036B2012E15DB0FFA88F627B2B74210DA19
:101D80000E888F8805EB090800EBC30520F8336047
:101D90006C80AF80A5F806804D88D488B1F80680A5
:101DA0000133B2F902602DB2AE42C8BF354626B249
:101DB0000FFA88F4A642B8BF3446661B36B2012E2D
:101DC0000E88ACEB0E0C10DBB2F800E0AEEB0607B1
:101DD0003FB2012F09DB00EBC30720F833607D80A1
:101DE000A7F804E0FC800E8801339188ACEB010277
:101DF000324412B2012A09DB06EB0C0200EBC307E6
:101E000020F8331001337D80BA80FC8058B2BDE8E1
:101E1000F083000070B50346B1F90000B2F900404C
:101E2000B1F902C0B2F90250B1F904E0B2F90460AC
:101E3000A042B1F90610B2F90620C8BF0446AC456D
:101E40001C80C8BF6546B6455D80B8BF76469142E6
:101E50009E80B8BF0A460020B4424FF00001D8BFB0
:101E600001219542D8BF01200840DA8070BD0000F2
:101E70002DE9F04381B00C46B0F90070B1F90010C3
:101E80008F423DDBB0F90260B4F902108E4237DBBD
:101E9000B0F90490B4F90410894531DCB0F906803A
:101EA000B4F9060080452BDC15466AB36946204626
:101EB0002A46ADF80070ADF8026000F097F8F8B16E
:101EC000694620462A46ADF80090ADF8026000F061
:101ED0008DF8A8B1694620462A46ADF80070ADF8E5
:101EE000028000F083F858B1694620462A46ADF8D2
:101EF0000090ADF8028000F079F801B0BDE8F08301
:101F0000002001B0BDE8F083012001B0BDE8F083FE
:101F1000B0F90020B1F904309A4213DCB0F9042082
:101F2000B1F900309A420DDBB0F90220B1F9063068
:101F30009A4207DCB0F90600B1F902108842A4BF4A
:101F400001207047002070472DE9F04381B00C4616
:101F5000B0F90460B1F900108E4211DBB0F90670DF
:101F6000B4F902108F420BDBB0F90080B4F9041011
:101F7000884505DCB0F90290B4F90600814503DD1F
:101F8000012001B0BDE8F0831546EAB1694620465C
:101F90002A46ADF80080ADF8029000F027F898B915
:101FA000694620462A46ADF80060ADF8029000F080
:101FB0001DF848B9694620462A46ADF80080ADF8BC
:101FC000027000F013F818B1002001B0BDE8F083F2
:101FD000694620462A46ADF80060ADF8027000F070
:101FE00005F880F0010001B0BDE8F0832DE9F04173
:101FF000B1F90030B0F90040A3420DDBB0F904E0C4
:10200000734509DCB1F902C0B0F902108C4503DB5D
:10201000B0F90650AC4503DD0020BDE8F08100BFFB
:10202000012A54DBAEEB0400013086B200EBD6305F
:1020300006B2681A013087B200EBD73007B24FEA18
:1020400066087810B8EB670FB8BF70109042A8BF51
:102050001046021917B24218BB4216B2D8BFB44597
:1020600016DD2A1ABB4212B22CDC94452ADB391841
:1020700009B2091B01EBD1714F1004EB610602EBB1
:102080006101401A9B1B604407FB07F10FE000BF92
:10209000384400B2001B00EBD070421004EB600724
:1020A00001EB6000DB1BACEB000002FB02F110FB5C
:1020B00000F013FB030200208A4298BF0120BDE814
:1020C000F08100BFAEEB000424B2A34202DA01208B
:1020D000BDE8F081944517DAB445F8DC201A02B265
:1020E000AEEB020202EBD27201EB620100EB620086
:1020F000ACEB01015710181A11FB01F107FB07F2B5
:1021000010FB001114E000BF211A0CB2AEEB040763
:1021100007EBD77702EB6702801A01EB6701604497
:102120007E10591A10FB00F006FB06F211FB0101AC
:102130000020914298BF0120BDE8F08170B5B1F94F
:102140000030B2F90040B1F902C0B2F90250B1F961
:1021500004E0B2F90460A342B1F90610B2F9062016
:10216000B8BF1C46AC450480B8BF6546B64545803F
:10217000C8BF764686809142C8BF0A46C28070BDFD
:102180002DE9F04F91B0044630F0CCFA00210891CF
:1021900003900CB1E06801E015F0CEFC4CF21C0994
:1021A0000169C2F20109C9F8080008462CF066F975
:1021B000D9F80810486918B12CF060F9D9F808105E
:1021C000C8692CF05BF9D9F80800006A2CF056F9C0
:1021D000D9F808100869002800F0DE80B1F8500135
:1021E000002857D000274FF001080DF1240A0120E4
:1021F00005E000BFB1F85001013787424AD20028FC
:10220000F8D0C81990F830010028F3D1002504E077
:10221000B1F8500101358542ECD2BD42F8D04819E1
:1022200090F830010028F3D1303101EBC70001EB09
:10223000C501FFF76DFED9F808100028E8D001F1BC
:10224000300000EBC70100EBC5025046FFF776FFF8
:1022500050460FF06FFAD9F80810044601EBC7009A
:1022600030300FF067FAD9F80810064601EBC500C8
:1022700030300FF05FFA3044D9F808108442C7D2EA
:10228000099A0A9B01EBC70002634363481980F86F
:102290003081BDE70868027CD20700F0AB80C068DF
:1022A0004068002800F0A68001F5AC7001F0EEFA5D
:1022B000D9F80810002840F09D800868C0680368BD
:1022C00082689A4208BF43680846CDE9063215F095
:1022D0004DFCD9F808100590B1F850210020002AD3
:1022E000CDE90F00CDE90D00CDE90B00CDE90900E6
:1022F00058D009AEA6F1080A4FF0000808E000BF68
:10230000D9F8081008F10108B1F85001804549D208
:1023100001EB080090F830010028F1D101F5AC7014
:1023200001F016FA0028EBD004460CE0D9F80800BA
:10233000214600F5AC7001F0B3FA204625F0ACF868
:10234000002D2C46DCD0D9F80800214600F5AC70F1
:1023500001F022FAD9F80810054601EBC80000F197
:10236000300230462146FFF7C3FC411CE8D001286B
:10237000DCDB5FFA80FB5746D9F80800214600F500
:10238000AC7001F039FA57F8081FBBF1010B7A68FD
:1023900001604260F0D1C9E70020A1F8500111B0FE
:1023A000BDE8F08F01F5AC7001F0D2F90DF1140821
:1023B00098E86001B0B10446D9F8080041460068C9
:1023C0002A46C06B2346876BCDE900650294B84767
:1023D000D9F80800214600F5AC7001F0DDF904469B
:1023E0000028E9D1D9F8080000F5AC7001F080F9B7
:1023F000D9F80810B1F850810020B8F1000FC9F8E1
:102400000C0000F0B381B8F1010F1BDB01EB0800F9
:1024100090F82F21D2B1B8F1020F13D390F82E21EA
:10242000C2B1B8F1030F0DD390F82D21B2B1B8F1BC
:10243000040F07D390F82C01A8F104080028E2D17A
:102440000EE000BF4FF000080AE000BFA8F101084D
:1024500006E000BFA8F1020802E000BFA8F10308EF
:102460000868426B1AB19047D9F808100868C0682C
:10247000826922F0010282610868C068826922F0E4
:1024800002028261B1F8502191F82800002A40F040
:10249000040281F8282000F065810025CDF8108025
:1024A00015E000BFDDF81080069DD9F8080000EBAC
:1024B000C50030300FF03EF9D9E902121044C9F8D6
:1024C0000C00B1F850010135854280F0FF804819B9
:1024D00090F830010028F4D1454505D10868C0685E
:1024E000826942F0010282610868C068826922F054
:1024F000020282610868C268C66B92683260007C22
:1025000001EBC502800702F1300421D00846A24643
:1025100015F02CFBD9F80810441E084615F07CFB7A
:10252000013823B209AC07B22046002100220097EF
:102530000FF03AF97460D9F808000068D0E9030197
:102540008269890716D48169544662F3410113E018
:10255000B4F800A0B4F804B0B4F80280B4F906707E
:102560000846069515F058FB874205940ADAE38879
:102570000DE000BF42F0020181613046B46031F0ED
:1025800007FF92E7D9F8080015F046FB431ED9F87B
:102590000810A7EB08020968ABEB0A00CF6801300E
:1025A000FF6800B20132B7FBF0F0896915B2A842AA
:1025B000B8BF054631B3984600202F460990ADF8C4
:1025C000280000BF7C1ED9F80800ADF82A4000683A
:1025D00009A982699047BDF82610BDF92A00411A61
:1025E000013109B28D4207DA27B2002FEADC059FDC
:1025F000002509AC434607E039B243460129B4BF80
:102600000025451C059F09ACB7F902000FFA83FAB3
:1026100005EB000BABF10101514580B222DD4FF01B
:1026200000081FFA88F19AB28A423FF43BAF39881A
:10263000ADF82410B988ADF82A30ADF82810C6E9F5
:102640000144D9F80810ADF826000868C068816810
:102650003160816941F002018161304631F098FEBC
:1026600020E700BF07950CE0304631F091FE079956
:10267000584601FA8BFBABF1010151454B46A94687
:10268000CFDC3A880FFA81F8ADF82420BA88ADF88B
:102690002A10ADF82820C6E90144D9F80820ADF881
:1026A00026001068C245C0689AB281684D46316004
:1026B000BCBFADF82A3098461FFA88F199468A4285
:1026C000D2D1816941F002018161CDE791F82820E2
:1026D000002802F0FB0281F8282047D00868027C1D
:1026E000D2071FD0C0684068E0B130244FF498751D
:1026F00009E000BF0135B1F85001A5F5987282429A
:1027000004F108040ED2485D0028F3D101F5AC7045
:1027100001F0A2F8D9F808100A1952680B59426062
:102720000360E7E701F130004FF4807125F07AFB98
:10273000D9F80800202100F5987025F073FBD9F82E
:1027400008000021A0F8501103982FF0D3FF089043
:10275000D9F808000068436A43B10899D9F80C20F9
:10276000984703E000F0FB0081F8280024F0B8FC53
:1027700000F06AF900F024F9D9F82440ECBB15F018
:10278000DBF915F00BFA22F043FE7F21002204460C
:102790002BF062FD2046002100222BF051FD204647
:1027A0004FF6FF7100222BF0C3FD204603210022CB
:1027B0002BF0A6FD2046032100222BF083FD2046AE
:1027C000032100222BF08AFD2046032100222BF05A
:1027D0008BFD2046032100222BF0A4FD49F6824107
:1027E000C0F60501204624F063F8204606210022A9
:1027F000002326F0D1FCC9F82440D9F810002FF0AE
:1028000079FF80084A283DD8D9F80C0041F2893177
:1028100088420BD30898D9E905120844511CC9E92C
:102820000501D9F804402CB963E000BFD9F8044091
:10283000002C5ED0D9F800002FF05CFFB0F5967F39
:1028400040F298802FF06EFFC9F8000009A824F02C
:102850004DFE09980B999DF83C70401A40F2FE31EC
:10286000820A084040F2832148439DF83D60030CF2
:102870004AA12046CDE9007624F05CF811B0BDE80D
:10288000F08F00BF2FF04EFFD9F80810C9F81000E4
:102890004868002872D000684FF47A71B1FBF0F5F7
:1028A000D9F81810284649B1D9F814004FF47A72B3
:1028B000012898BF01205143B1FBF0F00021C9E984
:1028C0000511D9E90712A84238BF05465019C9F8C1
:1028D0002000481CC9F81C002FF0C2FFC0F164039F
:1028E0002AA120462A4624F025F8D9F80440002CD5
:1028F000A0D115F021F915F051F922F089FD7F21C1
:10290000002204462BF0A8FC2046002100222BF0D8
:1029100097FC20464FF6FF7100222BF009FD204660
:10292000032100222BF0ECFC2046032100222BF097
:10293000C9FC2046032100222BF0D0FC20460321B5
:1029400000222BF0D1FC49F68241C0F60501204659
:1029500023F0AEFF204604210022002326F01CFCB9
:10296000C9F80440D9F800002FF0C4FEB0F5967FF6
:102970003FF668AF11B0BDE8F08F00BF2125D9F850
:102980001810284600298FD198E700BF25752046EA
:1029900050530A25752525204350550025752E25B1
:1029A00075206B42207573656420282564202525D9
:1029B000290A2564252520667261672E0000000023
:1029C00010B540F2AC44C2F200042068002818BFE1
:1029D00024F062FD20461C2125F024FAE06900283D
:1029E00018BF24F059FD04F11C001C2125F01AFA2F
:1029F000A06B002818BF24F04FFD04F138001C2103
:102A000025F010FA606D002818BF24F045FD04F190
:102A100054001C21BDE8104025F004BA4CF2A80176
:102A2000C2F20101096804E00A7E42F001020A765E
:102A30004969002908BF70474A688242F4D00A6891
:102A40008242F5D1F0E700007047000040F2743098
:102A5000C2F20000042100F0ADBE000040F28C3054
:102A6000C2F20000202100F0A5BE00002DE9F04FC9
:102A700085B00E9E1D46002B834608BFB6F5807FAD
:102A800068D0DDF83C800023019301A8ADF8081060
:102A9000CDF80A30ADF80E20ADF81010ADF81220C8
:102AA000294632464346071D00F1080900F10C0A89
:102AB0002BF03AFD38462946324643462BF034FD8A
:102AC00048462946324643462BF02EFD50462946BD
:102AD000324643462BF028FDBDF90410BDF90870BD
:102AE000BDF90C60BDF91040B9423846BDF906C0C9
:102AF000BDF90A30B8BF0846A6422546B8BF3546DC
:102B0000A842B8BF0546B942C8BF0F46A642C8BFD3
:102B10003446A742C8BF3C46A11CBDF90E60BDF9B2
:102B200012409C451A46A5F10200B8BF6246A64273
:102B30002546B8BF3546AA42B8BF15469C45C8BF12
:102B40006346A642C8BF3446AF1EA342C8BF1C4658
:102B5000A21C03E00139013A00200027ABF8000075
:102B6000ABF80270ABF80410ABF8062005B0BDE876
:102B7000F08F0000F0B581B016460C4607462FF0E6
:102B8000D1FDA2B240F29C54C2F200040546204698
:102B90003946334620F054FF30B1E0690021A1628C
:102BA00070B1204601B0F0BD20462C2125F03AF945
:102BB0004FF00040A0620024204601B0F0BD00BFED
:102BC00028462FF097FD012898BF0120E06120469C
:102BD00001B0F0BD10B540F29834C2F200042046B6
:102BE000142100F0E7FD204600F0ECFDB0B1142107
:102BF000044625F017F942F6A560C0F6020042F639
:102C0000957143F2513242F66D63C0F60201C0F68F
:102C10000202C0F602030FC410BD00BFFEE70000B1
:102C2000B0B50C4605460846102125F0FBF828688B
:102C30000178042908D0022908D0012908D1A98ADD
:102C40002180E98A618003E00A2100E0E96861608F
:102C50004268002A08BFB0BD2146BDE8B040104719
:102C60002DE9F04F8DB00146804631F8140F0491E4
:102C700020B9B8F81600002800F03A83D8F82C9054
:102C8000B9F1000F46D04FF4807400264D4600BFC6
:102C9000284600216E2228F08FFC06442846002199
:102CA0006D2228F089FC01B2C90D50FA81F000B202
:102CB00000124443284627F09FFE05460028E7D12E
:102CC000300440F0A381A0B2B0F5807F40F09E8137
:102CD00098F8400000F00F00032840F0AC8148460F
:102CE00027F0BCFF0546484627F036FF0499024608
:102CF000B1F90010032748462B46009707F026FF3E
:102D000007460026484627F0F5FEC10700F0AA81D5
:102D1000AEE100BF21F014FC0068B8F81410B8F858
:102D20001820037E5018A8F81800B8F81600B8F854
:102D30001A10D8F824700844002FA8F81A0000F0E0
:102D4000D782584206904FF0000A00204FF0000B47
:102D50000024039309900590CDF8088009E000BF96
:102D60004FF0000A384627F047FE0746002800F0DB
:102D7000DB81A1464FF4807400263D46CDF830A09B
:102D8000284600216E2228F017FC06442846002120
:102D90006D2228F011FC00B260430412284627F08F
:102DA0002BFE05460028EBD1D8F8180031040B9013
:102DB00008BFB4F5807F0FD04FF48031704291FB93
:102DC000F4F201B20BA80CAB2BF0AEFBBDF82C005B
:102DD000BDF82E1001E000BF010C02B280EAE23023
:102DE000A0EBE2300AB281EAE231A1EBE23180B23B
:102DF00089B288424FF0000088BF012080F00101B5
:102E00004C4641EA09044BEA000B3846102128F0F1
:102E1000F7FD002800F09080DDF824A03846CDF8BA
:102E20001CB027F067FE804600F0040004EA90061C
:102E300008F0080004EAD0000890384627F090FF18
:102E40008346384627F0F4FD0546384627F084FED1
:102E50008146384627F002FFBBF1000FD8BF012D95
:102E6000C0F28680BDF92E10DDF80CE0002271451D
:102E7000A8BF0122069B324099424FF00001D8BF03
:102E80000121089B19401143059918BF0C21059198
:102E900018BFBA46B9F1000FD8BF00286FDD079AF6
:102EA00008F0020108EA020302EA510CBDF92C20E5
:102EB0000194B9F1000F4FF000044FF000010996A2
:102EC000C8BF01247245A8BF0121069E1940B24225
:102ED0004FF00006D8BF012606EA0C063143059ED6
:102EE00004EA03011CBF0326BA460129059602D154
:102EF000724580F20D8100284FF00001C8BF01210A
:102F0000002D4FF00000C8BF0120BBF1000F4FF0B3
:102F1000000301EA0C01C8BF0123089C012909999B
:102F200000EA040001EA03013AD1069BDDE9014809
:102F30009A4237DCEEE000BF38464FF4807128F04B
:102F40005FFD002804BF8BF001005FEAC07000F055
:102F5000EB8038464FF4007128F052FD00287FF4D2
:102F600001AF84F00100C0077FF4FCAEDCE000BFDD
:102F7000DDF80CE0B9F1000FD8BF00288FDC002D80
:102F80004FF000004FF00001C8BF0120BBF1000F5F
:102F9000C8BF0121089ADDF808803140104001E0E7
:102FA000DDE90148BDF92E2000237245A8BF0123A9
:102FB000069EB2424FF00002D8BF01221942CDF85E
:102FC00024A008BF10EA020040F09C8038464FF46D
:102FD000807128F015FDDDF81CB0002804BF8BF0CF
:102FE00001005FEAC07000F09F8038464FF4007126
:102FF00028F006FD00287FF4B3AE84F00100C0077E
:103000004FF0000A7FF4AEAE8EE000BF20B24FF466
:10301000803292FBF0F0002271420A9202B20498D0
:1030200009B20AAB2BF080FA98F8400000F00F00CC
:1030300003283FF454AE484627F092FE0546484622
:1030400027F0F6FCB8F9161003460C2748462A4626
:10305000009707F07BFD06460027484627F04AFD0B
:10306000C10705D1002F03DD0027410706D509E080
:10307000810758BF27EAE777410703D4002E01DD17
:10308000002603E0000758BF26EAE676B8F91A10D2
:10309000B8F9363001FA86F5B8F91800B8F93420D5
:1030A0005C1A9D42B8BF2646B8F93A30B8BF01FA5B
:1030B00084F59D42C8BF5E1A00FA87F1131A914247
:1030C000B8BF1F46B8F93820B8BF00FA83F1914263
:1030D000C8BF171A39B232B2484600F031FC98F82E
:1030E0000100800700F10481B8F81800B8F81A1040
:1030F0003844A8F818008819A8F81A000DB0BDE8DF
:10310000F08F00BF0798C00704D10C2005E000BF76
:10311000DDF80880CDF824A0032098F8401001F0D5
:10312000F001084488F84000DDF82490B9F1000F60
:1031300000F0DE8098F84000059900F0F00001F002
:103140000F01084488F840000020C8F818004846DD
:1031500080214EF20105C8F82C9028F051FCD8B11E
:10316000484627F0F5FD032822D002283AD001284E
:103170004AD1B9F8160041F6FF72013001B2484653
:10318000002307F00DFFA8F83600B9F8160029B2A1
:10319000013802B233E000BF29B208F1340041F631
:1031A000FF770A4641F6FF7300970EF0FDFA79E0CB
:1031B000B9F81600B9F81A100023091A01318AB2B9
:1031C00001EBD23109B200EB6104601C01B2484648
:1031D00041F6FF7207F0E4FEA8F83600601E02B266
:1031E0000CE000BFB9F91A10484641F6FF720023FF
:1031F00007F0D6FEA8F83600B9F91A2029B24846D9
:10320000002307F0CDFE03E041F6FF70A8F836502A
:10321000A8F83A00484627F093FD032810D002286A
:1032200028D0012838D1B9F91410484641F6FF7268
:10323000002307F015FEA8F83400B9F9142025E0A2
:10324000B9F81400B9F818100023091A01318AB22C
:1032500001EBD23109B200EB6104601C01B24846B7
:1032600041F6FF7207F0FCFDA8F83400601E02B2C0
:103270000CE000BFB9F91810484641F6FF72002370
:1032800007F0EEFDA8F83400B9F9182029B2484635
:10329000002307F0E5FD03E041F6FF70A8F8345085
:1032A000A8F83800B8F834000921002808BFA8F8A9
:1032B0003450B8F838000022002804BF41F6FF70EF
:1032C000A8F83800B8F83600002808BFA8F836502B
:1032D000B8F83A00002804BF41F6FF70A8F83A0099
:1032E00048461EF0B1FC98F8010080077FF5CBAC92
:1032F0000DB0BDE8F08F00002DE9F04782B0C56A3F
:10330000002D00F03E81044690F84000000700F0D8
:10331000388121F015F9824600684021477E284611
:1033200028F06EFB002804BF0020E061284627F04B
:1033300007FD8046284627F00BFD94F84010814693
:1033400001F00F01032945D00C2940F0188100201D
:10335000B9F1000FA08300F07F80E68B21F0F0F838
:10336000002E4FF0000C00F0C180006848F21F52A0
:10337000407E0027C0F16400C5F2EB1210FB06F39B
:1033800053FB02F3591101EBD3731904374400F0D6
:10339000AE8010FB03F151FB02F14E1106EBD1762A
:1033A00031041F4400F0A38010FB06F151FB02F131
:1033B0004B1103EBD1731904374400F0988010FBD4
:1033C00003F151FB02F14E1106EBD17631041F449B
:1033D000D4D18CE0A68B0020B8F1000FE08361D03F
:1033E00021F0AEF8002E4FF0000C00F0A380006832
:1033F00048F21F52407E0027C0F16400C5F2EB1274
:1034000010FB06F353FB02F3591101EBD3731904BC
:10341000374400F0908010FB03F151FB02F14E1194
:1034200006EBD17631041F4400F0858010FB06F1D5
:1034300051FB02F14B1103EBD173190437447AD0DD
:1034400010FB03F151FB02F14E1106EBD176310472
:103450001F44D5D16FE000BFB4F91E00C7F164016D
:10346000484348F21F51C5F2EB1150FB01F04109EE
:1034700001EBD070E083284627F0DAFA07462846A9
:1034800027F06EFCB4F91E1002460C2628463B4677
:10349000009607F05BFB0246E083284600210023EC
:1034A0006BE000BF30B2C7F16401484348F21F51DE
:1034B000C5F2EB1150FB01F0410901EBD070A08384
:1034C000284627F049FB0746284627F0C7FBB4F9F2
:1034D0001C100346032628463A46009607F036FBA2
:1034E0000146A08328460022002346E00027B4F9C5
:1034F0001A00B4F93610B4F93A2000FA87F3A4F8A8
:103500001EC00E1A8B42BCBF374600FA86F34EF23D
:1035100001019342C8BF171A3BB2CFF6FF7128468C
:1035200041F6FF7207F03CFD384402B22846002104
:1035300022E000BF0027B4F91800B4F93410B4F940
:10354000382000FA87F3A4F81CC00E1A8B42BCBFC7
:10355000374600FA86F34EF201019342C8BF171AAC
:103560003BB2CFF6FF71284641F6FF7207F078FCB8
:10357000384401B22846002201232AF0D5F8A08B56
:1035800010B102B0BDE8F087E08B0028F9D1B9F1A5
:10359000000F16D1284627F0E3FB0746284627F000
:1035A00047FA002FD8BF01280BDB002F03D4B0F15E
:1035B000FF3F06DC47423AB22846002101232AF0A9
:1035C000B3F8B8F1000F16D1284627F0C5FA074620
:1035D000284627F043FB002FD8BF01280BDB002F24
:1035E00003D4B0F1FF3F06DC474239B2284600223F
:1035F00001232AF099F828460A2152461EF024FB9E
:1036000060788007BDD494F8400000F0F00084F8A2
:1036100040000020E06202B0BDE8F087F0B585B060
:1036200004460D4620B914F087FA044600285DD000
:10363000204614F009FB002858D094F828004007D1
:1036400054D40020C5B30290204614F08FFA0138FC
:10365000ADF80C00204614F0DFFA0138ADF80E008A
:10366000684602AA2946FEF7D5FB00283ED020680E
:10367000017C890724D482690AB169469047B4F86D
:10368000500128B304F1300500276E463046294624
:103690000022FEF7EDFB48BBB4F85001013787422A
:1036A00005F10805F2D31F2813D9DDE90201616392
:1036B0000121206314E000BFA4F8500105B0F0BD63
:1036C000DDE90201C4E90C016068012109E000BFE5
:1036D0000020009A019B04EBC0010A634B63411C6C
:1036E0006068A4F8501108B12FF09AF905B0F0BD48
:1036F000F0B581B010B345680446FDB1002707E07E
:10370000002BA36014BF9F50676023F0C5FEADB1CE
:10371000D4E9001328460A1DAD5883420AD0A66892
:1037200043588642ECD0002B18BF9D5055B16B50CA
:10373000EBE700BF65601DB16F50E6E701B0F0BD7B
:103740000021A16001B0BDE8F04023F0A5BE00005B
:10375000002814BF4068002070470000D0B14268C4
:10376000C2B10068011D03205258002A04BF02386C
:1037700070475258002A04BF013870475258002A37
:1037800008BF704752580430002A04BF03387047FE
:10379000EAE700BF002070470068084440687047AF
:1037A0000068085870470000002814BF8068002097
:1037B000704700000331002221F00301C0E900122C
:1037C0008260704710B504460068083023F06AFC38
:1037D000002808BF10BD21680022425062684318CB
:1037E0005A606268002A18BF5050A16860600029C2
:1037F00008BFA06010BD000070B5044600284FF05F
:10380000000012D00D4681B1D4E90006083023F043
:1038100049FCAE420AD0E8B121686A580B1D002A63
:1038200018BFD05042506850C55070BD4FF00002D4
:1038300080B121684250626843185A606268002A69
:1038400018BF5050A1686060002918BF70BDA0600B
:1038500070BD00BF002070BD10B504460068083080
:1038600023F020FC002808BF10BD22680023111D92
:103870004350A3688350A268002A18BF5050616863
:10388000A060002908BF606010BD000030B1416831
:1038900009B9806810B10020704700BF012070474F
:1038A00080B5002808BF80BD42688A4214D0D0F895
:1038B00000E0826851F80E308A4219D00EF1040CF3
:1038C00051F80C00002B18BF43F80C00002818BF5B
:1038D00040F80E3080BD00BF0268114449680029DD
:1038E000416007BF002181600020885080BD00BF7B
:1038F0000021002B836018BF0EEB0300416080BDE8
:1039000010B50446006804E00068002808BF10BD38
:1039100020608268002AF7D0214690472068F3E7AC
:103920008068002814BFC08A002000B270470000E1
:10393000806800280EBF0020807E8009704700004C
:1039400070B50E4611431BD01546044625F032FFD4
:10395000A0680123018A428A3144018251194182BF
:10396000204631462A4628F029FC20460B21002219
:103970001EF06AF9012818BF70BD204628F06AFBC6
:10398000012070BDF0B581B01446C8B16222064670
:103990000F4627F011FE98B10546006880B1304609
:1039A0003946632227F008FE010609D02B68A1B230
:1039B000C2B228469847C0EA040001B0F0BD00BF7B
:1039C0002046C0EA040001B0F0BD00002DE9F04F30
:1039D00091B00446408CDDF868B040F0040060848B
:1039E00022841646BBF8082020461F468A4627F048
:1039F000E3FD2784BBF8082005462046514627F002
:103A0000DBFD618C814621F004004D45608403D1CB
:103A100002D111B0BDE8F08F2684BBF80820204603
:103A2000514627F0C9FD804620465146278408F0BC
:103A3000D7FE0068BBF8081042462CF061FEBBF8C8
:103A400008000B2827D147F6FF75A94518BFA845E0
:103A500021D1204627F062FF81B200EBD13000B2C5
:103A60004610204626F042FF81B200EBD13000B272
:103A70004010A84506F1010100F1010003D1804684
:103A80008142B8BF884647F6FF72914503D1814213
:103A9000B8BF0846814640F2A430C2F20000FFF7EA
:103AA00091FEC8B3C0E9038904600646BBF808006C
:103AB0006C46B0802046C6F808A00DF09DF84CF288
:103AC000F150C0F6030001904CF62D00C0F6030043
:103AD00002904CF26D70C0F6030003900020CDE917
:103AE0000800FF200A90BBF80000BBF802100B9002
:103AF00048420C90DBE903019DF84220079002F058
:103B0000FE008DF842002046009606910DF0F4F874
:103B100011B0BDE8F08F00BFFEE7000040F2A43016
:103B2000C2F200001421FFF745BE00002DE9F04F5E
:103B300081B00446408C10F4FC7F00F02B816FEACA
:103B400001086FEA020900276D464FF0020B4FF0A3
:103B5000000A08E00227608C0AF1010AC0F3C501DF
:103B60008A4580F01281E16801EBCA025268930134
:103B7000F2D492B212EA080302EA0902B2FA82F21D
:103B80004FEA521218BF01235340E5D151F83A6071
:103B9000102130462A462CF021FB002840F0F4800A
:103BA000304611212A462CF019FB002840F0EC8009
:103BB000304612212A462CF011FB002840F0E48008
:103BC000304613212A462CF009FB002840F0DC8007
:103BD000304615212A462CF001FB002840F0D48005
:103BE000304614212A462CF0F9FA002840F0CC8007
:103BF00030460A212A462CF0F1FA002840F0C48011
:103C000030466B212A462CF0E9FA002840F0BC80AF
:103C100030466C212A462CF0E1FA002840F0B480AE
:103C2000304601212A462CF0D9FA002840F0AC8019
:103C3000304604212A462CF0D1FA002840F0A48016
:103C4000304602212A462CF0C9FA002840F09C8018
:103C5000304603212A462CF0C1FA002840F0948017
:103C6000304605212A462CF0B9FA002840F08C8015
:103C7000304606212A462CF0B1FA002840F0848014
:103C8000304632212A462CF0A9FA00287CD1304651
:103C90006E212A462CF0A2FA002875D130466D21FB
:103CA0002A462CF09BFA00286ED1304669212A461C
:103CB0002CF094FA00287FF44DAF30466A212A4652
:103CC0002CF08CFA00287FF445AF30466E212A464E
:103CD0002CF084FA00287FF43DAF30466D212A464F
:103CE0002CF07CFA00287FF435AF304637212A4685
:103CF0002CF074FA00287FF42DAF304638212A4684
:103D00002CF06CFA00287FF425AF304635212A4686
:103D10002CF064FA00287FF41DAF304640212A467B
:103D20002CF05CFA00287FF415AF304645212A4676
:103D30002CF054FA00287FF40DAF304641212A467A
:103D40002CF04CFA00287FF405AF304642212A4679
:103D50002CF044FA00287FF4FDAE304643212A4679
:103D60002CF03CFA00287FF4F5AE304649212A4673
:103D70002CF034FAFFB2012F4FF0010198BF0F462B
:103D8000002818BF5F46E6E60327F8B201B0BDE899
:103D9000F08F00BF0027F8B201B0BDE8F08F00003F
:103DA0004CF21C00C2F20100806870474CF21C000B
:103DB000C2F201000021C0E90411C0E90611C0E906
:103DC0000811C0E900117047C0F30410072828BF8C
:103DD000072070474FF6FF71884204BF1F207047CD
:103DE00010B90020704700BF702805D84DF67A4101
:103DF000C0F60301085C704740F24C31C2F200018A
:103E000009680029EDD04CF29402C2F20102713827
:103E1000126880B2824284BF085C7047E1E700000C
:103E200080B540F25030C2F200001821FFF7C2FC0A
:103E30004CF26400C2F201000121417080BD00001B
:103E4000002808BF70472DE9F041164604460D468C
:103E5000FCF712FC40F2A818C2F20008D8F80020C3
:103E60000746204629469047D8F8002005462044BA
:103E700031469047391A8D4202D9BDE8F04170476A
:103E8000204400BF425D6B1C8B426255F5D843193C
:103E90005F78AE1C62198E425770EED89F78EE1C88
:103EA0008E429770E9D8DB7804358D42D370E9D91A
:103EB000E3E700002DE9F04140F20808C2F20008F3
:103EC0001446D8F804200F4619461D46064690476A
:103ED000386048B12868D8F8042030440021904761
:103EE0002060BDE8F08100BF00202060BDE8F081C7
:103EF0002DE9F04F8DB0169C8246002C1E4691464F
:103F00000D461CBF00202080BAF1000F36D0002DD6
:103F10004FF0000000F05E829AF80010002900F0D7
:103F20005982179810F0060F2CD00020012242F27F
:103F3000014301E0397904300D2904D802FA01F770
:103F40001F4240F016810AEB000779780D2904D84A
:103F500002FA01F61E4240F00981B9780D2904D811
:103F600002FA01F61E4240F00381F9780D29E1D8EA
:103F700002FA01F61E42DDD00330FAE000200DB057
:103F8000BDE8F08F0021012E0A91C0F21182C00716
:103F9000CDE9085940F0FA8051464FF0000B002758
:103FA000CDF804A040F20800C2F2000042680020F0
:103FB0000C90079108460CA9904704461AF8070090
:103FC0000C9900280B9100F07F8019FA86F005907B
:103FD00007980697CDE903B600224FF0FF3500277A
:103FE0004FF0000B4FF000090FE000BF6A1C324693
:103FF00008BF0A46DDE90B1907980C9110F8091063
:1040000001370029444600F0628040F20801C2F204
:10401000000116464A680BA9AA46904780460898B0
:10402000214642461DF082FF01B2834409980029CF
:10403000C8BF834405980FFA8BF188424D46A8BF4C
:104040004FF0FF351AF1010218BF55460A2C00F057
:1040500033800D2C00F03080A4F59C4245F2A6136D
:104060009A42C0F02980A4F120023F2ABED8DFE89E
:1040700002F023212121212121212121212123237A
:10408000232121212121212121212121232321211A
:104090002121212121212121212121212121212110
:1040A0002121212121212121212121212121212100
:1040B000212300BF9AE700BFB9F1000F06D16A1CA7
:1040C00010D100250A4611E0002224E03246691C86
:1040D0000BD0069FDDF804A0DDF82490DDE903B6DF
:1040E000D7B17BE13246691CF3D14D46DDF804A01F
:1040F000DDF82490049E5FB10D2C2FD1DDF80CB0BB
:10410000069FB8F10A0F08BF0C9D934445B947E1DB
:10411000DDF80CB0069F0C9D002D934400F040810B
:104120009AF800102F440A290A9700F039810D29C6
:1041300000F036811AF807000A2800F02F810D28B8
:1041400000F02C81002800F02B81B01A06B2002E5E
:104150000AEB07013FF726AF22E100BFDDF80CB004
:10416000069F002D9344DBD11AE100BF013000E02F
:104170000230002918BF0130002C00F02B814FF6CF
:10418000FF7121800DB0BDE8F08F00BF54464FF0A5
:10419000000B0025002700BF40F20800C2F200001B
:1041A000426800200C9020460CA9904780461AF8DF
:1041B00007000C99002806970B9100F0A18019FACE
:1041C00086F002900020CDE903B607904FF0FF3053
:1041D0004FF0000B4FF000090027464605900AE01B
:1041E0000125DDE90B070BF1010B0C90E05D464664
:1041F000002800F0798040F20800C2F20000426816
:1042000020460BA99047232E804605D1002DE7D0EC
:10421000022D09D10025E4E7012D09D1202E0CBF84
:1042200002250125DDE700BF2326012D08BF00255B
:104230000898314642461DF079FE01B28144099842
:104240000029C8BF814402980FFA89F18842384694
:10425000A8BF4FF0FF30059B5A1C18BF18460A2E06
:1042600000F064800D2E00F06180A6F59C4245F2BE
:10427000A6139A42C0F05A80A6F120023F2A00F20B
:104280002380DFE802F05321212121212121212156
:104290002121535353212121212121212121212178
:1042A000535321212121212121212121212121219A
:1042B00021212121212121212121212121212121EE
:1042C00021212121215300BF0C9F421CE25D079B4D
:1042D00008BF0B460B99002A0BF1010B07930C91B9
:1042E0007FF47BAF464649E0DDF82490079A059BB2
:1042F0004646581C08D0069FDDE903B62FB36DE093
:10430000069F002220E000BF3B46BBF1000F18D003
:104310000D2E049E38D1DDF80CB0069FB8F10A0FBF
:1043200008BF0C9B934493B93AE000BF37BB421CD3
:10433000DDF82490079A2FD100230A46BBF1000F25
:10434000E6D1DDE903B6069F0C9B934443B39AF88C
:1043500000001F440A280A9722D00D2820D01AF8FE
:1043600007000A281AD00D2818D0C8B1B01A06B212
:10437000012E0AEB0704BFF60FAF11E0DDF8249021
:10438000079A0346B5E700BFDDF80CB0069F002B87
:104390009344DCD104E000BF0346AAE701370A9743
:1043A000169C089D27B1002C18BFA4F800B010E09F
:1043B00040F20800C2F2000042680AA95046904745
:1043C0003CB10146284600221DF0B0FD8346A4F80A
:1043D00000B00A980DB0BDE8F08F00BF169CE2E770
:1043E000002808BF70472DE9F04F83B01446002A1B
:1043F00000F08A80824620460D46FCF73DF90028F1
:1044000000F08280064650460194FCF735F90746D5
:1044100040F2A810C2F20000026850462946BC19BA
:10442000904700EB060C6445029613D2029E0AEBFD
:10443000000716F0030341D0019D39462A4612F8C1
:10444000010B012B01F8010B3ED1701E0F46042E0B
:104450004BD259E0029EAAF10102A6F1030E951972
:10446000A6F10209D11907EB060891F801B0A8F1ED
:104470000104EB19644583F801B0D7D312F8078023
:1044800007EB0904644505F80780CFD311F8018CC8
:1044900007EB0E04644503F8018CC7D311F8021C26
:1044A000043E03F8021CB919043AAEF1040E043DAF
:1044B0006145A9F10409D5D2B8E700BF019A304699
:1044C000042E12D220E000BF6878022B787005D14C
:1044D0000237AA1CB01E042E07D215E0A878EA1CE9
:1044E000B8700337F01E042E0ED3043A391F00BFF4
:1044F00012F8043F043801F8043F53784B70937866
:104500008B70D378CB70F3D103B0BDE8F04F704718
:10451000037823290CD1032B24BF00207047D90036
:104520004FF0010C2CFA01F22CEA030109E000BF64
:10453000012B1CBF0020704720294FF0010101D141
:1045400002220270084670472DE9F04182B004460D
:104550000B46CDE900110020002122464FF0000853
:104560002FF018F8451C0746284622F09BFD58B14D
:1045700000F80780019B2946224606462FF00AF8DC
:10458000304602B0BDE8F081FEE700002DE9F047BB
:10459000E2B1DDF820909A4614460F46804606E0C8
:1045A00064F001003044441C05EB0A0774B166084E
:1045B00006FB0A7540462946C8470128F0DAB0F1E3
:1045C000FF3F3446F2DD2846BDE8F0870025284647
:1045D000BDE8F0872DE9F04F83B0129C1E4681465E
:1045E000DDE910C00E9FDDE90C3B8A46A507CDE949
:1045F000002505D4E0B10146E0071DD1884623E03F
:1046000090460290E00644D50F98610507D4BBF1AF
:10461000000F04D0E34553D002998B4550D01028A9
:104620005AD1A00660D4BBF1200F5DD2782061E0A2
:104630004FF0000808E000BF14F00C0018BF012084
:1046400038438846A1EB0008BCF1200F4FF020054D
:1046500038BF65465D454FF020070AD903EB0B00D4
:10466000A5EB0B013022E346FCF725F80C9BDC465A
:10467000AB46019DB8F1200FCDF8088038BF474602
:10468000E00718BF5F4509D80E9FDDF80080E006FF
:10469000BAD4BBF11F0F3CD949E000BF03EB0B00BC
:1046A000A7EB0B013022E046FCF705F80C9BC44653
:1046B000BB460E9FDDF80080E006EAD5A4E700BF08
:1046C000BBF101010A4618BFABF10202102818BF66
:1046D0000A4693461028A4D002280FD1BBF11F0F21
:1046E0000CD8622006E000BF002807D5BBF1200FE0
:1046F00004D2582003F80B000BF1010BBBF11F0F84
:1047000015D8302003F80B000BF1010BBBF11F0F84
:104710000DD80FB12D2006E0600703D4200706D581
:10472000202000E02B2003F80B000BF1010B029876
:1047300044466DB9584544460AD9A0EB0B0742469A
:10474000202051463346541CC847013F2246F7D12A
:10475000BBF1000F14D00C98A0F1010818F80B0061
:10476000514622463346ABF10105671CC847002D70
:104770003C46AB46F2D10198002805D41AE000BFB0
:1047800027460198002815D50099DDF80880781A89
:1047900040450FD24D4200BF202051463A46334695
:1047A0007C1CC847281940452746F5D3204603B04E
:1047B000BDE8F08F3C46204603B0BDE8F08F000016
:1047C0009A4238BF88547047704700002DE9F04F77
:1047D00099B00E46229944F2C9771C469246C0F61B
:1047E000000700251091002E18BF074604F1020BA8
:1047F0002078A946002800F00D8500BF25280FD09D
:1048000031464A46534609F10105B84701340BF1D8
:10481000010B2078A9460028F0D100F0FBBC00BFB6
:10482000109C4FF00008CDE90D761BF8010CA0F1AB
:104830002002102A00F27C800121DFE802F00979D1
:10484000790B797979797979790D790F79791100FD
:10485000082105E0102103E0042101E0022100BF4E
:104860009BF8000048EA0108A0F12002102A00F29B
:10487000AB800121DFE802F00AA8A80CA8A8A8A82C
:10488000A8A8A80EA810A8A8120000BF082105E03B
:10489000102103E0042101E0022100BF9BF8010088
:1048A00048EA0108A0F12002102A00F2CB80012181
:1048B000DFE812F01200C800C8001400C800C800E9
:1048C000C800C800C800C800C8001600C80018000A
:1048D000C800C8001A0000BF082105E0102103E04D
:1048E000042101E0022100BF9BF8020048EA010810
:1048F000A0F12002102A00F2AF800121DFE802F0CF
:1049000012ACAC14ACACACACACACAC16AC10ACAC4B
:104910000A0000BF48EA01080BF1040B85E700BF5D
:104920000221F7E70821F5E71021F3E70421F1E779
:10493000ABF10201ABF1010BA0F13002D2B2092AB6
:1049400049D80BF1020B002505EB8501490051FA0E
:1049500080F11BF8010CA1F13005A0F13002D2B2B8
:10496000092A00F2178105EB850100EB41019BF854
:104970000000A1F13005A0F13002D2B2092A00F204
:104980000B8105EB850100EB41019BF80100A1F1D2
:104990003005A0F13002D2B2092A00F25B8105EBAA
:1049A000850100EB41019BF80200A1F13005A0F167
:1049B0003001C9B20A290BF1040BC5D3ABF1020BCC
:1049C0002E2800F0EC801FE0ABF10101A0F13002D5
:1049D000D2B2092AB5D92A2812D154F8040B0222DE
:1049E0000546002848BF454202EA907211F8020FBE
:1049F00048EA02088B462E2800F0D18004E000BF70
:104A000000252E2800F0CB804FF0000EA0F16801A9
:104A1000C20742EA5103092B3DD801214FF48072AD
:104A2000DFE803F006262A3939393439393400BF32
:104A3000594611F8010F682840F012810221C02266
:104A400024E000BF59460BF1010BA0F13002D2B2B5
:104A5000092AC0D875E700BF0BF101010BF1020B69
:104A6000A0F13002D2B2092A7FF66BAFB3E700BFE4
:104A70004FF400720AE000BF594611F8010F6C288C
:104A800040F0F28002214FF4407200BF1BF8010099
:104A900048EA02088B44A0F12503532B00F2EE8074
:104AA00008216F221027DFE813F0E300E900E90096
:104AB000E900E900E900E900E900E900E900E900AE
:104AC000E900E900E900E900E900E900E900E9009E
:104AD000E900E900E900E900E900E900E900E9008E
:104AE000E900E900E900E900E900E900E900E9007E
:104AF000E900E900E900E900E900E900E900E9006E
:104B00005900E900E900E900E900E900E900E900ED
:104B10006500E900E900E900E900E900E900E900D1
:104B2000E900E900F500B9015500E900E900E900F4
:104B3000E9005500E900E900E900E900E900F700B3
:104B40005900E900E900C301E9005500E900E90066
:104B5000650000BF28F010080A270BE05B4613F839
:104B6000011F48F4887856294FF0100102D15622CF
:104B70009B4691E040F00801582908BF48F0200802
:104B8000642800F08D8069280246394600F088804C
:104B900082E000BFABF1010B2E287FF435AF594600
:104BA00011F8010F48F48068A0F13002D2B2092A4E
:104BB00042D80BF1020B4FF0000E00BF0EEB8E013E
:104BC000490051FA80F19BF80000A1F1300EA0F1EC
:104BD0003002D2B2092A3FF619AF0EEB8E0100EB7C
:104BE00041019BF80100A1F1300EA0F13002D2B2D8
:104BF000092A00F253810EEB8E0100EB41019BF874
:104C00000200A1F1300EA0F13002D2B2092A00F266
:104C100049810EEB8E0100EB41019BF80300A1F1ED
:104C2000300EA0F13001C9B20A290BF1040BC5D333
:104C3000ABF1010BEAE600BF2A2807D154F8041BA8
:104C40001BF8020F21EAE17EE0E600BF4FF0000E04
:104C50008B46DBE60BF1010B2E28A0D0D4E600BF7B
:104C600048F080088B4616E748F480788B4612E7B8
:104C7000109409F10105252003E000BF09F10105A9
:104C800010940E9E0D9F31464A465346B8470BF18D
:104C90000104ABE50221622228F00C0810460F4601
:104CA0005FEA485148BF28F00108562818D0692803
:104CB00001D064282AD15FEA8850CDF830E037D49B
:104CC0005FEAC8504AD45FEA486000F1EF80D4F848
:104CD00000C05FEA086048BF0FFA8CFCE8E000BF44
:104CE00054F8040B0E9E41680D9F0D6806EB0901F8
:104CF00011950368AAEB0902384610940095FFF756
:104D000065FD00EB09050BF101046FE55FEA8850D2
:104D100036D45FEAC85000F1D9805FEA486000F1FC
:104D20008B8120685FEA086148BF80B285E100BFDF
:104D3000E01D20F007000246436852F8080B50EAD5
:104D4000030108BF28F0100810920B95CDE9093A2D
:104D500081BB18F480612DD0002259E054F804CBB7
:104D6000BCF1000F08BF28F01008BCF1000F109430
:104D700040F0BC8018F4806000F0B880002236E17A
:104D8000E01D20F00700446850F8086B109056EAC8
:104D9000040008BF28F010080028CDE90AA5CDF8C6
:104DA00030E040F0C78018F4806000F0C38000223B
:104DB000E6E000BF80EAE370B0EBE37408F02000A7
:104DC00083EAE37180F0610061EBE376F630002264
:104DD0000F9000BF9246204631463A460023FBF72B
:104DE00097FA00FB174211AD02F0FE030A2B0F9B4E
:104DF00038BF302313440AF10102BAF11E0F05F83F
:104E00000A3005D8E31B76F1000304460E46E1D2D2
:104E1000099811A9C00FCDE90012B5E05FEA8876C4
:104E20000B9540F1EF800D9F4FF0010867E100BF47
:104E3000CDF828A054F804AB9AF800005146002899
:104E4000109400F081817646BEF1000F08BF4FF04C
:104E5000FF362F46A6F1030CB21E731E043E00253A
:104E60000AEB05046178002918BFAB4200F0E2802C
:104E7000A178002918BFAA4200F06281E1780029D8
:104E800018BFAC4500F05E8121792C1D11B1AE42F6
:104E90002546E5D10AEB040155E100BF0BF1010BFA
:104EA000B4E500BF0BF1020BB0E500BF94F800C001
:104EB000BCF1000F08BF28F01008BCF1000F1094DF
:104EC00070D118F480606DD000228DE054F8040B8E
:104ED000002808BF28F010080028109440F0B8807F
:104EE00018F4806100F0B4800021EEE008F02001A9
:104EF00081F06101604601F1F60E0022BCF1000F65
:104F000048BFCCF1000000BFB0FBF7F1734601FBD6
:104F1000170404F0FE060A2E38BF3023234411ACD8
:104F2000A3541E2A02F1010261D8B8420846EBD20E
:104F30005DE000BF08F0200080F06100F630002244
:104F40000F9000BF9246304621463A460023FBF7B9
:104F5000DFF900FB176211AD02F0FE030A2B0F9B75
:104F600038BF302313440AF10102BAF11E0F05F8CD
:104F70000A3005D8F31B74F1000306460C46E1D253
:104F800011A8CDE900020020CDE902070C980D9F81
:104F900004900B980E9EDDF828A005903846314607
:104FA0004A469FE008F0200181F06101604601F16E
:104FB000F60E0022BCF1000F48BFCCF1000000BF8C
:104FC000B0FBF7F1734601FB170404F0FE060A2E4E
:104FD00038BF3023234411ACA3541E2A02F101022E
:104FE00002D8B8420846EBD21098043010904FEA2D
:104FF000DC70CDE902070C9811A9CDE900120490EC
:105000006AE000BF022D77D3DDE90D781094681CAB
:105010006C4200250F9000BF09EB0502202041469D
:105020005346B847013560190130F5D1DDE90F84E9
:10503000A94464E0611C86E02078002808BF28F0BD
:105040001008109410BB18F480611FD0002139E0C3
:1050500008F0200181F0610101F1F60C002100BF90
:10506000B0FBF7F3624603FB170606F0FE040A2CBA
:1050700038BF3022324411AE72541E2901F10101B1
:1050800023D8B8421846EBD21FE000BF08F0200139
:1050900081F0610101F1F60C002100BFB0FBF7F3D4
:1050A000624603FB170606F0FE040A2C38BF3022C6
:1050B000324411AE72541E2901F1010102D8B842E6
:1050C0001846EBD210980430109011A8CDE90001D9
:1050D000002002A981E881400D9F0E9E384631468E
:1050E0004A4605955346CDF81880FFF773FA0546F2
:1050F0000BF10104FFF77ABB0D9F4FF0020814F883
:10510000040B0E994A46534609F10105B847002E93
:1051100010940FD50B9840450CD90E9EA0EB0804B7
:105120002A462020314653460135B847013CF7D185
:10513000ADE500BF0E9E0BF10104FFF757BB00BFAA
:10514000A11C00E0E11C3D46A1EB0A02724571463C
:1051500038BF11465FEA48530F9358BF11465FEAC4
:10516000887209920B951CD48D4219D9DDF82880DC
:10517000DDE90D76681C6D1A0024CDF830E008904A
:1051800009EB0402202031464346B8470134A542CA
:10519000F6D19AF80000DDF830E0A14404E000BF49
:1051A0000131DDE90D760891D0B10AF10104DDF895
:1051B00028A00CE0F046C0B231464A46534609F1F9
:1051C0000105B84714F8010BA946C64658B10F9916
:1051D0000029EFD5BEF1000F04D0AEF10108EAE7D7
:1051E000DDF828A04D46099800287FF550ADDDF880
:1051F0002C80089880457FF64AADA8EB000400BFDC
:105200002A462020314653460135B847013CF7D1A4
:105210003DE500BF4A46002031465346CA4598BF87
:10522000AAF10102B847484619B0BDE8F08F000066
:105230002DE9F04F81B040F22C37C2F20007B86878
:105240002DF058FA7978044681F00100787040F228
:105250008030C2F20000FEF77BFA002800F0B08038
:1052600040F2803B06464FF00008C2F2000B4FF0C0
:1052700001094FF6FF7A07E058463146FEF78CFAEF
:105280000646002800F09C8096F842007978C0F32A
:1052900080028A4287F8008062D000F0FB0242EA76
:1052A0008102316B030786F842201AD4002918DCEA
:1052B0000A1916D4C00709D1716939B13046884737
:1052C000316AB26A014410443162B062B16809B116
:1052D0003046884796F84200316B40F0080086F867
:1052E0004200081930633BD4F16A8842C8BF316379
:1052F000F16930468847726A904205D0726801466B
:1053000070620AB130689047D6E90B01814227DB11
:1053100096F84210B6F840308A0705D423B15345B9
:105320001CBF013BA6F840301B0407D0D6E90E3560
:105330006D423563A3B1002A04D506E0002A1BD4D0
:10534000B36BCBB1726B5242326381F0020186F8CB
:105350004210B16A326A3162C6E90A23B06300BF03
:10536000387801287FF488AF5846FEF7F1F90646F1
:1053700000287FF489AF23E058463146FEF790FAC3
:10538000584687F80090FEF7E3F90146786889B13E
:105390002DF046FBF16809B130468847316909B103
:1053A00030468847304622F077F8387801287FF475
:1053B00063AFD9E72DF024FBF1680029ECD1EDE7CC
:1053C0002DF0B0F9B86001B0BDE8F08FB0B504467B
:1053D00040680D4610B12946FFF7F8FF2268002A01
:1053E00008BFB0BD20462946BDE8B04010470000C8
:1053F00089B20CF093B8000089B20CF005B9000036
:1054000008F0ECBD002A08BF70472DE9F0411446B2
:1054100005464E1E6FF05F08013C6F1C09F002F854
:10542000C5F3062008EB4000C0B208F03FFF09F0CA
:105430003DF8E8B208F03AFF09F038F808F0F2FF5A
:10544000A12008F033FF09F031F8002008F014FE25
:10545000054609F00BF806F8015F20043D46DBD154
:10546000BDE8F0417047000010B5044608F0DAFFCF
:10547000C4F306206FF05F0101EB4000C0B208F0FA
:1054800015FF09F013F8E0B208F010FF09F00EF86C
:1054900008F0C8FFA12008F009FF09F007F8002074
:1054A00008F0EAFD044608F0E1FF204610BD0000C8
:1054B000002A08BF70472DE9F041144605464F1EEB
:1054C0006FF05F0817F8016F013C08F0ABFFC5F300
:1054D000062008EB4000C0B208F0E8FE08F0E6FF46
:1054E000E8B208F0E3FE08F0E1FF304608F0DEFE27
:1054F00008F0DCFF08F0BAFF0A2001F03FFF2004AB
:1055000005F10105DED1BDE8F0417047B0B50C46AC
:10551000054608F087FFC5F306206FF05F0101EB39
:105520004000C0B208F0C2FE08F0C0FFE8B208F0C8
:10553000BDFE08F0BBFF204608F0B8FE08F0B6FF3D
:1055400008F094FF0A20BDE8B04001F017BF00004A
:1055500070B504461CF05CFB054620461CF070FB51
:105560000E2D39D104461EF0EBFF1FF035F801284F
:1055700032D140F24446C2F200063069002818BF1A
:1055800070BD12F0D9FA12F013FB022123F0E8FCEF
:1055900012F0D2FA12F00CFB0DF008FE306112F09E
:1055A000CBFA12F005FB7F21002228F055FE12F005
:1055B000C3FA12F0FDFA0546122028F0ABFF81B2C3
:1055C0002846002228F03CFE3078012806D048B951
:1055D0003069B421C8220AE070BD00BF3069C8211B
:1055E000DC2204E030694FF496714FF4A57228F084
:1055F0005DFC306940F2C67101220DF01FFE30697A
:10560000092100221E2323F0C7FD306945F6D11180
:10561000C0F600010022234623F05AFC3069BDE8A1
:1056200070400DF0FDBD0000B0B5002944D08029C8
:105630000B460BD3B1FA81F2C2F11A024FF0FF33DD
:1056400003FA02F2D24353187F2B37D89A0800236B
:1056500000EB8305D5F814C04FF0FF3505FA02F2D0
:1056600012EA0C0212D092FAA2F2B2FA82FE00EB17
:10567000C31202EB8E0454F83C2FEAB1556825F0B2
:1056800003058D422AD200BFFEE700BF02696FF01A
:10569000010505FA03F31A400ED092FAA2F2B2FA0B
:1056A00082F300EB8302D2F814C0BCF1000F624613
:1056B000D9D100BFFEE700BF0020B0BD0022B2EB91
:1056C000134F25D1B3FA83F5C5F11A0223FA02F27A
:1056D00082F02002C5F11903BAE700BFD568CDB149
:1056E0009168C9B1CD60A9602568954210D1814209
:1056F00021600DD1012101FA0EF500EB83043CEA93
:105700000505656104D10569994025EA010101613A
:105710001046B0BDFEE700BFFEE70000F0B54A68E6
:10572000032A09D922F003030A1D9B1806D05D68DD
:10573000EC0705D10846F0BDFEE700BFFEE700BF5D
:1057400025F003047F2C3BD84FEA950E4FF0000C58
:10575000DD68002D42D09C6864B3E560AC6000EB6E
:10576000CC1505EB8E0555F83C6F9E4211D1844255
:105770002C600ED100EB8C0501276E6907FA0EF440
:10578000A6436E6105D1066907FA0CF726EA0707FA
:105790000761486803280FD95B6823F003031844A6
:1057A00004300328486009D920F0030081500846DE
:1057B000F0BD00BFFEE700BFFEE700BFFEE700BF91
:1057C000B4FA84FCCCF11A0524FA05F585F0200E14
:1057D000CCF1190CDD68002DBDD100BFFEE7000043
:1057E00070B539B122B14B68DD0705D1FEE700BFC6
:1057F000FEE700BF002070BD23F0030402F1100596
:10580000AC420FD2032B40F2818023F0030201F15E
:105810000800835823F0020383504A6822F00102F3
:105820004A6070BD01F1080E02EB0E03DD1D1E1D66
:1058300025F00305AE4201D0FEE700BFA3F1040C42
:10584000A31ADCF80440043B04F0030423430B2BAD
:10585000CCF804302CD94B6803F003031A434A6098
:10586000DCF80420032A25D922F00304325942F03F
:1058700002023251DCF80420344442F00103CCF837
:1058800004304B6844F804CC032B15D923F00303F0
:10589000734443F8041C22F0030342F003067F2BF9
:1058A000CCF804600AD84FEA920E00230FE000BF44
:1058B000FEE700BFFEE700BFFEE700BFB3FA83F2DA
:1058C000C2F11A06F34083F0200EC2F1190300EB77
:1058D000C31202EB8E0252F83C4FCCB1CCE902402D
:1058E000C4F80CC00124056904FA03F635430561C8
:1058F00000EB8300436904FA0EF6334343614B68BF
:10590000C2F800C0032B3FF680AF00BFFEE700BF28
:10591000FEE70000B0B582B004461EF011FE054659
:105920001EF04EFE40B1218F2046E18602B0BDE858
:10593000B04026F08FBB00BF606A012126F060F8FE
:1059400030B1204602B0BDE8B0401BF071BF00BFCF
:105950002046012124F06EF94FF6FF71606A6187DD
:10596000012123F0FDFA2046202100221CF06CF9D1
:10597000218FE08E81420BD02087019001AA204622
:105980001C211CF061F901280DD1204626F062FB94
:1059900028461EF021FE042805D1204624F0A0FF51
:1059A00000211DF0C5F902B0B0BD0000B0B51CF07B
:1059B00047F9044625F020F8054620460DF080F80A
:1059C000014628460022BDE8B0402BF07BBD000018
:1059D000F0B58BB005461CF01BF9064628461CF0B6
:1059E00031F9044628461CF017F91C2E2CD10AA9BF
:1059F0000DF0EAFB9DF92B309DF92A60BDF8285087
:105A000002AF12A238462021CDE900652AF026F81F
:105A1000204639462CF016FD40F24444C2F2000400
:105A2000206924F061F90020206112F085F812F05D
:105A3000BFF8022124F0BEF812F07EF812F0B8F898
:105A40000021002228F008FC0BB0F0BD25303264A4
:105A50002E253032642E2564000000002DE9F04F21
:105A6000A7B004461CF0D4F8064620461CF0E8F81F
:105A7000012E054604D01A2E08D0082E40F0BC8016
:105A8000284627B0BDE8F04F26F0E4BA20461CF0C7
:105A9000D5F80446406BB0F5A02F21D0B0F5C02F4B
:105AA00040F0AA80A06B022840F0A68028460EF0A5
:105AB00017FB0246236CD4E90B01022A0EBFE9A2B0
:105AC0004DF6E822C0F6030252F8233049F631526F
:105AD000C0F6050227B0BDE8F04F29F0BFBF00BFF8
