:020000040800F2
:10000000E00600202902000865110008C910000858
:10001000611100081F0400084112000800000000E0
:100020000000000000000000000000006B1100084C
:100030002304000800000000691100086D11000889
:10004000430200084302000843020008430200087C
:10005000430200084302000843020008430200086C
:10006000430200084302000843020008430200085C
:10007000430200084302000843020008430200084C
:10008000430200084302000843020008430200083C
:10009000430200084302000843020008430200082C
:1000A000430200084302000843020008430200081C
:1000B000430200084302000843020008430200080C
:1000C00043020008430200084302000843020008FC
:1000D00043020008430200084302000843020008EC
:1000E00043020008430200084302000843020008DC
:1000F00043020008430200084302000843020008CC
:1001000043020008430200084302000843020008BB
:1001100043020008430200084302000843020008AB
:10012000430200084302000843020008430200089B
:10013000430200084302000843020008430200088B
:10014000430200084302000843020008430200087B
:10015000430200084302000843020008430200086B
:10016000430200084302000843020008430200085B
:100170004302000843020008430200080000000098
:10018000430200084302000800F002F800F03CF8C7
:100190000AA090E8000C82448344AAF10107DA45E2
:1001A00001D100F031F8AFF2090EBAE80F0013F0F8
:1001B000010F18BFFB1A43F001031847E078000055
:1001C00000790000103A24BF78C878C1FAD85207E5
:1001D00024BF30C830C144BF04680C6070470000C1
:1001E0000023002400250026103A28BF78C1FBD840
:1001F000520728BF30C148BF0B6070471FB504F0DD
:100200007BFC1FBD10B510BD00F0D4F81146FFF700
:10021000F5FF04F089FA00F0F2F803B4FFF7F2FFFB
:1002200003BC00F0F5F80000094880470948004782
:10023000FEE7FEE7FEE7FEE7FEE7FEE7FEE7FEE796
:10024000FEE7FEE704480549054A064B70470000F3
:100250002D12000889010008E0000020E0060020BF
:10026000E0020020E002002053EA020C00F0698066
:100270002DE9F04B4FF00006002B1FBFB3FA83F5BA
:1002800003FA05F424FA05F65E4012BF1643B2FAEB
:1002900082F502FA05F4C5F120051EBF22FA05FC1D
:1002A00044EA0C04203556EA044C4FEA144418BFC3
:1002B000641C4FF000084FF00009904271EB030CF2
:1002C00039D3002919BFB1FA81F701FA07F6B0FA5C
:1002D00080F700FA07F6C7F120071EBF20FA07FCD7
:1002E00046EA0C062037B6FBF4FCA7EB0507103FE7
:1002F00007F01F0BCBF120060CFA0BFB2CFA06F6CD
:1003000044BFB3460026202FA4BF5E464FF0000B2B
:100310005BEA060C08BF4FF0010B19EB0B09ABFBB6
:10032000027C48EB0608C01B06FB02CC0BFB03CC8F
:1003300071EB0C01C1E70B46024641464846BDE859
:10034000F08B13B54FF000004FF00001AFF30080C9
:10035000BDE81C4070474FF0000200B513469446BC
:100360009646203922BFA0E80C50A0E80C50B1F10D
:100370002001BFF4F7AF090728BFA0E80C5048BF21
:100380000CC05DF804EB890028BF40F8042B08BFBF
:10039000704748BF20F8022B11F0804F18BF00F8BB
:1003A000012B704770477047704700000048704746
:1003B0007C0000207546FFF7F9FFAE460500694650
:1003C000534620F00700854618B020B5FFF73AFFE6
:1003D000BDE820404FF000064FF000074FF0000846
:1003E0004FF0000B21F00701AC46ACE8C009ACE8C7
:1003F000C009ACE8C009ACE8C0098D46704710B52B
:100400000446AFF300802046BDE81040FFF705BF6B
:1004100001491820ABBEFEE726000200704700BF6E
:10042000FEE7704772B600BFFEE7000070B50446F5
:10043000B3F5804F13D1D1E9000540EA05108D686E
:1004400040EA05208D6928438D8940EA054054F82B
:100450002250064E3540284344F8220003E06FF056
:10046000704044F82200002070BD00000000F0CF72
:1004700070B50246086852F8200020F001000E68AE
:1004800042F826008868082801D1402300E00023B4
:10049000486818438E683043CE6830430E69304355
:1004A0004E693043CE6930430E6A30434E6A304362
:1004B0008E6A3043CE6A30430E6B40EA0604886988
:1004C0000443C86B0443074D45F4806545F4E025BB
:1004D000086852F82000A84320430E6842F826001E
:1004E000002070BD7FFB080010B50346D1E9000471
:1004F00040EA04108C6840EA04208C8940EA0444F5
:10050000088A401E44EA0054087D801E44EA0060C8
:100510008C692043541C53F8244004F04044204389
:10052000541C43F82400002010BD0000F8B502461A
:100530000B460025002400200021D6E0012606FA03
:1005400001F51E6806EA0504AC4274D11E7906F076
:100550000306012E04D01E7906F00306022E13D1E5
:1005600090684F000326BE40B0434F00DE68BE4097
:1005700030439060506801268E40B0431E79C6F328
:1005800000168E40304350601E7906F00306032E9D
:1005900009D0D0684F000326BE40B0434F009E688C
:1005A000BE403043D0601E7906F00306022E13D100
:1005B000CF0802F1200656F827004E07F70E0F2647
:1005C000BE40B0434F07FF0E1E69BE403043CF0808
:1005D00002F1200646F8270010684F000326BE40AF
:1005E000B0431E7906F003064F00BE403043106052
:1005F0005E6806F44036002E76D000BF00260096D6
:100600003C4E366846F480463A4F3E603E46366879
:1006100006F48046009600BF00BF374E8F0856F89C
:1006200027008E07370F0F26BE40B043334EB2422D
:1006300002D1002624E057E0314EB24201D101261A
:100640001EE0304EB24201D1022619E02E4EB242D7
:1006500001D1032614E02D4EB24201D104260FE051
:100660002B4EB24201D105260AE02A4EB24201D1F8
:10067000062605E0284EB24201D1072600E00826F2
:100680008F073F0FBE4030431B4E8F0846F82700B0
:10069000224E3068A0435E6806F4801606B12043FF
:1006A0001E4E3060361D3068A0435E6806F40016AA
:1006B00006B12043194E361D3060184E361F306883
:1006C000A0435E6806F4003606B12043134E361F81
:1006D0003060361F3068A0435E6806F4803606B18D
:1006E00020430E4E083E3060491C1029FFF426AF0F
:1006F000F8BD0000443802400838014000000240C4
:100700000004024000080240000C024000100240B9
:100710000014024000180240001C0240083C014046
:100720000AB1816101E00B048361704701480068F0
:100730007047000000000020034800680349097862
:1007400008440149086070470000002008000020AC
:1007500010B50D48006840F400700B490860084669
:10076000006840F4806008600846006840F48070CB
:100770000860032000F092F80F2000F007F800F066
:100780002BF8002010BD0000003C024070B504466C
:100790000E4800784FF47A71B1FBF0F00C4909680B
:1007A000B1FBF0F5284600F075FC08B1012070BDE2
:1007B000102C07D200222146501E00F031F80548C7
:1007C000046001E00120F2E70020F0E708000020CB
:1007D0000C0000200400002008B500BF002000909D
:1007E0000E48006840F480400C49086008460068E4
:1007F00000F48040009000BF00BF00BF00200090C8
:10080000081F006840F08050091F08600846006813
:1008100000F08050009000BF00BF08BD4438024087
:100820002DE9F05F80460D461646002700F00AFDD0
:10083000074639462A46334601F00700C0F1070A49
:10084000BAF1040F02D94FF0040A01E0C0F1070A1F
:10085000D14600F1040ABAF1070F02D24FF0000AA4
:1008600001E0A0F1030AD4464FF0010A0AFA09FA9E
:10087000AAF1010A0AEA020A0AFA0CFA4FF0010B7D
:100880000BFA0CFBABF1010B0BEA030B4AEA0B046E
:100890002146404600F0DEFCBDE8F09F00BF00F0BE
:1008A0000702064B19684FF6FF031940044B0B4330
:1008B00043EA0221014B196000BF70470CED00E0D4
:1008C0000000FA0570B504460D460CB9012070BD54
:1008D0005848006800F00700A84209D255490D7039
:1008E0000846006800F00700A84201D00120EEE7AA
:1008F000207800F0020002281DD1207800F00400CA
:10090000042805D14C48006840F4E0504A4908608A
:10091000207800F00800082805D14748006840F416
:100920006040454908604448006820F0F000A16834
:10093000084341490860207800F00100A8B36068CE
:10094000012807D13C4808380068C0F34040B8B9D6
:100950000120BCE76068022802D06068032807D144
:10096000354808380068C0F3406048B90120AEE758
:10097000314808380068C0F3400008B90120A6E7F4
:100980002D48006820F00300616808432A49086088
:10099000FFF7CCFE064609E0FFF7C8FE801B41F2D8
:1009A0008831884202D9032091E707E02248006895
:1009B00000F00C006168B0EB810FEDD11D480068BC
:1009C00000F00700A84209D91A490D7008460068CE
:1009D00000F00700A84201D0012078E7207800F05D
:1009E0000400042807D11448006820F4E050E168AE
:1009F000084311490860207800F00800082808D151
:100A00000D48006820F46040216940EAC1000A49AD
:100A1000086000F019F808490968C1F30311074A92
:100A2000515CC8400649086006480068FFF7AEFE02
:100A300000204CE7003C024008380240024B00080E
:100A40000C000020040000202DE9F04700240025C0
:100A50000026A1462548006800F00C0020B10428BB
:100A600005D008283AD105E0DFF8849039E0DFF8B6
:100A7000849036E01D48001F006800F03F041B48CA
:100A8000001F006800F4800078B11A481749091F58
:100A90000968C1F38811A0FB0170014622460023BA
:100AA0003846FFF7E1FB05460EE011480F49091FE4
:100AB0000968C1F38811A0FB01700146224600239A
:100AC0003846FFF7D1FB05460848001F0068C0F311
:100AD0000140401C4600B5FBF6F902E0DFF810903B
:100AE00000BF00BF4846BDE8F0870000083802405C
:100AF0000024F40000127A00F8B504460CB9012075
:100B0000F8BD207800F00100002874D0F948006892
:100B100000F00C0004280DD0F648006800F00C002E
:100B2000082813D1F348001F006800F48000B0F5D6
:100B3000800F0BD1EF4808380068C0F34040002810
:100B400059D06068002856D10120D9E700BF6068FD
:100B5000B0F5803F08D1E7480838006840F480309D
:100B6000E449083908601EE06068B0F5A02F0DD197
:100B7000E0480838006840F48020DE490839086001
:100B80000846006840F4803008600CE0D948083816
:100B9000006820F48030D7490839086008460068AA
:100BA00020F48020086000BF606890B1FFF7BEFDB0
:100BB000054606E0FFF7BAFD401B642801D9032073
:100BC0009EE7CC4808380068C0F340400028F1D0C8
:100BD00011E0FFF7ABFD054606E0FFF7A7FD401B60
:100BE000642801D903208BE7C24808380068C0F3A5
:100BF00040400028F1D1207800F0020002285FD1A7
:100C0000BC48006800F00C0058B1BA48006800F019
:100C10000C0008281CD1B748001F006800F48000B1
:100C2000B0B9B44808380068C0F3400020B1E068AB
:100C3000012801D0012063E7AE480838006820F0A1
:100C4000F800216940EAC100AA490839086037E084
:100C5000E06800B30120A8490860FFF767FD05467A
:100C600006E0FFF763FD401B022801D9032047E798
:100C7000A04808380068C0F340000028F1D09D4823
:100C80000838006820F0F800216940EAC10099495D
:100C90000839086014E0002097490860FFF746FD16
:100CA000054606E0FFF742FD401B022801D903205C
:100CB00026E7904808380068C0F340000028F1D1CA
:100CC000207800F0080008282CD16069A8B1012024
:100CD0008A490860FFF72AFD054606E0FFF726FD72
:100CE000401B022801D903200AE782486C300068C3
:100CF000C0F340000028F1D014E000207F490860D4
:100D0000FFF714FD054606E0FFF710FD401B022823
:100D100001D90320F4E677486C300068C0F3400046
:100D20000028F1D1207800F00400042870D10027B9
:100D300070483830006800F0805090B900BF002043
:100D400000906C483830006840F080506949383174
:100D500008600846006800F08050009000BF00BFA7
:100D600001276748006800F48070B0B964480068E3
:100D700040F4807062490860FFF7D8FC054606E041
:100D8000FFF7D4FC401B022801D90320B8E65C48D9
:100D9000006800F480700028F2D000BFA06801282D
:100DA00008D154486830006840F00100514968316A
:100DB00008601DE0A06805280DD14E486830006825
:100DC00040F004004B49683108600846006840F074
:100DD000010008600CE047486830006820F001001E
:100DE0004449683108600846006820F00400086043
:100DF00000BFA068A8B1FFF799FC054609E0FFF71E
:100E000095FC401B41F28831884202D9032077E6E5
:100E100026E0384868300068C0F340000028EED073
:100E200013E0FFF783FC054608E0FFF77FFC401B5B
:100E300041F28831884201D9032061E62D486830AB
:100E40000068C0F340000028EFD1012F07D12948E6
:100E50003830006820F0805026493831086000BFE3
:100E6000A069002845D02348006800F00C0008283D
:100E70005DD0A069022845D100201F490866FFF710
:100E800055FC054606E0FFF751FC401B022801D93E
:100E9000032035E6174808380068C0F34060002892
:100EA000F1D1D4E907010843616A40EA81110122C6
:100EB000A06AC2EB500041EA00412C20005D41EAEB
:100EC00000600C49091F086001200B490866FFF704
:100ED0002DFC054606E0FFF729FC401B022801D93E
:100EE00003200DE6034808380068C0F3406000287E
:100EF000F1D049E00838024000004742800E4742E6
:100F000000700040002021490866FFF70FFC0546ED
:100F100006E0FFF70BFC401B022801D90320EFE598
:100F20001B480068C0F340600028F2D12CE0A069A3
:100F3000012800D1E4E51648001D0668A0690128D3
:100F400020D006F48001E06981421BD106F03F0108
:100F5000206A814216D147F6C0703040616AB0EB1A
:100F6000811F0FD106F440310122A06AC2EB50006C
:100F7000B1EB004F06D106F070612C20005DB1EBA3
:100F8000006F01D00120BBE50020B9E50000474219
:100F90000038024070B504460E4615460CB90120D3
:100FA00070BD94F8490028B9002084F84800204614
:100FB00000F020F804F108012068FFF759FA3146E3
:100FC000A2682068FFF790FA2946236BD4E9010252
:100FD000FFF72CFAA168206850F8210040F00100CA
:100FE000A268216841F82200012084F8490000200D
:100FF000D6E7000010B586B0044600BF0020009080
:101000002148006840F001001F4908600846006858
:1010100000F00100009000BF00BF00BF0020009062
:1010200019480838006840F0080017490839086076
:101030000846006800F00800009000BF00BF00BF35
:10104000002000900846006840F010000860084644
:10105000006800F01000009000BF00BF4CF2037069
:10106000019002200290012003900220049001A927
:101070000648FFF75BFA4FF68070019001A904481B
:10108000FFF754FA06B010BD38380240000C024099
:101090000010024070B504462546681EB0F1807FFE
:1010A00001D301200FE0681E4FF0E02148610F21BD
:1010B0004FF0FF3000F0CEF800204FF0E0218861C3
:1010C00007200861002070BD00BFFEE700B587B0B3
:1010D000142102A8FFF73FF900BF002001901E482D
:1010E000006840F080001C4908600846006800F075
:1010F0008000019000BF00BF00BF002001900846A3
:10110000006840F0020008600846006800F0020035
:10111000019000BF00BF00BF00200190084600689A
:1011200040F0010008600846006800F001000190EE
:1011300000BF00BF002201210848FFF7F1FA01209B
:101140000290039000200490059002A90348FFF745
:10115000EDF907B000BD0000303802400004024045
:1011600000BFFEE700BFFEE77047704710B5FFF70E
:10117000E3FA10BD00B593B0302107A8FFF7EBF8F4
:10118000142102A8FFF7E7F800BF002001902548CE
:10119000006840F08050234908600846006800F06D
:1011A0008050019000BF00BF00BF002001901E488A
:1011B000006840F480401C4908600846006800F45C
:1011C0008040019000BF00BF0220079001200A90DC
:1011D00010200B9002200D9000210E9108210F91FC
:1011E000A8211091022111910421129107A8FFF763
:1011F00083FC08B1FFF716F90F200290022003903C
:10120000002004904FF4A05005904FF480500690B9
:10121000052102A8FFF756FB08B1FFF703F913B049
:1012200000BD0000403802400070004003480068E4
:1012300040F47000014908607047000088ED00E04C
:1012400000BFFEE702480068C0F3022070470000BC
:101250000CED00E010B5002804DB0A07130E054A68
:10126000135406E00A07140E034A00F00F031B1F75
:10127000D45410BD00E400E018ED00E0014908601E
:10128000704700001800002010B504464FF47A7132
:1012900004FB01F000F002F810BD000070B5034639
:1012A00000224FF0E02675690D4E366803FB06F408
:1012B0004FF0E026B16910E04FF0E026B0698842B7
:1012C0000BD0884202D20E1A324402E02E1A0E448B
:1012D00032440146A24200D300E0EDE700BF70BDFA
:1012E0001800002070B5044600260948058840888B
:1012F00045430021084603F057F803F003FA00BF06
:1013000002E004480480761CAE42FAD370BD0000AF
:101310006C0000200000026010B50446584884713B
:10132000002C58D1F020564908804FF4A070488016
:101330000846808845F21051884210D14FF4305051
:101340004F4908814FF4285048814FF42C50888130
:101350004FF4F07008804FF4487048801AE0484815
:10136000808841F6631188420DD12C2044490881C0
:101370002B2048812A2088814FF4F07008804FF498
:101380004870488006E02C203D4908812A20488189
:101390002B2088813A48808845F21031884205D058
:1013A0003748808847F29671884206D14FF4A07082
:1013B000334908804FF4F07048803148808849F6FE
:1013C0000601884258D14FF4F0702D4908804FF43F
:1013D0004870488050E04FF4A07029490880F02000
:1013E00048800846808845F21051884210D14FF459
:1013F0003050234908814FF4285048814FF42C5035
:1014000088814FF4487008804FF4F070488020E0E5
:101410001B48808841F66311884205D018488088AF
:1014200049F6060188420DD12C20154908812A2051
:1014300048812B2088814FF4487008804FF4F07069
:10144000488006E02C200E4908812A2048812B2064
:1014500088810B48808845F21031884205D00848C1
:10146000808847F29671884206D14FF4F0700449A3
:1014700008804FF4A0704880002002F077FE10BD75
:101480006C00002070B505460E46144631462846CD
:1014900002F08AFF03F036F901490C8070BD0000AC
:1014A0000000026010B5CF2003F020F9002003F007
:1014B00011F9C12003F00EF9302003F00BF9ED20F3
:1014C00003F014F9642003F005F9032003F002F996
:1014D000122003F0FFF8812003F0FCF8E82003F06D
:1014E00005F9852003F0F6F8102003F0F3F87A20D0
:1014F00003F0F0F8CB2003F0F9F8392003F0EAF814
:101500002C2003F0E7F8002003F0E4F8342003F087
:10151000E1F8022003F0DEF8F72003F0E7F82020DE
:1015200003F0D8F8EA2003F0E1F8002003F0D2F845
:10153000002003F0CFF8C02003F0D8F81B2003F000
:10154000C9F8C12003F0D2F8012003F0C3F8C52088
:1015500003F0CCF8302003F0BDF8302003F0BAF8E7
:10156000C72003F0C3F8B72003F0B4F8362003F027
:10157000BDF8482003F0AEF83A2003F0B7F8552044
:1015800003F0A8F8B12003F0B1F8002003F0A2F8AE
:101590001A2003F09FF8B62003F0A8F80A2003F001
:1015A00099F8A22003F096F8F22003F09FF80020AB
:1015B00003F090F8262003F099F8012003F08AF850
:1015C000E02003F093F80F2003F084F82A2003F0C2
:1015D00081F8282003F07EF8082003F07BF80E2025
:1015E00003F078F8082003F075F8542003F072F83F
:1015F000A92003F06FF8432003F06CF80A2003F0F1
:1016000069F80F2003F066F8002003F063F800206B
:1016100003F060F8002003F05DF8002003F05AF8B2
:10162000E12003F063F8002003F054F8152003F0E4
:1016300051F8172003F04EF8072003F04BF8112063
:1016400003F048F8062003F045F82B2003F042F899
:10165000562003F03FF83C2003F03CF8052003F04F
:1016600039F8102003F036F80F2003F033F83F204C
:1016700003F030F83F2003F02DF80F2003F02AF894
:101680002B2003F033F8002003F024F8002003F0AF
:1016900021F8012003F01EF83F2003F01BF82A2058
:1016A00003F024F8002003F015F8002003F012F8EE
:1016B000002003F00FF8EF2003F00CF8112003F0E6
:1016C00015F87820FFF7E0FD292003F00FF810BD92
:1016D00010B5FF2003F00AF8FF2002F0FBFF98206E
:1016E00002F0F8FF062002F0F5FFBC2002F0FEFF3A
:1016F000012002F0EFFF0F2002F0ECFF612002F06A
:10170000E9FFFF2002F0E6FF012002F0E3FF0120E5
:1017100002F0E0FF0B2002F0DDFF102002F0DAFF04
:10172000372002F0D7FF632002F0D4FFFF2002F041
:10173000D1FFFF2002F0CEFF012002F0CBFF0120FD
:1017400002F0C8FF002002F0C5FF002002F0C2FF37
:10175000FF2002F0BFFF522002F0BCFF012002F088
:10176000B9FF002002F0B6FF402002F0B3FFBD2019
:1017700002F0BCFF012002F0ADFF232002F0AAFF1F
:10178000452002F0A7FF672002F0A4FF012002F02D
:10179000A1FF232002F09EFF452002F09BFF67205F
:1017A00002F098FFBE2002F0A1FF002002F092FF9D
:1017B000012002F08FFFAB2002F08CFF602002F0CE
:1017C00089FF222002F086FF222002F083FF2220E0
:1017D00002F080FF222002F07DFF222002F07AFF3B
:1017E000C72002F083FF362002F074FFED2002F0E4
:1017F0007DFF7F2002F06EFF0F2002F06BFFC02004
:1018000002F074FF0F2002F065FF0B2002F062FF70
:101810000A2002F05FFFFC2002F068FF082002F0BF
:1018200059FFDF2002F062FF002002F053FF00208A
:1018300002F050FF002002F04DFF002002F04AFFAE
:10184000002002F047FF202002F044FFF32002F0C6
:101850004DFF742002F03EFFB42002F047FF00204D
:1018600002F038FF002002F035FF002002F032FFC6
:10187000F72002F03BFF822002F02CFFB12002F0A3
:1018800035FF002002F026FF132002F023FF132073
:1018900002F020FFF22002F029FF802002F01AFF60
:1018A000042002F017FF402002F014FF282002F06D
:1018B00011FFC12002F01AFF172002F00BFF882051
:1018C00002F008FF882002F005FF202002F002FF4E
:1018D000E02002F00BFF002002F0FCFE0A2002F0E4
:1018E000F9FE122002F0F6FE102002F0F3FE0E20A8
:1018F00002F0F0FE202002F0EDFECC2002F0EAFE25
:10190000072002F0E7FE062002F0E4FE0B2002F0C2
:10191000E1FE0E2002F0DEFE0F2002F0DBFE0D20C5
:1019200002F0D8FE152002F0D5FE102002F0D2FE03
:10193000002002F0CFFEE12002F0D8FE002002F0ED
:10194000C9FE0B2002F0C6FE132002F0C3FE0D20DC
:1019500002F0C0FE0E2002F0BDFE1B2002F0BAFE17
:10196000712002F0B7FE062002F0B4FE062002F05D
:10197000B1FE0A2002F0AEFE0F2002F0ABFE0E20F8
:1019800002F0A8FE0F2002F0A5FE152002F0A2FE34
:101990000C2002F09FFE002002F09CFE2A2002F0A4
:1019A000A5FE002002F096FE002002F093FE01202A
:1019B00002F090FEDF2002F08DFE2B2002F096FE5A
:1019C000002002F087FE002002F084FE032002F0D7
:1019D00081FE1F2002F07EFE3A2002F087FE552095
:1019E00002F078FE362002F081FE002002F072FE46
:1019F000112002F07BFE7820FFF746FC292002F040
:101A000075FE1420FFF740FC2C2002F06FFE10BD85
:101A100010B5ED2002F06AFE012002F05BFEFE2010
:101A200002F058FEEE2002F061FEDE2002F052FECF
:101A3000212002F04FFEF12002F058FE012002F0BA
:101A400049FEDF2002F052FE102002F043FEC420C7
:101A500002F04CFE8F2002F03DFEC62002F046FE52
:101A6000002002F037FEE22002F034FEE22002F015
:101A700031FEE22002F02EFEBF2002F037FEAA2047
:101A800002F028FEB02002F031FE0D2002F022FE0E
:101A9000002002F01FFE0D2002F01CFE002002F0CC
:101AA00019FE112002F016FE002002F013FE19208C
:101AB00002F010FE002002F00DFE212002F00AFECE
:101AC000002002F007FE2D2002F004FE002002F0AC
:101AD00001FE3D2002F0FEFD002002F0FBFD5D2036
:101AE00002F0F8FD002002F0F5FD5D2002F0F2FDAD
:101AF000002002F0EFFDB12002F0F8FD802002F09E
:101B0000E9FD002002F0E6FD8B2002F0E3FD00205D
:101B100002F0E0FD962002F0DDFD002002F0DAFD8B
:101B2000B22002F0E3FD002002F0D4FD002002F01C
:101B3000D1FD022002F0CEFD002002F0CBFD0320FB
:101B400002F0C8FD002002F0C5FDB32002F0CEFD7A
:101B5000002002F0BFFD002002F0BCFD002002F0DA
:101B6000B9FD002002F0B6FD002002F0B3FD002018
:101B700002F0B0FD002002F0ADFD002002F0AAFD51
:101B8000002002F0A7FD002002F0A4FD002002F0DA
:101B9000A1FD002002F09EFD002002F09BFD002030
:101BA00002F098FD002002F095FD002002F092FD69
:101BB000002002F08FFD002002F08CFD002002F0DA
:101BC00089FD002002F086FD002002F083FD002048
:101BD00002F080FD002002F07DFD002002F07AFD81
:101BE000B42002F083FD8B2002F074FD002002F08F
:101BF00071FD962002F06EFD002002F06BFDA12029
:101C000002F068FD002002F065FDB52002F06EFDD7
:101C1000022002F05FFD002002F05CFD032002F0D4
:101C200059FD002002F056FD042002F053FD002073
:101C300002F050FDB62002F059FD002002F04AFDEE
:101C4000002002F047FDB72002F050FD002002F016
:101C500041FD002002F03EFD3F2002F03BFD002050
:101C600002F038FD5E2002F035FD002002F032FD6A
:101C7000642002F02FFD002002F02CFD8C2002F0E9
:101C800029FD002002F026FDAC2002F023FD0020FB
:101C900002F020FDDC2002F01DFD002002F01AFD04
:101CA000702002F017FD002002F014FD902002F0D9
:101CB00011FD002002F00EFDEB2002F00BFD0020D4
:101CC00002F008FDDC2002F005FD002002F002FD1C
:101CD000B82002F00BFD002002F0FCFC002002F016
:101CE000F9FC002002F0F6FC002002F0F3FC0020DA
:101CF00002F0F0FC002002F0EDFC002002F0EAFC13
:101D0000002002F0E7FCBA2002F0F0FC242002F0F0
:101D1000E1FC002002F0DEFC002002F0DBFC0020F1
:101D200002F0D8FCC12002F0E1FC202002F0D2FC3D
:101D3000002002F0CFFC542002F0CCFC002002F086
:101D4000C9FCFF2002F0C6FC002002F0C3FCC22048
:101D500002F0CCFC0A2002F0BDFC002002F0BAFC2C
:101D6000042002F0B7FC002002F0B4FCC32002F013
:101D7000BDFC3C2002F0AEFC002002F0ABFC3A209F
:101D800002F0A8FC002002F0A5FC392002F0A2FC21
:101D9000002002F09FFC372002F09CFC002002F0A3
:101DA00099FC3C2002F096FC002002F093FC3620C7
:101DB00002F090FC002002F08DFC322002F08AFC40
:101DC000002002F087FC2F2002F084FC002002F0AB
:101DD00081FC2C2002F07EFC002002F07BFC2920FC
:101DE00002F078FC002002F075FC262002F072FC64
:101DF000002002F06FFC242002F06CFC002002F0B6
:101E000069FC242002F066FC002002F063FC232021
:101E100002F060FC002002F05DFC3C2002F05AFC65
:101E2000002002F057FC362002F054FC002002F0A3
:101E300051FC322002F04EFC002002F04BFC2F201F
:101E400002F048FC002002F045FC2C2002F042FC8D
:101E5000002002F03FFC292002F03CFC002002F0B0
:101E600039FC262002F036FC002002F033FC24204E
:101E700002F030FC002002F02DFC242002F02AFCAD
:101E8000002002F027FC232002F024FC002002F0B6
:101E900021FCC42002F02AFC622002F01BFC00207E
:101EA00002F018FC052002F015FC002002F012FCE4
:101EB000842002F00FFC002002F00CFCF02002F065
:101EC00009FC002002F006FC182002F003FC0020B0
:101ED00002F000FCA42002F0FDFB002002F0FAFB5F
:101EE000182002F0F7FB002002F0F4FB502002F073
:101EF000F1FB002002F0EEFB0C2002F0EBFB0020D7
:101F000002F0E8FB172002F0E5FB002002F0E2FB04
:101F1000952002F0DFFB002002F0DCFBF32002F052
:101F2000D9FB002002F0D6FBE62002F0D3FB002014
:101F300002F0D0FBC52002F0D9FB322002F0CAFB30
:101F4000002002F0C7FB442002F0C4FB002002F096
:101F5000C1FB652002F0BEFB002002F0BBFB762037
:101F600002F0B8FB002002F0B5FB882002F0B2FBC3
:101F7000002002F0AFFBC62002F0B8FB202002F0E8
:101F8000A9FB002002F0A6FB172002F0A3FB002013
:101F900002F0A0FB012002F09DFB002002F09AFB62
:101FA000C72002F0A3FB002002F094FB002002F007
:101FB00091FB002002F08EFB002002F08BFBC8207A
:101FC00002F094FB002002F085FB002002F082FB6F
:101FD000002002F07FFB002002F07CFBC92002F011
:101FE00085FB002002F076FB002002F073FB00204E
:101FF00002F070FB002002F06DFB002002F06AFB93
:10200000002002F067FB002002F064FB002002F0D9
:1020100061FB002002F05EFB002002F05BFB002071
:1020200002F058FB002002F055FB002002F052FBAA
:10203000002002F04FFB002002F04CFB002002F0D9
:1020400049FBE02002F052FB162002F043FB002087
:1020500002F040FB1C2002F03DFB002002F03AFBA6
:10206000212002F037FB002002F034FB362002F082
:1020700031FB002002F02EFB462002F02BFB00205B
:1020800002F028FB522002F025FB002002F022FB88
:10209000642002F01FFB002002F01CFB7A2002F0FB
:1020A00019FB002002F016FB8B2002F013FB00202E
:1020B00002F010FB992002F00DFB002002F00AFB59
:1020C000A82002F007FB002002F004FBB92002F078
:1020D00001FB002002F0FEFAC42002F0FBFA00200F
:1020E00002F0F8FACA2002F0F5FA002002F0F2FA43
:1020F000D22002F0EFFA002002F0ECFAD92002F030
:10210000E9FA002002F0E6FAE02002F0E3FA00200B
:1021100002F0E0FAF32002F0DDFA002002F0DAFA31
:10212000E12002F0E3FA162002F0D4FA002002F0D7
:10213000D1FA1C2002F0CEFA002002F0CBFA2220C5
:1021400002F0C8FA002002F0C5FA362002F0C2FA06
:10215000002002F0BFFA452002F0BCFA002002F095
:10216000B9FA522002F0B6FA002002F0B3FA642065
:1021700002F0B0FA002002F0ADFA7A2002F0AAFADA
:10218000002002F0A7FA8B2002F0A4FA002002F04F
:10219000A1FA992002F09EFA002002F09BFAA820F2
:1021A00002F098FA002002F095FAB92002F092FAB3
:1021B000002002F08FFAC42002F08CFA002002F016
:1021C00089FACA2002F086FA002002F083FAD220AF
:1021D00002F080FA002002F07DFAD82002F07AFAAC
:1021E000002002F077FAE02002F074FA002002F0FA
:1021F00071FAF32002F06EFA002002F06BFAE2208E
:1022000002F074FA052002F065FA002002F062FA8A
:102210000B2002F05FFA002002F05CFA1B2002F0B3
:1022200059FA002002F056FA342002F053FA002046
:1022300002F050FA442002F04DFA002002F04AFA6F
:102240004F2002F047FA002002F044FA612002F029
:1022500041FA002002F03EFA792002F03BFA002019
:1022600002F038FA882002F035FA002002F032FA43
:10227000972002F02FFA002002F02CFAA62002F09C
:1022800029FA002002F026FAB72002F023FA0020F3
:1022900002F020FAC22002F01DFA002002F01AFA21
:1022A000C72002F017FA002002F014FAD12002F041
:1022B00011FA002002F00EFAD62002F00BFA0020EC
:1022C00002F008FADD2002F005FA002002F002FA1E
:1022D000F32002F0FFF9002002F0FCF9E32002F005
:1022E00005FA052002F0F6F9002002F0F3F90A20C1
:1022F00002F0F0F9002002F0EDF91C2002F0EAF9FA
:10230000002002F0E7F9332002F0E4F9002002F0A7
:10231000E1F9442002F0DEF9002002F0DBF9502060
:1023200002F0D8F9002002F0D5F9622002F0D2F9CB
:10233000002002F0CFF9782002F0CCF9002002F062
:10234000C9F9882002F0C6F9002002F0C3F99720ED
:1023500002F0C0F9002002F0BDF9A62002F0BAF99F
:10236000002002F0B7F9B72002F0B4F9002002F023
:10237000B1F9C22002F0AEF9002002F0ABF9C7209B
:1023800002F0A8F9002002F0A5F9D12002F0A2F98C
:10239000002002F09FF9D52002F09CF9002002F005
:1023A00099F9DD2002F096F9002002F093F9F3206C
:1023B00002F090F9002002F08DF9E42002F096F985
:1023C000012002F087F9002002F084F9012002F0D8
:1023D00081F9002002F07EF9022002F07BF9002052
:1023E00002F078F92A2002F075F9002002F072F963
:1023F0003C2002F06FF9002002F06CF94B2002F053
:1024000069F9002002F066F95D2002F063F900200E
:1024100002F060F9742002F05DF9002002F05AF930
:10242000842002F057F9002002F054F9932002F0C2
:1024300051F9002002F04EF9A22002F04BF90020E1
:1024400002F048F9B32002F045F9002002F042F909
:10245000BE2002F03FF9002002F03CF9C42002F057
:1024600039F9002002F036F9CD2002F033F90020CE
:1024700002F030F9D32002F02DF9002002F02AF901
:10248000DD2002F027F9002002F024F9F32002F009
:1024900021F9002002F01EF9E52002F027F90020C2
:1024A00002F018F9002002F015F9002002F012F9EC
:1024B000002002F00FF9022002F00CF9002002F0D7
:1024C00009F9292002F006F9002002F003F93C2066
:1024D00002F000F9002002F0FDF84B2002F0FAF8BB
:1024E000002002F0F7F85D2002F0F4F8002002F07E
:1024F000F1F8742002F0EEF8002002F0EBF88420EE
:1025000002F0E8F8002002F0E5F8932002F0E2F88B
:10251000002002F0DFF8A22002F0DCF8002002F038
:10252000D9F8B32002F0D6F8002002F0D3F8BE208C
:1025300002F0D0F8002002F0CDF8C42002F0CAF872
:10254000002002F0C7F8CD2002F0C4F8002002F00D
:10255000C1F8D32002F0BEF8002002F0BBF8DC2066
:1025600002F0B8F8002002F0B5F8F32002F0B2F85B
:10257000002002F0AFF8E62002F0B8F8112002F0D7
:10258000A9F8002002F0A6F8342002F0A3F80020F9
:1025900002F0A0F8562002F09DF8002002F09AF810
:1025A000762002F097F8002002F094F8772002F0ED
:1025B00091F8002002F08EF8662002F08BF80020DF
:1025C00002F088F8882002F085F8002002F082F8F6
:1025D000992002F07FF8002002F07CF8BB2002F086
:1025E00079F8002002F076F8992002F073F80020C4
:1025F00002F070F8662002F06DF8002002F06AF830
:10260000552002F067F8002002F064F8552002F02F
:1026100061F8002002F05EF8452002F05BF800202F
:1026200002F058F8432002F055F8002002F052F86A
:10263000442002F04FF8002002F04CF8E72002F0AE
:1026400055F8322002F046F8002002F043F85520F9
:1026500002F040F8002002F03DF8762002F03AF84F
:10266000002002F037F8662002F034F8002002F073
:1026700031F8672002F02EF8002002F02BF86720D6
:1026800002F028F8002002F025F8872002F022F856
:10269000002002F01FF8992002F01CF8002002F040
:1026A00019F8BB2002F016F8002002F013F8992068
:1026B00002F010F8002002F00DF8772002F00AF87E
:1026C000002002F007F8442002F004F8002002F095
:1026D00001F8562001F0FEFF002001F0FBFF23204F
:1026E00001F0F8FF002001F0F5FF332001F0F2FFC8
:1026F000002001F0EFFF452001F0ECFF002001F089
:10270000E9FFE82001F0F2FF002001F0E3FF0020E4
:1027100001F0E0FF992001F0DDFF002001F0DAFF79
:10272000872001F0D7FF002001F0D4FF882001F0BE
:10273000D1FF002001F0CEFF772001F0CBFF002079
:1027400001F0C8FF662001F0C5FF002001F0C2FFC4
:10275000882001F0BFFF002001F0BCFFAA2001F09B
:10276000B9FF002001F0B6FFBB2001F0B3FF00204D
:1027700001F0B0FF992001F0ADFF002001F0AAFFA9
:10278000662001F0A7FF002001F0A4FF552001F012
:10279000A1FF002001F09EFF552001F09BFF0020CB
:1027A00001F098FF442001F095FF002001F092FF16
:1027B000442001F08FFF002001F08CFF552001F034
:1027C00089FF002001F086FFE92001F08FFFAA2099
:1027D00001F080FF002001F07DFF002001F07AFF72
:1027E000002001F077FF002001F080FFAA2001F017
:1027F00071FFCF2001F07AFF002001F06BFF002075
:1028000001F068FF002001F065FF002001F062FF89
:10281000002001F05FFF002001F05CFF002001F0CC
:1028200059FF002001F056FF002001F053FF002067
:1028300001F050FF002001F04DFF002001F04AFFA1
:10284000002001F047FF002001F044FF002001F0CC
:1028500041FF002001F03EFF002001F03BFFF0208F
:1028600001F044FF002001F035FF502001F032FF5D
:10287000002001F02FFF002001F02CFF002001F0CC
:1028800029FFF32001F032FF002001F023FFF9209F
:1028900001F02CFF062001F01DFF102001F01AFFAF
:1028A000292001F017FF002001F014FF3A2001F069
:1028B0001DFF552001F00EFF112001F017FF6420CD
:1028C000FEF7E2FC292001F011FF352001F00EFF98
:1028D000002001F0FFFE512001F008FFFF2001F071
:1028E000F9FE532001F002FF2C2001F0F3FE5520E9
:1028F00001F0FCFE822001F0EDFE2C2001F0F6FE3E
:1029000010BD10B555214FF4704001F005FFAA210C
:102910004FF2010001F000FF52214FF2020001F0DE
:10292000FBFE08214FF2030001F0F6FE01214FF2F9
:10293000040001F0F1FE0D214FF4304001F0ECFEF7
:102940000D214BF2010001F0E7FE0D214BF20200D8
:1029500001F0E2FE34214FF4364001F0DDFE342177
:102960004BF2016001F0D8FE34214BF2026001F01D
:10297000D3FE0D214FF4314001F0CEFE0D214BF27C
:10298000011001F0C9FE0D214BF2021001F0C4FE4E
:1029900034214FF4374001F0BFFE34214BF2017077
:1029A00001F0BAFE34214BF2027001F0B5FE0021B5
:1029B0004FF4324001F0B0FE00214BF2012001F053
:1029C000ABFE00214BF2022001F0A6FE24214FF4C1
:1029D000384001F0A1FE24214BF6010001F09CFEDD
:1029E00024214BF6020001F097FE01214FF43F40F5
:1029F00001F092FE0F214FF4334001F08DFE0F21C4
:102A00004BF2013001F088FE0F214BF2023001F051
:102A100083FE34214FF4394001F07EFE34214BF621
:102A2000011001F079FE34214BF6021001F074FE22
:102A300008214FF4354001F06FFE08214BF20150A0
:102A400001F06AFE08214BF2025001F065FE0321FD
:102A50004FF4424001F060FE24214FF43A4001F06F
:102A60005BFE24214BF6012001F056FE24214BF69B
:102A7000022001F051FE00214FF43C4001F04CFED9
:102A800078214BF6014001F047FE00214BF6024051
:102A900001F042FE00214FF43D4001F03DFE78215F
:102AA0004BF6015001F038FE00214BF6025001F0C8
:102AB00033FE00214FF43E4001F02EFE64214BF620
:102AC000016001F029FE00214FF4514001F024FE85
:102AD00033214DF2011001F01FFE00214DF20210D2
:102AE00001F01AFE34214DF2031001F015FE002111
:102AF0004DF2041001F010FE3A214DF2051001F0E4
:102B00000BFE00214DF2061001F006FE4A214DF2A7
:102B1000071001F001FE00214DF2081001F0FCFD4C
:102B20005C214DF2091001F0F7FD00214DF20A1071
:102B300001F0F2FD81214DF20B1001F0EDFD0021BD
:102B40004DF20C1001F0E8FDA6214DF20D1001F040
:102B5000E3FD00214DF20E1001F0DEFDE5214DF206
:102B60000F1001F0D9FD01214DF2101001F0D4FD3C
:102B700013214DF2111001F0CFFD01214DF2121081
:102B800001F0CAFD54214DF2131001F0C5FD0121E1
:102B90004DF2141001F0C0FD82214DF2151001F02C
:102BA000BBFD01214DF2161001F0B6FDCA214DF218
:102BB000171001F0B1FD02214DF2181001F0ACFD2B
:102BC00000214DF2191001F0A7FD02214DF21A105B
:102BD00001F0A2FD01214DF21B1001F09DFD02212B
:102BE0004DF21C1001F098FD34214DF21D1001F042
:102BF00093FD02214DF21E1001F08EFD67214DF272
:102C00001F1001F089FD02214DF2201001F084FD1A
:102C100084214DF2211001F07FFD02214DF222109E
:102C200001F07AFDA4214DF2231001F075FD02217F
:102C30004DF2241001F070FDB7214DF2251001F086
:102C40006BFD02214DF2261001F066FDCF214DF201
:102C5000271001F061FD02214DF2281001F05CFD0A
:102C6000DE214DF2291001F057FD02214DF22A100C
:102C700001F052FDF2214DF22B1001F04DFD022129
:102C80004DF22C1001F048FDFE214DF22D1001F007
:102C900043FD03214DF22E1001F03EFD10214DF2B7
:102CA0002F1001F039FD03214DF2301001F034FDF9
:102CB00033214DF2311001F02FFD03214DF232107E
:102CC00001F02AFD6D214DF2331001F025FD0021A8
:102CD0004FF4524001F020FD33214DF2012001F06C
:102CE0001BFD00214DF2022001F016FD34214DF2B2
:102CF000032001F011FD00214DF2042001F00CFD34
:102D00003A214DF2052001F007FD00214DF2062089
:102D100001F002FD4A214DF2072001F0FDFC0021E7
:102D20004DF2082001F0F8FC5C214DF2092001F081
:102D3000F3FC00214DF20A2001F0EEFC81214DF25E
:102D40000B2001F0E9FC00214DF20C2001F0E4FC25
:102D5000A6214DF20D2001F0DFFC00214DF20E20E6
:102D600001F0DAFCE5214DF20F2001F0D5FC012144
:102D70004DF2102001F0D0FC13214DF2112001F092
:102D8000CBFC01214DF2122001F0C6FC54214DF282
:102D9000132001F0C1FC01214DF2142001F0BCFC14
:102DA00082214DF2152001F0B7FC01214DF21620D1
:102DB00001F0B2FCCA214DF2172001F0ADFC022156
:102DC0004DF2182001F0A8FC00214DF2192001F06D
:102DD000A3FC02214DF21A2001F09EFC01214DF2CC
:102DE0001B2001F099FC02214DF21C2001F094FC03
:102DF00034214DF21D2001F08FFC02214DF21E20E6
:102E000001F08AFC67214DF21F2001F085FC0221B0
:102E10004DF2202001F080FC84214DF2212001F0B0
:102E20007BFC02214DF2222001F076FCA4214DF220
:102E3000232001F071FC02214DF2242001F06CFCF2
:102E4000B7214DF2252001F067FC02214DF226202A
:102E500001F062FCCF214DF2272001F05DFC022140
:102E60004DF2282001F058FCDE214DF2292001F01E
:102E700053FC02214DF22A2001F04EFCF2214DF2CA
:102E80002B2001F049FC02214DF22C2001F044FCE2
:102E9000FE214DF22D2001F03FFC03214DF22E20AA
:102EA00001F03AFC10214DF22F2001F035FC0321F6
:102EB0004DF2302001F030FC33214DF2312001F091
:102EC0002BFC03214DF2322001F026FC6D214DF246
:102ED000332001F021FC00214FF4534001F01CFC91
:102EE00033214DF2013001F017FC00214DF2023088
:102EF00001F012FC34214DF2033001F00DFC0021F1
:102F00004DF2043001F008FC3A214DF2053001F099
:102F100003FC00214DF2063001F0FEFB4A214DF288
:102F2000073001F0F9FB00214DF2083001F0F4FB0D
:102F30005C214DF2093001F0EFFB00214DF20A3027
:102F400001F0EAFB81214DF20B3001F0E5FB00219D
:102F50004DF20C3001F0E0FBA6214DF20D3001F0F6
:102F6000DBFB00214DF20E3001F0D6FBE5214DF2E6
:102F70000F3001F0D1FB01214DF2103001F0CCFBFC
:102F800013214DF2113001F0C7FB01214DF2123037
:102F900001F0C2FB54214DF2133001F0BDFB0121C1
:102FA0004DF2143001F0B8FB82214DF2153001F0E2
:102FB000B3FB01214DF2163001F0AEFBCA214DF2F8
:102FC000173001F0A9FB02214DF2183001F0A4FBEB
:102FD00000214DF2193001F09FFB02214DF21A3011
:102FE00001F09AFB01214DF21B3001F095FB02210B
:102FF0004DF21C3001F090FB34214DF21D3001F0F8
:103000008BFB02214DF21E3001F086FB67214DF251
:103010001F3001F081FB02214DF2203001F07CFBDA
:1030200084214DF2213001F077FB02214DF2223054
:1030300001F072FBA4214DF2233001F06DFB02215F
:103040004DF2243001F068FBB7214DF2253001F03C
:1030500063FB02214DF2263001F05EFBCF214DF2E1
:10306000273001F059FB02214DF2283001F054FBCA
:10307000DE214DF2293001F04FFB02214DF22A30C2
:1030800001F04AFBF2214DF22B3001F045FB022109
:103090004DF22C3001F040FBFE214DF22D3001F0BD
:1030A0003BFB03214DF22E3001F036FB10214DF297
:1030B0002F3001F031FB03214DF2303001F02CFBB9
:1030C00033214DF2313001F027FB03214DF2323034
:1030D00001F022FB6D214DF2333001F01DFB002188
:1030E0004FF4544001F018FB33214DF2014001F040
:1030F00013FB00214DF2024001F00EFB34214DF292
:10310000034001F009FB00214DF2044001F004FBF3
:103110003A214DF2054001F0FFFA00214DF2064040
:1031200001F0FAFA4A214DF2074001F0F5FA0021C8
:103130004DF2084001F0F0FA5C214DF2094001F037
:10314000EBFA00214DF20A4001F0E6FA81214DF23E
:103150000B4001F0E1FA00214DF20C4001F0DCFAE5
:10316000A6214DF20D4001F0D7FA00214DF20E409C
:1031700001F0D2FAE5214DF20F4001F0CDFA012124
:103180004DF2104001F0C8FA13214DF2114001F048
:10319000C3FA01214DF2124001F0BEFA54214DF262
:1031A000134001F0B9FA01214DF2144001F0B4FAD4
:1031B00082214DF2154001F0AFFA01214DF2164087
:1031C00001F0AAFACA214DF2174001F0A5FA022136
:1031D0004DF2184001F0A0FA00214DF2194001F023
:1031E0009BFA02214DF21A4001F096FA01214DF2AC
:1031F0001B4001F091FA02214DF21C4001F08CFAC3
:1032000034214DF21D4001F087FA02214DF21E409B
:1032100001F082FA67214DF21F4001F07DFA022190
:103220004DF2204001F078FA84214DF2214001F066
:1032300073FA02214DF2224001F06EFAA4214DF200
:10324000234001F069FA02214DF2244001F064FAB2
:10325000B7214DF2254001F05FFA02214DF22640E0
:1032600001F05AFACF214DF2274001F055FA022120
:103270004DF2284001F050FADE214DF2294001F0D4
:103280004BFA02214DF22A4001F046FAF2214DF2AA
:103290002B4001F041FA02214DF22C4001F03CFAA2
:1032A000FE214DF22D4001F037FA03214DF22E4060
:1032B00001F032FA10214DF22F4001F02DFA0321D6
:1032C0004DF2304001F028FA33214DF2314001F047
:1032D00023FA03214DF2324001F01EFA6D214DF226
:1032E000334001F019FA00214FF4554001F014FA6F
:1032F00033214DF2015001F00FFA00214DF202503E
:1033000001F00AFA34214DF2035001F005FA0021D0
:103310004DF2045001F000FA3A214DF2055001F04F
:10332000FBF900214DF2065001F0F6F94A214DF269
:10333000075001F0F1F900214DF2085001F0ECF9CD
:103340005C214DF2095001F0E7F900214DF20A50DD
:1033500001F0E2F981214DF20B5001F0DDF900217D
:103360004DF20C5001F0D8F9A6214DF20D5001F0AC
:10337000D3F900214DF20E5001F0CEF9E5214DF2C6
:103380000F5001F0C9F901214DF2105001F0C4F9BC
:1033900013214DF2115001F0BFF901214DF21250ED
:1033A00001F0BAF954214DF2135001F0B5F90121A1
:1033B0004DF2145001F0B0F982214DF2155001F098
:1033C000ABF901214DF2165001F0A6F9CA214DF2D8
:1033D000175001F0A1F902214DF2185001F09CF9AB
:1033E00000214DF2195001F097F902214DF21A50C7
:1033F00001F092F901214DF21B5001F08DF90221EB
:103400004DF21C5001F088F934214DF21D5001F0AD
:1034100083F902214DF21E5001F07EF967214DF231
:103420001F5001F079F902214DF2205001F074F99A
:1034300084214DF2215001F06FF902214DF222500A
:1034400001F06AF9A4214DF2235001F065F902213F
:103450004DF2245001F060F9B7214DF2255001F0F2
:103460005BF902214DF2265001F056F9CF214DF2C1
:10347000275001F051F902214DF2285001F04CF98A
:10348000DE214DF2295001F047F902214DF22A5078
:1034900001F042F9F2214DF22B5001F03DF90221E9
:1034A0004DF22C5001F038F9FE214DF22D5001F073
:1034B00033F903214DF22E5001F02EF910214DF277
:1034C0002F5001F029F903214DF2305001F024F979
:1034D00033214DF2315001F01FF903214DF23250EA
:1034E00001F01AF96D214DF2335001F015F9002168
:1034F0004FF4564001F010F933214DF2016001F014
:103500000BF900214DF2026001F006F934214DF271
:10351000036001F001F900214DF2046001F0FCF8B4
:103520003A214DF2056001F0F7F800214DF20660F6
:1035300001F0F2F84A214DF2076001F0EDF80021A8
:103540004DF2086001F0E8F85C214DF2096001F0ED
:10355000E3F800214DF20A6001F0DEF881214DF21E
:103560000B6001F0D9F800214DF20C6001F0D4F8A5
:10357000A6214DF20D6001F0CFF800214DF20E6052
:1035800001F0CAF8E5214DF20F6001F0C5F8012104
:103590004DF2106001F0C0F813214DF2116001F0FE
:1035A000BBF801214DF2126001F0B6F854214DF242
:1035B000136001F0B1F801214DF2146001F0ACF894
:1035C00082214DF2156001F0A7F801214DF216603D
:1035D00001F0A2F8CA214DF2176001F09DF8022116
:1035E0004DF2186001F098F800214DF2196001F0D9
:1035F00093F802214DF21A6001F08EF801214DF28C
:103600001B6001F089F802214DF21C6001F084F882
:1036100034214DF21D6001F07FF802214DF21E6051
:1036200001F07AF867214DF21F6001F075F8022170
:103630004DF2206001F070F884214DF2216001F01C
:103640006BF802214DF2226001F066F8A4214DF2E0
:10365000236001F061F802214DF2246001F05CF872
:10366000B7214DF2256001F057F802214DF2266096
:1036700001F052F8CF214DF2276001F04DF8022100
:103680004DF2286001F048F8DE214DF2296001F08A
:1036900043F802214DF22A6001F03EF8F2214DF28A
:1036A0002B6001F039F802214DF22C6001F034F862
:1036B000FE214DF22D6001F02FF803214DF22E6016
:1036C00001F02AF810214DF22F6001F025F80321B6
:1036D0004DF2306001F020F833214DF2316001F0FD
:1036E0001BF803214DF2326001F016F86D214DF206
:1036F000336001F011F855214FF4704001F00CF8DF
:10370000AA214FF2010001F007F852214FF2020006
:1037100001F002F808214FF2030000F0FDFF002144
:103720004FF2040000F0F8FFCC214FF4314000F0DC
:10373000F3FF00214BF2011000F0EEFF05214FF4E2
:10374000364000F0E9FF70214FF4374000F0E4FF0D
:1037500070214BF2017000F0DFFF01214FF438407F
:1037600000F0DAFF03214BF6010000F0D5FF032142
:103770004BF6020000F0D0FF03214BF6030000F0EF
:10378000CBFF02214FF43C4000F0C6FF00214BF676
:10379000014000F0C1FF00214BF6024000F0BCFFE9
:1037A000D0214FF4494000F0B7FF02214CF6011040
:1037B00000F0B2FF50214CF6021000F0ADFF502196
:1037C0004CF6031000F0A8FF50214CF6041000F056
:1037D000A3FF00214FF4545000F09EFF55214FF4F9
:1037E000685000F099FF4FF4885000F07FFF782078
:1037F000FDF754FD4FF4245000F078FF10BD10B5D4
:10380000E22000F073FF1D2000F064FF022000F0B2
:1038100061FF042000F05EFF6420FDF73FFDE02023
:1038200000F064FF012000F055FF0A20FDF72CFD99
:10383000E02000F05BFF032000F04CFF0C20FDF7C0
:1038400023FD012000F052FF0A20FDF71DFDE620B8
:1038500000F04CFF2F2000F03DFFFF2000F03AFF6A
:10386000FF2000F037FFB02000F040FF202000F0E4
:1038700031FF002000F02EFF032000F02BFF40F26C
:103880001F3000F027FF012000F024FF40F2DF107E
:1038900000F020FF002000F01DFFB42000F026FF04
:1038A000042000F017FF40F21F4000F013FF00203B
:1038B00000F010FF2E2000F00DFF002000F00AFFA6
:1038C000002000F007FF002000F004FF002000F0BF
:1038D00001FFB62000F00AFF022000F0FBFE4FF4CB
:1038E000037000F0F7FE002000F0F4FE172000F057
:1038F000F1FE152000F0EEFE002000F0EBFE0020AF
:1039000000F0E8FEF02000F0F1FE032000F0E2FEFF
:10391000292000F0EBFED02000F0E8FE002000F0AF
:10392000D9FEBE2000F0E2FE052000F0D3FEFE200E
:1039300000F0D0FE012000F0CDFE002000F0CAFE15
:10394000002000F0C7FE002000F0C4FEB82000F008
:10395000CDFE032000F0BEFE012000F0BBFEBA2029
:1039600000F0C4FE012000F0B5FE10BD10B511201E
:1039700000F0BCFE7820FDF787FC362000F0B6FE94
:10398000002000F0A7FE3A2000F0B0FE052000F075
:10399000A1FEB22000F0AAFE0C2000F09BFE0C203D
:1039A00000F098FE002000F095FE332000F092FE1B
:1039B000332000F08FFEB72000F098FE352000F095
:1039C00089FEBB2000F092FE322000F083FEC02072
:1039D00000F08CFE0C2000F07DFEC22000F086FE80
:1039E000012000F077FEC32000F080FE102000F0E0
:1039F00071FEC42000F07AFE202000F06BFEC6208D
:103A000000F074FE0F2000F065FED02000F06EFE86
:103A1000A42000F05FFEA12000F05CFEE02000F09A
:103A200065FED02000F056FE002000F053FE02207C
:103A300000F050FE072000F04DFE0A2000F04AFE84
:103A4000282000F047FE322000F044FE442000F021
:103A500041FE422000F03EFE062000F03BFE0E201C
:103A600000F038FE122000F035FE142000F032FE87
:103A7000172000F02FFEE12000F038FED02000F0EB
:103A800029FE002000F026FE022000F023FE072081
:103A900000F020FE0A2000F01DFE282000F01AFE93
:103AA000312000F017FE542000F014FE472000F0F3
:103AB00011FE0E2000F00EFE1C2000F00BFE172061
:103AC00000F008FE1B2000F005FE1E2000F002FEA4
:103AD0002A2000F00BFE002000F0FCFD002000F08A
:103AE000F9FD002000F0F6FDEF2000F0F3FD2B20A3
:103AF00000F0FCFD002000F0EDFD002000F0EAFDEC
:103B0000012000F0E7FD3F2000F0E4FD292000F057
:103B1000EDFD10BD10B5112000F0E8FD7820FDF797
:103B2000B3FB362000F0E2FD482000F0D3FD3A2040
:103B300000F0DCFD552000F0CDFDF02000F0D6FDBA
:103B4000C32000F0C7FDF02000F0D0FD962000F06B
:103B5000C1FDB42000F0CAFD012000F0BBFDB6207D
:103B600000F0C4FD0A2000F0B5FDA22000F0B2FD77
:103B7000B72000F0BBFDC62000F0ACFDB92000F07E
:103B8000B5FD022000F0A6FDE02000F0A3FDC0205E
:103B900000F0ACFD802000F09DFD162000F09AFDA5
:103BA000C12000F0A3FD192000F094FDC22000F018
:103BB0009DFDA72000F08EFDC52000F097FD16208A
:103BC00000F088FDE82000F091FD402000F082FD2B
:103BD0008A2000F07FFD002000F07CFD002000F036
:103BE00079FD292000F076FD192000F073FDA52055
:103BF00000F070FD332000F06DFDE02000F076FD58
:103C0000F02000F067FD072000F064FD0D2000F0BB
:103C100061FD042000F05EFD052000F05BFD142036
:103C200000F058FD362000F055FD542000F052FD04
:103C30004C2000F04FFD382000F04CFD132000F028
:103C400049FD142000F046FD2E2000F043FD3420F5
:103C500000F040FDE12000F049FDF02000F03AFDC9
:103C6000102000F037FD142000F034FD0E2000F08D
:103C700031FD0C2000F02EFD082000F02BFD35203A
:103C800000F028FD442000F025FD4C2000F022FD2E
:103C9000262000F01FFD102000F01CFD122000F077
:103CA00019FD2C2000F016FD322000F013FDF0204D
:103CB00000F01CFD3C2000F00DFDF02000F016FD92
:103CC000692000F007FD7820FDF7DEFA212000F0E2
:103CD0000DFD292000F00AFD10BD000000B595B0D3
:103CE00000BF00BF00200190F848006840F00800C5
:103CF000F64908600846006800F00800019000BF1F
:103D000000BF00BF00BF00BF002001900846006850
:103D100040F0080008600846006800F008000190C4
:103D200000BF00BF00BF00BF00BF002001900846D9
:103D3000006840F0080008600846006800F00800CD
:103D4000019000BF00BF00BF00BF00BF0020019076
:103D50000846006840F0080008600846006800F067
:103D60000800019000BF00BF00BF00BF00BF0020DF
:103D700001900846006840F00200086008460068AC
:103D800000F00200019000BF00BF00BF8020109033
:103D900002201190012012900220139010A9CC480B
:103DA000FCF7C4FB2020109010A9C948FCF7BEFB0B
:103DB0001020109010A9C648FCF7B8FB4FF4006023
:103DC000109010A9C248FCF7B1FB0120109011908F
:103DD00010A9C048FCF7AAFB4FF02040BE4908607C
:103DE000BE484860002088600021BB48C1601021A7
:103DF000416100218161C16141624FF48051816262
:103E00000021C1624FF4804101630021416381635D
:103E10000120099000200A9023200B9000200F9091
:103E200001200290002003900220049000200890BE
:103E300002AA09A9A848FDF7ADF83220FDF724FA37
:103E4000D32000F053FC00F085F9A549888000F0EC
:103E500081F9A349888000F07DF9A149888008464E
:103E600080884FF6FF7101EA00209D49888000F0AC
:103E700071F99B4989880843994988800846808858
:103E800049F2413188427CD0042000F02FFC00F040
:103E900061F99349888000F05DF99149888000F0CC
:103EA00059F98F498880084680884FF6FF7101EAEA
:103EB00000208B49888000F04DF9894989880843A2
:103EC000874988800846808848F25251884203D149
:103ED00047F28970824988808148808847F28971D9
:103EE0008842D0D0D42000F001FC00F033F97C49A6
:103EF000888000F02FF97A49888000F02BF9784902
:103F00008880084680884FF6FF7101EA00207449D6
:103F1000888000F01FF972498988084370498880B9
:103F20000846808845F210318842ACD0D32000F09A
:103F3000DDFB00F00FF96A49888000F00BF9684951
:103F4000888000F007F966498880084680884FF627
:103F5000FF7101EA00206249888000F0FBF86049A7
:103F6000898808435E4988800846808847F29671B0
:103F7000884288D055214FF4704000F0CDFBAA2133
:103F800000E07EE04FF2010000F0C6FB52214FF24C
:103F9000020000F0C1FB08214FF2030000F0BCFB5F
:103FA00001214FF2040000F0B7FB4FF4454000F050
:103FB0009DFB00F0CFF84A498880084680884FF67C
:103FC000FF7101EA0020464988804CF2015000F060
:103FD0008DFB00F0BFF8424989880843404988803A
:103FE0000520FDF751F93E48808845F2105188427E
:103FF00047D0D32000F07AFB00F0ACF83849888035
:1040000000F0A8F83649888000F0A4F83449888088
:10401000084680884FF6FF7101EA00203049888009
:1040200000F098F82E49898808432D498880084671
:10403000808849F60601884223D0A12000F056FB73
:1040400000F088F82649888000F084F824498880A8
:10405000084680884FF6FF7101EA002020498880D9
:1040600000F078F81E49898808431D498880084671
:10407000808845F26171884203D141F66310184986
:1040800088801748808847F28971884202D1FFF7FB
:104090006DFC44E01248808849F24131884202D1E7
:1040A000FDF700FA3BE00E48808845F21031884267
:1040B00002D1FDF7ADFC32E00948808847F29671E5
:1040C00088420FD1FFF726FD29E00000303802407A
:1040D000000C0240000402401C000020040100A06B
:1040E0006C0000201648808845F21051884202D1A9
:1040F000FEF707FC13E01248808849F60601884263
:1041000002D1FDF7E5FA0AE00D48808841F6631117
:10411000884204D1FFF773FB642000F0ABFA002063
:10412000FDF7FAF800BF012211460648FCF7F8FA3D
:1041300000BF4FF6FF70FDF7D5F815B000BD0000C9
:104140006C0000200004024000BF011EA0F101002D
:10415000FBD1704708B50220FFF7F6FF0248008840
:104160000090BDF8000008BD00000260F0B50546F3
:10417000002400278B488079012805D18948808850
:1041800041F66311884208D186488079F0B98548A4
:10419000808841F66311884218D1082D15D2DFE8D6
:1041A00005F00406080A0C0E101206250DE007257E
:1041B0000BE0042509E0052507E0012505E00025C1
:1041C00003E0032501E0022500BF00BF082D1CD23B
:1041D000DFE805F00406090C0F12151800BF14E003
:1041E00044F0800411E044F040040EE044F0C004C8
:1041F0000BE044F0200408E044F0600405E044F0E3
:10420000A00402E044F0E00400BF00BF3627654888
:10421000808845F21051884200D13F026148808871
:1042200049F2413188420BD05E48808847F289715B
:10423000884205D05B48808847F29671884201D158
:1042400044F008042146384600F066FA5548808854
:1042500041F6631188421DD004F0200068B1514836
:10426000008850494988884214DA4E4806884088B8
:104270004C490880084646800CE04A480088494975
:104280004988884206DD47480688408845490880B5
:10429000084646804348808845F21051884252D1F2
:1042A0004049488900F022FA002000F013FA3D4905
:1042B0004989491C88B200F019FA002000F00AFA76
:1042C00038494989891C88B200F010FA35490988B3
:1042D000491EC1F30F2000F0FDF932494989C91C7C
:1042E00088B200F003FA2F490978491EC8B200F0DD
:1042F000F1F92C49888900F0F9F9002000F0EAF979
:1043000028498989491C88B200F0F0F9002000F0A2
:10431000E1F924498989891C88B200F0E7F921492B
:104320004988491EC1F30F2000F0D4F91D4989893D
:10433000C91C88B200F0DAF91A498978491EC8B256
:1043400000F0C8F92DE01749488900F0CFF90020A6
:1043500000F0C0F9002000F0BDF912490988491E9B
:10436000C1F30F2000F0B6F90E490978491EC8B212
:1043700000F0B0F90B49888900F0B8F9002000F08E
:10438000A9F9002000F0A6F906494988491EC1F3A1
:104390000F2000F09FF903498978491EC8B200F048
:1043A00099F9F0BD6C00002010B502460C46454856
:1043B000808841F66311884247D142488079A8B984
:1043C00040480088401E801A82B23E49488900F069
:1043D0008DF9002000F07EF9002000F07BF910122A
:1043E00000F078F9D0B200F075F916E03549488947
:1043F00000F07CF9101200F06DF9D0B200F06AF90B
:1044000030490988491EC1F30F2000F063F92D4996
:104410000978491EC8B200F05DF92A49888900F080
:1044200065F9201200F056F9E0B200F053F9254981
:104430004988491EC1F30F2000F04CF921498978C1
:10444000491EC8B200F046F93AE01E48808845F29D
:104450001051884220D11B49488900F047F91012B9
:1044600000F038F917494989491C88B200F03EF933
:10447000D0B200F02FF91349888900F037F92012E3
:1044800000F028F90F498989491C88B200F02EF9FB
:10449000E0B200F01FF913E00A49488900F026F95C
:1044A000101200F017F9D0B200F014F9054988890C
:1044B00000F01CF9201200F00DF9E0B200F00AF94A
:1044C00010BD00006C0000202DE9FC4F80460E4618
:1044D00015461C46B3460020019000902046E31785
:1044E00004EB5373DB1021464FEAE47C04EB5C7C65
:1044F0004FEAEC0CA4EBCC0CBCF1000F02D04FF057
:10450000010C01E04FF0000C6344224604EBD27C26
:104510004FEA6C0C03FB0CF3DBB20193A5F1200016
:10452000C5B20C2C06D0102C0BD0182C0ED0202C81
:1045300018D112E005EB45002D4901EB80000090F9
:1045400012E02C4800EB051000900DE005EBC500D3
:10455000294901EB8000009006E0284800EB851017
:10456000009001E0BDE8FC8F00BF00273AE0009812
:1045700010F807904FF0000A2EE009F0800028B1F3
:10458000314640460C9AFCF77DFF07E00B9828B9AE
:104590001B48314602684046FCF774FF4FEA496009
:1045A0004FEA1069701C86B216484088B04200DCA1
:1045B000D8E7A6EB0B00A0420AD15E4608F1010045
:1045C0001FFA80F80F480088404500DCCAE706E083
:1045D0000AF1010000F0FF0ABAF1080FCDDB00BFBD
:1045E000781CC7B201988742C1DB00BFBAE7000060
:1045F0001A4B00088E4F00087E550008DA6200084A
:10460000140000206C0000202DE9FC4F04460D46EC
:1046100090469946DDE90C7A0B9E04F0FF0B08EBFF
:1046200004001FFA80F809EB05001FFA80F917E073
:10463000444502DB5C46A81985B24D4500DB15E018
:104640000020CDE9000A3A78334629462046FFF794
:104650003BFF304606EBD07104EB61018CB27F1C4E
:1046600038787E2802DC38782028E1DA00BFBDE8FF
:10467000FC8F000070B52DED048B0446BE2000F0C9
:1046800035F8052000F026F8204600F024F941EC2A
:10469000190B9FED0E0B53EC102B00F02FF941EC92
:1046A000180B00F0EBF885B2284600F013F8012053
:1046B00000F010F8FF2000F00DF8002000F00AF8DC
:1046C000002000F007F8BDEC048B70BD66666666DE
:1046D0006666044001B5BDF800000090BDF800001A
:1046E0000149088008BD00000000026001B5BDF866
:1046F00000000090BDF800000149088008BD0000DE
:10470000FEFF0160024800890249088070470000EE
:104710006C000020FEFF0160024A1080921C118094
:1047200070470000FEFF016086B00024FCF710F81F
:10473000FCF720FDFCF7CAFCA820FCF79FFDFFF763
:10474000CDFA4FF478404349086081E00C2C41D207
:10475000DFE804F0060B0F13181D22272C31363B1F
:104760004FF6FF70FCF7BEFD34E00020FCF7BAFD09
:1047700030E01F20FCF7B6FD2CE04FF47840FCF74A
:10478000B1FD27E04FF61F00FCF7ACFD22E04FF42F
:10479000FC60FCF7A7FD1DE040F2FF70FCF7A2FDF6
:1047A00018E04FF6E070FCF79DFD13E04FF6074070
:1047B000FCF798FD0EE048F23040FCF793FD09E06D
:1047C0004CF21860FCF78EFD04E04BF64040FCF71D
:1047D00089FD00BF00BF4FF478401FA1202213467F
:1047E000CDE900210290F02228210A20FFF70CFFDA
:1047F0004FF478401AA118221346CDE90021029007
:10480000F02250210A20FFF7FFFE4FF4784017A155
:1048100010221346CDE900210290F0226E210A20D9
:10482000FFF7F2FE4FF4784003A910221346CDE9BA
:1048300000210290F02282210A20FFF7E5FE601C91
:10484000C4B20C2C00D100244FF47A70FCF71CFD8C
:104850007CE700001000002053544D33320000006C
:104860005446544C434420544553540041544F4DF6
:1048700040414C49454E54454B0000004FEA11530E
:10488000A3F58063D3F11E03A8BFD3F1200C08DB8E
:104890004FF0004242EAC12252EA505232FA03F08B
:1048A000704709420BD4102BC4BF0020704703F59A
:1048B000787CBCF1FF3F05D04FF0FF3070474FF0E0
:1048C0000000704770B500F0C3F800BF4992248023
:1048D00000207047F0E7B0FA80F310FA03F10AD035
:1048E000C3F11D0303F580634FEA41504FEA0352C1
:1048F00002EBD12170474FF000007047DFF848C14C
:1049000070B51CEA111E1EBF1CEA13159EEA0C0F9F
:1049100095EA0C0F00F06F8081EA030423EA4C1340
:104920004EEAD47E21EA4C1141F4801143F4801305
:10493000AE44A1FB024CA0FB0365AEF17F7E3619AD
:1049400055EB0C05A1FB034C4CF10003A0FB021C32
:1049500016EB0C06654153F10003094218BF46F0FF
:10496000010613F4007F0BD14FEA03314FEA053003
:10497000340341EA155140EA16506FF003020AE091
:104980004FEAC3214FEAC520F40241EA555140EAFB
:1049900056506FF0020202EB2E4201EB025585EAFF
:1049A000CE710AD05FEA440C18BF24F0004450F1E5
:1049B000000041F1000120EAD47040F2FE7C624523
:1049C00000D270BDA84214BF4FF080444FF0404465
:1049D000002E08BF0024BEF1806FA8BFA1F1C04126
:1049E000BDE8704080F282804FF0000001F1C041CC
:1049F00001F0004170479EEA0C0F0CEA131518BF36
:104A000095EA0C0F06D04FF0000081EA030E0EF07D
:104A1000004170BD00F01CF88900013E00F007B8AD
:104A200000F009B84FEA430C5FEA5C5C08D081EA09
:104A3000030100F05BB84FEA410C5FEA5C5CF6D121
:104A40004FF00000014970470000FF070000F87FA9
:104A50000EF1020E2EF0030E5EF8046B364205D402
:104A6000012A43EB030515F5001F12D8012841EB7D
:104A7000010C1CF5001F0CD80ED14FEAD17C15F5A6
:104A8000001F0CEB4C0C0CF1020C08BF4CEBD37C60
:104A900004E04FF0080C01E04FEAD37C0CEB4C052E
:104AA00026FA05F606F00706B6F1040C06D20EEB60
:104AB000860CBDE870404CF0010C6047DFE80CF05C
:104AC000090B02024FF000414FF00000A1F5002158
:104AD00070BD19461046012851EB010418BFD4F5EA
:104AE000001484BF002001F0004170BD0808A0F54B
:104AF00000114FEA310170474FF04070E1EE100AAB
:104B000070470000000000000000010203040607D7
:104B1000080900000000010203040000000000007A
:104B2000000000000000000000003F400000000006
:104B3000000000003000400030004000000009008C
:104B40000BC03D000BC03D00090018C024407FE0B1
:104B5000224031800000180024C01B000D8032402C
:104B6000018003801C4027401C800740004010004B
:104B700060000000000000000000000000000000D5
:104B80001F80204040200000402020401F80000067
:104B90000000090006001F80060009000000040054
:104BA00004003F80040004000000001000600000CA
:104BB00000000000000004000400040004000400E1
:104BC0000000000000400000000000000000002085
:104BD00001C006003800400000001F802040204037
:104BE00020401F800000000010403FC00040000037
:104BF000000018C0214022402440184000001080CE
:104C00002040244024401B80000002000D001100C1
:104C10003FC0014000003C802440244024402380C9
:104C200000001F80244024403440038000003000F6
:104C3000200027C03800200000001B8024402440B2
:104C400024401B8000001C0022C0224022401F8004
:104C5000000000000000084000000000000000000C
:104C600000000460000000000000000004000A00D2
:104C700011002080404009000900090009000900D6
:104C8000000000004040208011000A0004001800CD
:104C9000200023402400180000001F8020402740EF
:104CA00029401F400000004007C039000F0001C02C
:104CB000004020403FC0244024401B8000001F8053
:104CC0002040204020403080000020403FC0204055
:104CD00020401F80000020403FC024402E4030C0B4
:104CE000000020403FC024402E00300000000F0094
:104CF0001080204022403380020020403FC004004A
:104D000004003FC02040204020403FC020402040C1
:104D100000000060202020203FC020002000204014
:104D20003FC024400B0030C0204020403FC0204006
:104D30000040004000C03FC03C0003C03C003FC0FA
:104D4000000020403FC00C4023003FC020001F80D7
:104D50002040204020401F80000020403FC02440D1
:104D60002400180000001F802140214020E01FA0E7
:104D7000000020403FC02440260019C0004018C059
:104D800024402440224031800000300020403FC0B9
:104D900020403000000020003F80004000403F8065
:104DA000200020003E0001C007003800200038002D
:104DB00007C03C0007C038000000204039C0060092
:104DC00039C0204000002000384007C03840200093
:104DD0000000304021C02640384020C000000000C4
:104DE00000007FE0402040200000000070000C0028
:104DF0000380004000000000402040207FE00000D1
:104E00000000000020004000200000000000001012
:104E10000010001000100010001000000000400002
:104E2000000000000000000002800540054003C0B3
:104E3000004020003FC00440044003800000000008
:104E4000038004400440064000000000038004404A
:104E500024403FC00040000003800540054003405F
:104E60000000000004401FC0244024402000000037
:104E700002E0055005500650042020403FC0044089
:104E8000040003C000400000044027C000400000B0
:104E9000000000100010041027E000000000204077
:104EA0003FC00140070004C00440204020403FC0F4
:104EB00000400040000007C0040007C0040003C019
:104EC0000000044007C00440040003C0004000008C
:104ED00003800440044003800000041007F00450E5
:104EE000044003800000000003800440045007F0E9
:104EF0000010044007C0024004000400000000004D
:104F000006400540054004C00000000004001F806A
:104F1000044000400000040007800040044007C037
:104F200000400400070004C00180060004000600E1
:104F300001C0070001C006000000044006C00100D7
:104F400006C0044000000410071004E001800600C1
:104F500004000000044005C00640044000000000BA
:104F6000000004007BE04020000000000000000082
:104F7000FFF000000000000040207BE00400000083
:104F800000004000800040002000200040000000A1
:104F90000000000000000000000000000000000011
:104FA000000000001FCC000C00000000000000000A
:104FB000080030006000080030006000000002209F
:104FC00003FC1E20022003FC1E2002200000000023
:104FD0000E1811043FFF10840C78000000000F0031
:104FE00010840F3800C0077818840078000000781B
:104FF0000F8410C411240E9800E4008400080800F7
:1050000068007000000000000000000000000000C8
:105010000000000007E01818200440020000000013
:1050200040022004181807E00000000000000240C1
:10503000024001800FF00180024002400000008029
:10504000008000800FF800800080008000000001D8
:10505000000D000E00000000000000000000000035
:1050600000800080008000800080008000800000C0
:10507000000C000C00000000000000000000000018
:1050800000060018006001800600180020000000E3
:1050900007F0080810041004080807F000000000DA
:1050A000080408041FFC00040004000000000000C5
:1050B0000E0C10141024104411840E0C000000007B
:1050C0000C1810041104110412880C700000000068
:1050D00000E00320042408241FFC0024000000003A
:1050E0001F98108411041104108810700000000033
:1050F00007F00888110411041888007000000000EF
:105100001C00100010FC13001C0010000000000028
:105110000E3811441084108411440E380000000031
:105120000700088C10441044088807F000000000B5
:1051300000000000030C030C000000000000000051
:105140000000000101060000000000000000000057
:105150000080014002200410080810040000022012
:105160000220022002200220022002200000000073
:105170001004080804100220014000800000000014
:105180000E001200100C106C10800F00000003E0E5
:105190000C1813E4142417C4082807D000000004D6
:1051A000003C03C41C40074000E4001C0004100441
:1051B0001FFC1104110411040E880070000003E0AC
:1051C0000C1810041004100410081C100000100427
:1051D0001FFC100410041004080807F0000010045D
:1051E0001FFC1104110417C4100408180000100457
:1051F0001FFC1104110017C010000800000003E09C
:105200000C181004100410441C7800400000100416
:105210001FFC10840080008010841FFC100400001C
:10522000100410041FFC1004100400000000000310
:105230000001100110011FFE1000100000001004FA
:105240001FFC110403801464181C100400001004D7
:105250001FFC1004000400040004000C00001004F3
:105260001FFC1F0000FC1F001FFC100400001004A6
:105270001FFC0C04030000E010181FFC100007F0D6
:105280000808100410041004080807F000001004B7
:105290001FFC10841080108010800F00000007F0A9
:1052A000081810241024101C080A07F2000010042B
:1052B0001FFC1104110011C011300E0C000400007D
:1052C0000E1C11041084108410441C3800001800B7
:1052D000100010041FFC1004100018000000100043
:1052E0001FF810040004000410041FF81000100040
:1052F0001E0011E0001C007013801C0010001FC075
:10530000103C00E01F0000E0103C1FC00000100433
:10531000180C163401C001C01634180C100410000B
:105320001C00130400FC13041C00100000000804FF
:10533000101C1064108413041C04101800000000DA
:10534000000000007FFE400240024002000000001A
:1053500030000C0003800060001C0003000000000F
:105360004002400240027FFE0000000000000000FA
:10537000000020004000400040002000000000012C
:105380000001000100010001000100010001000016
:10539000400040002000000000000000000000006D
:1053A0000098012401440144014400FC0004100061
:1053B0001FFC008801040104008800700000000048
:1053C000007000880104010401040088000000004E
:1053D000007000880104010411081FFC0004000093
:1053E00000F8014401440144014400C800000000E9
:1053F000010401040FFC1104110411001800000045
:1054000000D601290129012901C901060000100463
:105410001FFC008401000100010400FC00040000E6
:105420000104190419FC000400040000000000003D
:10543000000300010101190119FE00000000100421
:105440001FFC0024004001B4010C01040000000016
:10545000100410041FFC00040004000000000104FC
:1054600001FC0104010001FC0104010000FC010435
:1054700001FC008401000100010400FC00040000A4
:1054800000F8010401040104010400F80000010116
:1054900001FF008501040104008800700000000085
:1054A0000070008801040104010501FF00010104EE
:1054B000010401FC008401040100018000000000DF
:1054C00000CC0124012401240124019800000000E3
:1054D0000100010007F801040104000000000100C0
:1054E00001F8000400040004010801FC00040100AC
:1054F00001800170000C001001600180010001F0CA
:10550000010C003001C00030010C01F0010000006E
:105510000104018C00740170018C01040000010180
:1055200001810171000E001801600180010000007E
:105530000184010C013401440184010C00000000CD
:1055400000000000000001003EFC4002400200009C
:10555000000000000000FFFF00000000000000004D
:10556000400240023EFC010000000000000000007C
:10557000600080008000400040002000200000000B
:10558000000000000000000000000000000000001B
:10559000000000000000000000000000000000000B
:1055A00000000000000000000000000000000000FB
:1055B000000F80380FFE380F803800000000000018
:1055C00000000000000000000000000001000006D4
:1055D00000000C00003800003100000600000C0044
:1055E0000038000030000000000000000000618072
:1055F0000067F807F9800061800061800061800029
:1056000061800067F807F9800061800000000000F9
:105610000000000001C0E003E0F0063008041808B4
:105620001FFFFE040E080787F00381E00000000062
:10563000000001F000060C00040408060C7001F9DB
:10564000C0000E00003BE000EC18070808040C182E
:105650000003E00000000001E00007F003F8180478
:105660001C0804170807E1D003C0E00023B0003C89
:1056700008002008000010000000000000010000E9
:105680003100003200001C0000000000000000009B
:10569000000000000000000000000000000000000A
:1056A00000000000000000000000000000007F007B
:1056B00001FFC00780F00C00181000042000020059
:1056C00000000000002000021000040C00180780F9
:1056D000F001FFC0007F000000000000000000009B
:1056E0000000000000000000000042000066000012
:1056F0006600003C0000180003FFC0001800003CDA
:105700000000660000660000420000000000080083
:1057100000080000080000080000080001FFC000A9
:105720000800000800000800000800000800000051
:105730000000000100003100003200001C000000E9
:105740000000000000000000000000000000000059
:105750000000000000000800000800000800000829
:105760000000080000080000080000080000080011
:1057700000080000000000000000000000003800E9
:1057800000380000380000000000000000000000A9
:105790000000000000000000000000000000000603
:1057A00000001C000070000180000E0000380000A6
:1057B000C0000700001C00003000000000000000D6
:1057C00000007F8001FFE0038070060018040008DD
:1057D00004000806001803807001FFE0007F8000CD
:1057E00000000000000000000100080100080100A6
:1057F0000803FFF807FFF800000800000800000891
:1058000000000000000000000001C03802C0580481
:105810000098040118040218040418061C1803F860
:105820001801E0F800000000000000000001C0E0E6
:1058300003C0F00400080408080408080618080358
:10584000F41801E7F00001E0000000000000000093
:1058500000000300000D000011000061000081083D
:1058600003010807FFF80FFFF80001080001080016
:1058700000000000000000E007FCD0060808061049
:1058800008061008061008061838060FF00607C0AC
:10589000000000000000000000003F8001FFE00366
:1058A00084300208180410080410080410080718AF
:1058B00010030FF00007C00000000000000000000F
:1058C00003C0000700000600000600F80607F806FF
:1058D000180006E0000700000600000000000000BD
:1058E0000001E1E003F7F00634100418080418087A
:1058F000040C08040C0806161803F3F001C1E000BC
:10590000000000000000F80003FC30030638040229
:10591000080402080402080404100308F001FFC090
:10592000007F0000000000000000000000000000F8
:10593000000000000000703800703800703800006F
:105940000000000000000000000000000000000057
:1059500000000000000000000000301A00301C00B1
:105960000000000000000000000000000000000037
:1059700000000000000800001400002200004100A8
:105980000080800100400200200400100800080090
:105990000000000000002100002100002100002183
:1059A0000000210000210000210000210000210052
:1059B00000210000000000000000000008000804B2
:1059C0000010020020010040008080004100002201
:1059D0000000140000080000000000000003C000E8
:1059E00004C000040000080038080F380808380810
:1059F00010000C300007E00003C0000000000000B1
:105A000000003F8000FFE0038070020F10067088E6
:105A100004C088048308047F8802C090030120002A
:105A2000FE400000080000180001F8003E0801C216
:105A30000007020007E20000FE00001FC80001F896
:105A400000003800000804000807FFF807FFF8040A
:105A5000080804080804080804080806180803F4DD
:105A60001801E7F00001E0000000000000003F80A6
:105A700001FFE0038070020018040008040008041D
:105A800000080400100600200780C0000000040089
:105A90000807FFF807FFF8040008040008040008DE
:105AA00004001802001003807001FFE0007F8000F6
:105AB000000004000807FFF807FFF80408080408BE
:105AC00008040808040808043E0804000806001832
:105AD00001006000000004000807FFF807FFF80459
