:020000040800F2
:10000000E843012089020008C726000833250008BC
:10001000C5260008571600088127000800000000C8
:10002000000000000000000000000000CB260008D7
:100030003317000800000000C9260008CD2600087C
:10004000A3020008A3020008A3020008A3020008FC
:10005000A3020008A3020008A3020008A3020008EC
:10006000A3020008A3020008A3020008A3020008DC
:10007000A3020008A3020008A3020008A3020008CC
:10008000A3020008A3020008A3020008A3020008BC
:10009000A3020008A3020008A3020008A3020008AC
:1000A000A3020008A3020008A3020008A30200089C
:1000B000A3020008A3020008A3020008A30200088C
:1000C000A3020008A3020008A3020008A30200087C
:1000D000A3020008A3020008A3020008A30200086C
:1000E000A3020008A3020008A3020008A30200085C
:1000F000A3020008A3020008A3020008A30200084C
:10010000A3020008A3020008A3020008A30200083B
:10011000A3020008A3020008A3020008A30200082B
:1001200059160008A3020008A3020008A302000851
:10013000A3020008A3020008A3020008A30200080B
:10014000A3020008A3020008A3020008A3020008FB
:10015000A3020008A3020008A3020008A3020008EB
:10016000A3020008A3020008A3020008A3020008DB
:10017000A3020008A3020008A30200080000000078
:10018000A3020008A302000800F002F800F06CF8D7
:100190000AA090E8000C82448344AAF10107DA45E2
:1001A00001D100F061F8AFF2090EBAE80F0013F0C8
:1001B000010F18BFFB1A43F0010318477CEE030040
:1001C0009CEE03000A444FF0000C10F8013B13F0C2
:1001D000070408BF10F8014B1D1108BF10F8015BA0
:1001E000641E05D010F8016B641E01F8016BF9D193
:1001F00013F0080F1EBF10F8014BAD1C0C1B09D1EA
:100200006D1E58BF01F801CBFAD505E014F8016B5B
:1002100001F8016B6D1EF9D59142D6D370470000ED
:100220000023002400250026103A28BF78C1FBD8FF
:10023000520728BF30C148BF0B60704766292CF0B9
:100240009E81642900F0CC80002070471FB52CF0FF
:1002500091F900F003FD0400002000212BF026FF9F
:10026000E0601FBD10B510BD00F0F8FD1146FFF7AE
:10027000EDFF25F047FA00F016FE03B4FFF7F2FF9A
:1002800003BC00F019FE00000948804709480047F8
:10029000FEE7FEE7FEE7FEE7FEE7FEE7FEE7FEE736
:1002A000FEE7FEE704480549054A064B7047000093
:1002B0007127000889010008E82B0120E84301208C
:1002C000E8330120E833012053EA020C00F0698092
:1002D0002DE9F04B4FF00006002B1FBFB3FA83F55A
:1002E00003FA05F424FA05F65E4012BF1643B2FA8B
:1002F00082F502FA05F4C5F120051EBF22FA05FCBD
:1003000044EA0C04203556EA044C4FEA144418BF62
:10031000641C4FF000084FF00009904271EB030C91
:1003200039D3002919BFB1FA81F701FA07F6B0FAFB
:1003300080F700FA07F6C7F120071EBF20FA07FC76
:1003400046EA0C062037B6FBF4FCA7EB0507103F86
:1003500007F01F0BCBF120060CFA0BFB2CFA06F66C
:1003600044BFB3460026202FA4BF5E464FF0000BCB
:100370005BEA060C08BF4FF0010B19EB0B09ABFB56
:10038000027C48EB0608C01B06FB02CC0BFB03CC2F
:1003900071EB0C01C1E70B46024641464846BDE8F9
:1003A000F08B13B54FF000004FF00001AFF3008069
:1003B000BDE81C40704700000FB41CB5074B06AAEF
:1003C0007B4469460090059800F02FFC00206946A8
:1003D00000F03EFC1CBC5DF814FB00008D08000022
:1003E0002DE9F0410646002410687529314616A50E
:1003F00010D0AFF30080002802DA404213A507E0D6
:1004000031688A0701D512A502E0490704D511A574
:10041000012401E0AFF3008000210A2206F1240745
:1004200009E0B0FBF2FCB0FBF2F302FB1C00303041
:1004300078541846491C0028F3D123462A463046F2
:10044000BDE8F04100F083B9000000002D0000007D
:100450002B000000200000002DE9F05F89460446D3
:100460004FF0000ADFF824B1FB44C0F820A020467A
:10047000E168884700287DD0252806D0D4E90121ED
:100480009047206A401C2062F1E700255F46204625
:10049000E16888472028064607DB312E05D2B819C7
:1004A00010F8200C08B10543F1E7A80701D525F0A5
:1004B0000405C4F81CA00027C4F818A02A2E09D0EF
:1004C000304602F0A4F938B304EB8708303EC8F890
:1004D000186019E059F8041B204604EB870291616B
:1004E000E1688847012F064618D1E069002820DA24
:1004F00025F020051DE0D8F8180000EB800006EB81
:1005000040003038C8F818002046E16888470646A1
:1005100002F07DF90028EED1012F0AD02E2E08D14D
:100520002046E16888477F1C0646022F45F02005DB
:10053000C4DBA069002803DA404245F00105A06150
:10054000E80701D025F01005A6B1A6F14100192851
:1005500002D8203645F400654A46314620462560DB
:100560004D46FFF76BFE60B1012807D0ED1D25F069
:10057000070000E007E000F1080978E705F1040949
:1005800075E730467AE7206ABDE8F09FDCE50300B6
:1005900040EA0103024630B59B0710D14FF0013409
:1005A00000E008C208C91D1B9D4315EAC41FF8D00E
:1005B00013F0FF0102F8011B0DD01B0AF8E711F838
:1005C000013B002B02F8013B05D011F8013B002B49
:1005D00002F8013BF3D130BD10B5431C02E010F826
:1005E000011B71B18107FAD14FF0013202C88C1A98
:1005F0008C4314EAC211F9D0C01A0A0603D0C01EF7
:1006000010BDC01A10BD0A0401D0801E10BD090221
:10061000FCD0401E10BD10B5203AC0F00B80B1E8F0
:100620001850203AA0E81850B1E81850A0E8185027
:10063000BFF4F5AF5FEA027C24BFB1E81850A0E830
:10064000185044BF18C918C0BDE810405FEA827C4A
:1006500024BF51F8043B40F8043B08BF7047D20761
:1006600028BF31F8023B48BF11F8012B28BF20F802
:10067000023B48BF00F8012B70474FF0000200B565
:10068000134694469646203922BFA0E80C50A0E8B5
:100690000C50B1F12001BFF4F7AF090728BFA0E863
:1006A0000C5048BF0CC05DF804EB890028BF40F82F
:1006B000042B08BF704748BF20F8022B11F0804F71
:1006C00018BF00F8012B70474FF0013C50F8042B85
:1006D00051F8043B9A4221D1A2EB0C03934313EA55
:1006E000CC1317D150F8042B51F8043B9A4215D182
:1006F000A2EB0C03934313EACC130BD150F8042B59
:1007000051F8043B9A4209D1A2EB0C03934313EA3C
:10071000CC13DBD04FF00000704700BFD01A01BAF5
:10072000B1FA81F101F0180122FA01F0CB40C1F1D8
:100730002001DBB2C0B2C01A2CFA01F3D11A9143E6
:1007400011EAC311E6D170477047704770472DE931
:10075000F0470D4699469246044600F12408016888
:10076000880604D5E06921F01001216000E0012035
:10077000A84201DD471B00E00027A1697A1902EBBE
:100780000900081AA0612078C00602D42046AFF301
:100790000080002608E0D4E901211AF806009047FD
:1007A000206A401C761C20624E45F4DB2078C0068F
:1007B0000AD52046AFF3008006E0D4E901213020BD
:1007C0009047206A401C2062381EA7F10107F4DC24
:1007D00007E0D4E9012118F805009047206A401C81
:1007E0002062281EA5F10105F3DC2046AFF300804E
:1007F0002078000602D50220BDE8F0870120FBE743
:1008000070472DE9FF4F0C461E464FF0FF378BB067
:10081000D2E90001DDF860800A908A46C1F30A55EA
:1008200005B93D46002108464FF00000BAF1000F1F
:1008300000F4400005DA00EB80004FF4400101EACB
:1008400050004FEA9059B9F1010F00DDB9460A98FE
:1008500050EA4A000ED044F61050A5F2FF35454349
:100860002F14B8F1000F1ED07542291E1EDDC9F1EC
:1008700000021CE0B8F1010F4FF0000001D0302160
:1008800003E0F24305E02154401CB042FBDB30465C
:100890000022002121540B99C1F80880C1E90020F1
:1008A0000FB0BDE8F08FBD1B6D1CDEE74A4600DAD5
:1008B000694206A800F05CFA06AB93E8070003ABB8
:1008C00083E8070050460A9900F0FDFA8DE807001A
:1008D000A0F500501F3800900398002D0ADD42F269
:1008E0001F014A460844002303A90390684600F00C
:1008F00066FD09E0A0F500504A461F38002303A911
:100900000390684600F070FD8DE807000004000CBD
:1009100003D04FF0FF30410800E01046B8F1000F5F
:1009200003D00022009215461EE0751E05D400F08B
:1009300099F9303262556D1EF9D5B346012208434C
:1009400002D000227F1C04E02078302801D1002250
:100950007F1E002A099784D01DE0112D07DA00F0D0
:1009600081F9303262556D1C50EA0102F5D108431D
:1009700002D00098C8B10EE00021681E05E0235C9B
:10098000625C63542254401E491C8142F7DBAB4633
:10099000A81B401E0990002004F80B000B98099A30
:1009A000C0F80880C0E9002B7AE711264FF0000854
:1009B00057E72DE9F04F88460446D21D22F0070183
:1009C00091B0D1E90001CDE90A0101F0DAFE024659
:1009D0000B98C00F01D02D2007E02068810701D5BA
:1009E0002B2002E0202101EAC000032A099001D057
:1009F000072A05DB03464146204600F079F90BE162
:100A00002078800601D5E06900E00620B8F1650F86
:100A1000814606D0B8F1660F18D0B8F1670F70D1D3
:100A200031E00020B9F1110F009001DB112301E04A
:100A300009F101030AAA01A90CA8FFF7E2FEDDE90A
:100A40000C70002609F10105834647E001204B4662
:100A500000904FF000470AAA01A90CA8FFF7D1FEA9
:100A6000DDE90DB00C995D46002610B909F10100D1
:100A70000D18B9EB050003D4C0F1FF3609F10105EB
:100A8000A5EB09002BE0B9F1010F01DA4FF00109E4
:100A90000020B9F1110F0090484601DD112300E05C
:100AA00003460AAA01A90CA8FFF7ABFEDDE90C700A
:100AB0004D4600268346207800070AD4AB4500DA6D
:100AC0005D4601A8012D04DD411911F8011C3029F2
:100AD00007D04F4502DA17F1040F04DA01208246ED
:100AE0000FE06D1EEEE7002F02DCED1B3E4403E03D
:100AF000781CA84200DD7D1CB81B00F1010A4FF0F4
:100B000000472078000703D4AA4501DB4FF0FF3AE5
:100B10000021B7F1004F0DF143088DF8431024D0A8
:100B200002202B23002F01DA7F422D230A21021EEF
:100B3000A0F1010000DC5FB197FBF1FC97FBF1F243
:100B400001FB1C7C17460CF1300C08F801CDEEE7D8
:100B5000A8F1010003702188090501D5452100E0B5
:100B60006521A0F1010800F8011C09980FA9A1EB6B
:100B70000807FF1D00B10120411901EBEA70A169CE
:100B80003844081A401EA0612078C00602D42046CE
:100B9000AFF30080099828B1D4E901219047206A79
:100BA000401C20622078C00622D52046AFF300808A
:100BB0001EE0002E04DBB34502DD01A8805D00E0ED
:100BC0003020D4E901219047206A401C2062761C25
:100BD000AAF101005FEA000A0AD100F03FF8C068FC
:100BE0000168405CD4E901219047206A401C2062E2
:100BF000281EA5F10105DCDC07E0D4E9012118F885
:100C0000010B9047206A401C2062381EA7F10107A3
:100C1000F3DC2046AFF30080032011B041E6000072
:100C200001694A1C02610878704700B58FB0CDE9B0
:100C300001310021059105497944CDE903101146A0
:100C40006846FFF709FC0FB000BD0000E5FFFFFF9D
:100C50000A6802F8010B0A607047000000487047FC
:100C6000A42B012030B5B0F10A024FEA900E71F1C9
:100C700000034EEA817EB0EB0E0061EB91014FEA7A
:100C8000101E4EEA017E10EB0E0041EB11114FEAEF
:100C9000102E4EEA016E10EB0E0041EB11214FEACF
:100CA000104E4EEA014E10EB0E0041EB1141401880
:100CB00041F100014FEAD00040EA41704FEAD10112
:100CC00010EB80054FEA810444EA907444EB010480
:100CD0006D1944EB0404521BA3414FF0000348BFBD
:100CE0000A3200D530BD401C41F1000130BD00008A
:100CF0002DE9F0411F46044603260168072A01F446
:100D0000006004DB08B116A505E016A503E008B1F4
:100D100015A500E015A521F010002060A069C01EF7
:100D2000A0610FB1401EA0612046AFF300804FB11B
:100D3000D4E9012138469047206A401C2062C01C3B
:100D4000206206E0206AFAE7D4E9012115F8010BD8
:100D50009047761EF8D22046AFF30080BDE8F081C0
:100D60004E414E006E616E00494E4600696E66004F
:100D70002DE9F047814616468AB0354878440DC8BB
:100D80008DE80D0032487844801C03AC0DC884E81F
:100D90000D0041F69B300844372190FBF1F290FBA7
:100DA000F1F5A5F1800501FB12041B3C02D564425C
:100DB000012000E00020DFF898A080460027FA44D8
:100DC000AAF1BE0A0EE0E0070AD03246684607EBF9
:100DD000470101230AEB810100F006FB8DE80700C3
:100DE00064107F1C002CEED1194F7F44AE3F19E0F8
:100DF000E80715D007EB04100DF1180A90E80E0073
:100E00008AE80E00C068F04201D198190890324675
:100E1000012306A903A800F0E7FA03AB83E8070063
:100E20006D10641C002DE3D14FF00103324669467A
:100E3000B8F1000F03A802D000F0C1FA01E000F001
:100E4000D3FAC9E90001C9F808200AB0BDE8F08763
:100E500058DD030000487047842B01207546FFF7DA
:100E6000F9FFAE4605006946534620F00700854667
:100E700018B020B5FFF716FABDE820404FF0000685
:100E80004FF000074FF000084FF0000B21F0070172
:100E9000AC46ACE8C009ACE8C009ACE8C009ACE8B5
:100EA000C0098D46704710B50446AFF30080204658
:100EB000BDE81040FFF7E1B901491820ABBEFEE7DD
:100EC0002600020070475FEA400C08BF91F0000F57
:100ED0004FEA8C234FEAC12243EA51514FEA1C509A
:100EE00018BF00F5F0404FEA300018BF41F0004154
:100EF0005FEA6C5C00F02980BCF1FF3F08BF40F066
:100F000080407047130C06BF12044FF0100C4FF0D6
:100F1000000C130E04BF12020CF1080C130F04BFD7
:100F200012010CF1040C930F04BF92000CF1020C9F
:100F3000D30F04BF52000CF1010C11464FF0000218
:100F4000A0F11F00A0EB0C00704711F0004F08BF8C
:100F5000704731F000413FF4D5AF0B0C06BF0904D8
:100F60004FF0100C4FF0000C0B0E04BF09020CF1F7
:100F7000080C0B0F04BF09010CF1040C8B0F04BF0C
:100F800089000CF1020CCB0F04BF49000CF1010CDD
:100F9000CCF12003A0EB0C0022FA03F302FA0CF2CE
:100FA00041EA030100F10100704720F07F4C80EA24
:100FB000030023F07F47ACEB070303F57C5300F0FD
:100FC000004003F1FF032DE980494FEA154B09B4B6
:100FD0004FEA144325EA0B4E24EA03480FF2042695
:100FE00006EB132749083E785FEA320203FB0667E7
:100FF000C7F5000707FB06F64FEA54374FEAD64617
:1010000006F1020607FB066CCCF1005C4FEA1C47B8
:101010002CEA074C07FB06F40CFB06F504EB15461F
:101020004FEA961634BF00204FF000404FEAD13708
:1010300006FB07FC4FEA1C4C0CFB0BF7D21B03FB17
:101040000CF761EB07010CFB0EF7B0EB074072EBFE
:1010500017420CFB08F734BFA2EB0742B2EB074282
:1010600061EB17414FEA0C444FEA910706FB07FC7E
:101070004FEA1C4C0CFB0BF7B0EBC74072EB57323E
:1010800003FB0CF734BFA2EBC742B2EBC74261EBE4
:1010900057310CFB0EF7B0EBC70072EB57720CFB2D
:1010A00008F734BFA2EBC702B2EBC70261EB57717E
:1010B000039F4FEA816141EA921104EBCC044FEAAD
:1010C000D1374FEA826206FB07FC42EA90124FEAF0
:1010D00080604FEA1C4C0CFB0BF7D21B03FB0CF798
:1010E00061EB07010CFB0EF7B0EB074072EB174208
:1010F0000CFB08F734BFA2EB0742B2EB074261EBEF
:1011000017414FEA8C554FEA910704EB9C2406FBEC
:1011100007FC4FEA1C4C0CFB0BF7B0EBC74072EB23
:10112000573203FB0CF734BFA2EBC742B2EBC74206
:1011300061EB57310CFB0EF7B0EBC70072EB577247
:101140000CFB08F734BFA2EBC702B2EBC70261EB9E
:10115000577115EB4C254FEA816141EA92114FEA34
:1011600082624FEAD13742EA901206FB07FC44F153
:1011700000044FEA80604FEA1C4C0CFB0BF7D21BBB
:1011800003FB0CF761EB07010CFB0EF7B0EB07401C
:1011900072EB17420CFB08F734BFA2EB0742B2EB2D
:1011A000074261EB174115EB1C154FEA813141EA0B
:1011B00092414FEA823242EA90424FEA80304FEA4F
:1011C0000C7644F1000448EA03434EEA0B484FF022
:1011D000000EB2EB080C71EB030724BF62463946E0
:1011E0004EEB0E0E4FF0000B0018524149414BEBF5
:1011F0000B0BB2EB080C71EB03077BF1000B24BF68
:10120000624639464EEB0E0E4FF0000B001852416D
:1012100049414BEB0B0BB2EB080C71EB03077BF175
:10122000000B24BF624639464EEB0E0E51EA020710
:1012300018BF46F0010616EB0E7655F1000254F188
:10124000000103D5BDE88901BDE80088BDE889013A
:10125000BDE80048B619524141EB0101A3F1010379
:10126000704780807F7E7D7C7B7A79787776767513
:101270007473727171706F6E6E6D6C6C6B6A6A698B
:101280006868676666656464636362616160605F25
:101290005F5E5E5D5D5C5C5B5B5A5A59595858579E
:1012A0005756565555555454535352525251515006
:1012B00050504F4F4F4E4E4D4D4D4C4C4C4B4B4B59
:1012C0004A4A4A494949484848474747474646469F
:1012D00045454544444444434343434242424241DA
:1012E0004141002B9C4630D477002BD01CB54FEAEF
:1012F000370703B44FF010004FF01001BAF1000FA0
:1013000006D0BCF1000FDCBF40F0080040F008013F
:101310004FF000000FBCBDE810400BF1010BBBF11A
:10132000010F08BF5FEA170722BF12F1010211F196
:1013300001014FF0004143F1000300F0004043EA97
:1013400000007047F9D35708D0E746EA064613F184
:10135000400F4FEA16461FDD13F1200FDFBF164383
:101360000A46002120335B42BED0C3F1200746EA83
:10137000064602FA07F74FEA164646EA0706C3F1A1
:10138000200722FA03F201FA07F721FA03F14FF0DE
:10139000000342EA0702A7E746EA020646EA0646D3
:1013A0004FEA164646EA0106BCBF46EA0646360C38
:1013B0004FF000034FF000024FF0000194E72DE9D9
:1013C000804C9A46934670B491E8380007C831EAD9
:1013D000400C48BF34EA430C03D5FFF7E6FDFFF7A6
:1013E00080FFF0BCBDE8008C2DE9804C9A46934606
:1013F00070B491E8380007C810F0804F08BF13F0B0
:10140000804F03D100F005F8FFF76BFFF0BCBDE89B
:10141000008C20F07F4780EA030023F07F4C07EB2D
:101420000C03A3F57C5300F00040A3F1FE0392F0FF
:10143000000F00F0B38095F0000F00F077802DE9E9
:1014400001494FEA11404FEA144621EA004800FBE7
:1014500006FC24EA064708FB06F607FB08F800FB33
:1014600007F718EB06484CEB164C4FEA124B18EBFB
:1014700007484FEA15464CEB174022EA0B4E0BFB90
:1014800006FC25EA06470EFB06F607FB0EFE0BFBE5
:1014900007F71EEB064E4CEB164C4FF000061EEB0A
:1014A000074E4CEB174B18EB0B0840F1000018EB04
:1014B0000E0B58EB000840F100008F1A4FF00001AE
:1014C0003CBFC943661B14BFB5EB040C00213CBFF5
:1014D000C943F61B4FEA17444EEA8E0E27EA04452D
:1014E0004FEA1C4704FB07622CEA074C05FB07F791
:1014F0000CFB05F604FB0CFC16EB074642EB17420F
:1015000016EB0C4642EB1C421BEB060658EB0202A4
:10151000414146EA9E0601D5BDE80189B61952410E
:1015200041EB0101A3F10103BDE801894FEA144534
:101530004FEA114724EA054621EA074C05FB07F468
:1015400006FB07F70CFB06F105FB0CFC11EB074152
:1015500044EB17444FEA124711EB0C4144EB1C4497
:1015600022EA074C05FB07F206FB07F70CFB06F621
:1015700005FB0CFC16EB074642EB174216EB0C463C
:1015800042EB1C456A1854F1000148BF7047B61978
:10159000524141EB0101A3F10103704795F0000FA7
:1015A00037D04FEA11424FEA144721EA024624EAB3
:1015B000074C02FB07F106FB07F70CFB06F402FBE6
:1015C0000CFC14EB074441EB17414FEA154714EBB1
:1015D0000C4441EB1C4125EA074C02FB07F506FBD6
:1015E00007F70CFB06F602FB0CFC16EB074645EB77
:1015F000174516EB0C4645EB1C42121951F1000140
:1016000048BF7047B619524141EB0101A3F10103F4
:1016100070474FEA14454FEA114724EA054621EA8C
:10162000074C05FB07F106FB07F70CFB06F24FF032
:10163000000605FB0CFC12EB074241EB174112EBD5
:101640000C4251EB1C4148BF7047921841EB01011D
:10165000A3F101037047FEE7014800F0E1B8000084
:10166000D80200200168CAB2103A1823B2FBF3F284
:10167000064B9B5CC3656FF30901032A02D9091D60
:10168000816500E08165806D7047000082C50208B9
:1016900010B5014600208A6A8B694FF0C074002B98
:1016A0000ED0B3F5005F1AD062B3012A2AD0022A05
:1016B00028D0032A03D1C96AC90100D5012010BD71
:1016C0001AB1012A06D0022AF9D1C96AC901F6D590
:1016D000012010BDC96AA142FBD1012010BD52B149
:1016E000012A0AD0022A06D0032AF7D1C96AA142E8
:1016F000F4D1012010BD012010BDC96AC901FBD57C
:10170000012010BD012010BD30B50468256825F406
:1017100080252560046863608368402B04D00368DB
:1017200099600068C26030BD03689A600068C1605B
:1017300030BD704772B6FEE730B5B3F5804F05D0C7
:101740006FF0704140F82210002030BD8C690B68AA
:101750008D6823434C688989240144EA0524234386
:1017600043EA014150F82230024C2340194340F82B
:101770002210E9E70000F0CF10B50A6850F82230D7
:1017800023F0010340F822308B68082B23D000227D
:101790004C681C43CB6813430A691C4314434A69D1
:1017A0001443CA6914430A6A14434A6A14438A6A8E
:1017B0001443CA6A14430A6B14438A692243CB6BED
:1017C0001343064C096850F82120A2431A4340F8FD
:1017D0002120002010BD4022DAE700007FFF0F002B
:1017E00030B5D1E9003443EA04138C688D892402B2
:1017F00044EA054423430C8A641E43EA04540B7DE7
:1018000089699B1E44EA03630B43521C50F8221063
:1018100001F040410B4340F82230002030BD000071
:101820002DE9F84304464FF00009CDF800906F48C9
:101830004FF416510068B0FBF1F7A56D2E6894F8CF
:101840005C00082202FA00F1314210D020680168E1
:1018500049070CD5016821F00401016094F85C008F
:1018600002FA00F1A960606D40F00100606594F833
:101870005C104FF0010808FA01F0304208D02168EE
:101880004969090604D5A860606D40F002006065F2
:1018900094F85C1004208840304208D02168096820
:1018A000890704D5A860606D40F00400606594F875
:1018B0005C1010208840304220D021680968090758
:1018C0001CD5A8602068016849030CD50068000396
:1018D00004D4216C91B1204688470FE0A16C69B116
:1018E000204688470AE00168C90503D4016821F051
:1018F00008010160216C09B12046884794F85C100A
:101900002020884030424CD021680968C90648D55B
:10191000A86094F8350005280BD0206801684903B9
:1019200030D50068000328D4616C51B32046884745
:1019300037E02068016821F01601016020684169E4
:1019400021F080014161206C08B9A06C20B12068B1
:10195000016821F00801016094F85C103F20884084
:10196000A86084F8358084F83490216D00293BD03C
:1019700001B02046BDE8F0430847E16B09B12046BD
:1019800088470EE00168C90507D4016821F01001FD
:10199000016084F8358084F83490E16B09B1204609
:1019A0008847606D00281FD0606DC00714D00520E7
:1019B00084F835002068016821F001010160009879
:1019C000401C0090B84203D820680068C007F6D1D8
:1019D00084F8358084F83490E16C002904D001B09B
:1019E0002046BDE8F0430847BDE8F8831400002016
:1019F0002DE9F041044600F0F9F905465CB10220FA
:101A000084F83500002684F834602068016821F0ED
:101A1000010101600DE00120BDE8F08100F0E6F970
:101A2000401B052805D920206065032084F8350077
:101A3000F2E720680068C007F0D121680A682048F2
:101A40000240D4E901031843D4E903352B4318437A
:101A500063691843A3691843E3691843236A184369
:101A60001043626A042A03D1D4E90B231A431043BA
:101A700008602068406920F00700656A2946054330
:101A8000012704290DD1A06A0543E06A48B1204628
:101A9000FFF7FEFD28B14020606584F83570012015
:101AA000BAE7206845612046FFF7DCFD94F85C202A
:101AB0003F2191408160666584F835700020ABE776
:101AC0003F8010F010B5002390F83440012C0CD06A
:101AD000012480F8344090F83540012C07D00123D0
:101AE000002180F83410184610BD022010BD0629D0
:101AF00010D2DFE801F0030507090B0DC263EFE721
:101B00000264EDE74264EBE78264E9E7C264E7E779
:101B10000265E5E70123E3E72DE9F04104460025EE
:101B2000A66D94F8340001280DD0012084F834000B
:101B300094F835700020012F07D084F83400022576
:101B40002846BDE8F0810220FBE7022784F83570C3
:101B500060652046FFF7D8FD94F85C103F20884070
:101B6000B0602068016841F016010160206C20B16E
:101B70002068016841F0080101602068016841F0B7
:101B800001010160DCE780B205F06AB9F0B587B009
:101B9000142102A8FEF771FD15480168002924D11F
:101BA0000121016000271348016841F00101016033
:101BB000006800F0010001904FF68070029002264C
:101BC00003960497032405940C25069502A90A4858
:101BD00000F016F84CF6B370029003960497059443
:101BE000069502A9054800F00BF807B0F0BD00000B
:101BF000000000203838024000100240000C024073
:101C00002DE9F84F0022DFF89C914FF001080327DF
:101C10004FF00F0C09F1040AA9F1040B08FA02F5C0
:101C20000B682B40AB426ED10C7904F00304012CFD
:101C300001D0022C15D18668540007FA04FE26EA6A
:101C40000E06D1F80CE00EFA04FE4EEA060EC0F8BD
:101C500008E04468AC430D79C5F300159540254371
:101C600045600C79E443A40708D0C568540007FA1E
:101C700004F6B5438E68A6402E43C6600C7904F086
:101C80000304022C11D1D40800EB8406356A5407F2
:101C9000E40E0CFA04FE25EA0E05D1F810E00EFA67
:101CA00004FE4EEA050EC6F820E00568540007FA67
:101CB00004F6B5430E7906F00306A6402E430660EF
:101CC0004C6814F4403F67D0374C256845F4804594
:101CD0002560246804F480440094344C22F0030509
:101CE0002E19D6F8085894074FEA147E0CFA0EF411
:101CF000A5432F4CA04201D1002424E02D4CA0424A
:101D000002D101241FE047E02B4CA04201D1022464
:101D100019E02A4CA04201D1032414E0284CA0422F
:101D200001D104240FE0274CA04201D105240AE090
:101D3000254CA04201D1062405E0244CA04201D14B
:101D4000072400E0082404FA0EF42C43C6F80848DF
:101D5000D9F800409C434D68ED0200D51C43C9F8FA
:101D60000040DAF800409C434D68AD0200D51C43AA
:101D7000CAF80040DBF800409C434D68AD0300D535
:101D80001C43CBF80040074D083D2C689C434E682F
:101D9000F60300D51C432C60521C102AFFF43EAF02
:101DA000BDE8F88F083C0140443802400030014053
:101DB000000002400004024000080240000C024003
:101DC000001002400014024000180240001C0240B3
:101DD0000069084201D00120704700207047002AA6
:101DE00001D08161704709048161704701488068B2
:101DF0007047000008000020024881680278114402
:101E0000816070470800002010B50B48016841F45C
:101E100000710160016841F480610160016841F472
:101E200080710160032000F071F80F2000F006F8C7
:101E300000F026F8002010BD003C024070B50446BA
:101E40000D4D4FF47A712878B1FBF0F00B49096819
:101E5000B1FBF0F000F059FB08B1012070BD102C6F
:101E600007D200222146501E00F030F86C6000209E
:101E700070BD012070BD000008000020140000208B
:101E800008B50A48016841F480410160006800F427
:101E9000804000900548001F016841F080510160BA
:101EA000006800F08050009008BD000044380240F7
:101EB000002809DB00F01F02012191404009800049
:101EC00000F1E020C0F8001170470000F0B40D46AA
:101ED0000D4B1B68C3F30223C3F10704042C00D984
:101EE0000424191D072901D2002300E0DB1E01266E
:101EF00006FA04F1491E294099409E40761E16407C
:101F00003143F0BC00F055BC0CED00E000F00701DF
:101F1000054A10684FF6FF03184040EA01200349C4
:101F200008431060704700000CED00E00000FA0567
:101F30002DE9F04704460D46002C13D0DFF8289118
:101F4000D9F80000EFB200F00700A8420CD289F8DF
:101F50000070D9F8000000F00700A84204D001206A
:101F6000BDE8F0870120FBE72068404E810712D5CD
:101F7000400703D5306840F4E05030602078000717
:101F800003D5306840F4604030603068A16820F0CC
:101F9000F000084330602078C00731D033496068D2
:101FA0000839012808D002280BD0032809D0096875
:101FB00089070BD40120D3E70968890306D40120DF
:101FC000CEE70968890101D40120C9E7316821F011
:101FD000030101433160FFF709FF804641F2883A6F
:101FE00007E0FFF703FFA0EB0800504501D90320ED
:101FF000B6E73068616800F00C00B0EB810FF0D1FB
:10200000D9F8000000F00700A84209D989F800704B
:10201000D9F8000000F00700A84201D001209FE796
:102020002078400705D53068E16820F4E050084387
:1020300030602078000706D53068216920F46040C0
:1020400040EAC100306000F019F83168084AC1F375
:102050000311515CC8400749086007480068FFF752
:10206000EDFE00207CE70000003C02400838024002
:102070008AC50208140000200C00002010B5174883
:10208000006810F00C01164816D0164B042912D027
:10209000082911D1114C241F216801F03F02216849
:1020A00049020AD52068C0F38810A0FB0301002371
:1020B000FEF70AF909E0184610BD21680023C1F3B4
:1020C0008811A1FB0001FEF7FFF82168C1F301416F
:1020D000491C4900B0FBF1F010BD00000838024077
:1020E0000024F40040787D012DE9F84F0446002CCF
:1020F00013D02078DFF8A083C007A8F1040556D0DC
:1021000008F104000168C1F3810101290CD00068C5
:10211000C0F38100022803D00DE00120BDE8F88F54
:10212000D8F80000400206D5286880033FD56068D3
:1021300070BB0120F2E76068B0F5803F10D0B0F5C9
:10214000A02F12D0286820F480302860286820F45E
:10215000802028606068E0B1FFF748FE064614E082
:10216000286840F480302860F4E7286840F4802034
:102170002860286840F480302860EBE7FFF736FEDF
:10218000801B642801D90320C8E728688003F5D59F
:102190000DE0FFF72BFE064606E0FFF727FE801B4B
:1021A000642801D90320B9E728688003F5D4207892
:1021B000BA4F80074FF0000948D5B748001D0168A5
:1021C00011F00C0F08D00068C0F38100022813D171
:1021D000D8F8000040020FD42868800704D5E068D2
:1021E000012801D0012099E72868216920F0F80032
:1021F00040EAC100286029E0E068B8B101203860F9
:10220000FFF7F4FD064606E0FFF7F0FD801B02280D
:1022100001D9032082E728688007F5D5286821695D
:1022200020F0F80040EAC10028600FE0C7F80090F5
:10223000FFF7DCFD064606E0FFF7D8FD801B02280D
:1022400001D903206AE728688007F5D420780007C1
:1022500029D5DFF844A2924861690AF1700A89B170
:1022600001210160FFF7C2FD064606E0FFF7BEFD53
:10227000801B022801D9032050E7DAF8000080070C
:10228000F4D510E0C0F80090FFF7B0FD064606E078
:10229000FFF7ACFD801B022801D903203EE7DAF8E6
:1022A00000008007F4D42078400778D54FF0000A6A
:1022B00079483C300068C0000BD477483C30016856
:1022C00041F080510160006800F0805000904FF0B4
:1022D000010ADFF8D0B1DBF80000C00514D4DBF848
:1022E000000040F48070CBF80000FFF77FFD064649
:1022F00006E0FFF77BFD801B022801D903200DE7D4
:10230000DBF80000C005F4D5634EA0686C360128E8
:102310000FD0052812D0306820F0010030603068FE
:1023200020F004003060A068F8B1FFF75FFD83463D
:1023300017E0306840F001003060F4E7306840F0AA
:1023400004003060306840F001003060EBE7FFF7D8
:102350004DFDA0EB0B0141F28830814201D90320F1
:10236000DCE630688007F2D510E0FFF73FFD8346DA
:1023700009E0FFF73BFDA0EB0B0141F28830814201
:1023800001D90320CAE630688007F2D4BAF1010F00
:1023900005D141483C30016821F080510160A069BD
:1023A000C0B33D49091D09684FF0FF36C1F38101F3
:1023B000022946D0022805D0C7F86090FFF716FD25
:1023C00004463AE0C7F86090FFF710FD814607E049
:1023D000FFF70CFDA0EB0900022801D903209DE6C0
:1023E00028688001F4D4D4E907010843616AA26A2D
:1023F000890106EB520241EA0241084394F82C108D
:1024000040EA0160C8F8000001203866FFF7EEFCE2
:10241000044607E03DE0FFF7E9FC001B022801D974
:1024200003207BE628688001F5D532E0FFF7DEFC6B
:10243000001B022801D9032070E628688001F5D42A
:1024400027E0012823D0D8F80000E26900F48001D9
:1024500091421AD1226A00F03F01914215D147F60C
:10246000C071626A0140B1EB821F0ED1A26A00F412
:10247000403106EB5202B1EB024F06D194F82C101A
:1024800000F07060B0EB016F03D0012046E6012040
:1024900044E6002042E600000438024000004742C3
:1024A000800E47420070004070B504460E46154647
:1024B000002C03D094F8490010B107E0012070BD52
:1024C000002084F84800204600F01DF804F10801BF
:1024D0002068FFF751F93146A2682068FFF780F9BC
:1024E000D4E901022946236BFFF726F9A168206889
:1024F00050F8212042F0010240F82120012084F808
:102500004900002070BDFFF741BB10B5401EB0F17F
:10251000807F01D3012010BD4FF0E02460610F21C6
:10252000601700F046F90020A0610720206100201C
:1025300010BDFEE708B500211648026842F480028B
:102540000260006800F4800000901448124A0260A3
:102550004160802282609200C2600161920042610B
:1025600092008261C161D2000262042242620322AF
:102570008262C1620163FFF73BFA08B1FFF7DAF844
:10258000002211463820FFF7A1FCBDE808403820A2
:10259000FFF78EBC3038024010640240D8020020A1
:1025A00010B58EB01C2107A8FEF767F81C216846FD
:1025B000FEF763F819484FF0204101601849416067
:1025C00000218160C1600161102242618161C161AD
:1025D0000162416213028362C16293020363416339
:1025E000816341640F2007900890FF2309930A90AC
:1025F0000B9211240C940D91009001900293039082
:102600000492059406916A4607A90448FFF74CFF17
:10261000002801D0FFF78EF80EB010BD380300205F
:10262000040100A030B587B0142102A8FEF725F8F8
:1026300000242148016841F010010160016801F0A7
:1026400010010191016841F080010160016801F011
:1026500080010191016841F002010160016801F00F
:1026600002010191016841F008010160016801F077
:1026700008010191016841F001010160006800F06A
:10268000010001900D4D002201212846FFF7A7FB14
:10269000702002900394049402A90948FFF7B0FA4D
:1026A0000121029103910494059402A92846FFF7A1
:1026B000A7FA07B030BD00003038024000040240E5
:1026C00000100240FEE7FEE77047704710B501209A
:1026D00022F090FABDE81040FFF78EBB30B593B002
:1026E000302107A8FDF7C9FF142102A8FDF7C5FF97
:1026F00000251D48016841F080510160006800F02C
:10270000805001901948016841F4804101600068DF
:1027100000F4804001900224079401200A901020C8
:102720000B900D940E9508200F90A82010901194F6
:102730000420129007A8FFF7D7FC08B1FEF7FAFFB4
:102740000F200290039404954FF4A05005904FF48D
:1027500080500690052102A8FFF7EAFB002801D06F
:10276000FEF7E8FF13B030BD403802400070004073
:102770000248016841F470010160704788ED00E093
:10278000FEE703B401984100009850EAC12018BF49
:1027900004204A0D18BF40F0010040F2FF72B2EB76
:1027A000515F08BF40F00200012808BF052002B0B9
:1027B00070470907090E002804DB00F1E02080F8CB
:1027C0000014704700F00F0000F1E02080F8141DA5
:1027D000704770B5044600256FF02F0608E02068AA
:1027E000411C2160007805EB850106EB410145188D
:1027F0002068007800F004F80028F0D1284670BD69
:102800003038092801D8012070470020704730383F
:102810000A2801D2012070470020704710B54421DA
:10282000074800F0D4FF00221E21064822F03CFA9F
:10283000054CA06002F0CAF90020207010BD000015
:102840006C690020814C0008EC0000202DE9FC415F
:1028500007460D4616463146284600F022F940B19B
:1028600000223146284600F0BCF828B10020BDE81F
:10287000FC814FF0FF30FAE70024284611F003FDF9
:10288000401E0FFA80F8284611F0A6FC401E02B246
:102890007088B5F90210401A00B200280FDD2B88AD
:1028A000ADF80030ADF80210AB88ADF80430084444
:1028B000ADF8060000983860019801247860B6F9F8
:1028C00006006988411A511A09B2002917DDB5F9C5
:1028D0000620904213DA2A88ADF80020ADF80200F5
:1028E000AA88ADF804200844ADF80600204607EB9E
:1028F000C00000990160641C019964B24160B6F99E
:102900000200B5F90210884200DC0846B6F906104C
:10291000B5F90620914200DB1146091A09B2328846
:10292000B5F90030D21A12B2002A14DD002912DDE6
:10293000ADF80030ADF802001A44ADF8042042189A
:10294000ADF80620224607EBC202009B1360641C10
:10295000019B64B25360B6F904202B88D31AA8EB0C
:1029600003031BB2002B12DDADF80020ADF802000E
:102970001A44ADF804200844ADF80600204607EBE1
:10298000C00000990160641C019964B24160204656
:102990006DE770B5B1F90040B2F900309C4200DD3E
:1029A00023460380B1F90240B2F90250AC4200DC88
:1029B0002C464480B1F90460B2F90450AE4200DA0A
:1029C00035468580B1F90610B2F90620914200DB48
:1029D0001146C1800120AB4201DC8C4200DD0020A9
:1029E00070BDF8B504460D4616460020B4F9001037
:1029F000B5F90020914212DBB4F90220B5F902309A
:102A00009A420CDBB4F90420B5F904309A4206DC92
:102A1000B4F90620B5F906309A4200DC012088B3EB
:102A20008EB3ADF800106088ADF8020032466946FA
:102A3000284600F0ACF838B3A088ADF800006088F4
:102A4000ADF8020032466946284600F0A0F810B3FF
:102A50002088ADF80000E088ADF8020032466946F3
:102A6000284600F094F8C0B1A088ADF80000E088D6
:102A7000ADF8020032466946284600F088F870B189
:102A80000120F8BD01E002E003E00020F9E70120A9
:102A9000F7E70020F5E70020F3E70020F1E700204A
:102AA000EFE7B0F90020B1F904309A4213DCB0F935
:102AB0000420B1F900309A420DDBB0F90220B1F9DF
:102AC00006309A4207DCB0F90600B1F902108842DC
:102AD00001DB0120704700207047F8B504460D4621
:102AE0001646B4F90400B5F90010884211DBB4F9B8
:102AF0000600B5F9021088420BDBB4F90000B5F905
:102B00000410884205DCB4F90210B5F906209142A0
:102B100001DD0120F8BD66B1ADF800006088ADF8B8
:102B2000020032466946284600F031F818B100200C
:102B3000F8BD0020F8BDA088ADF800006088ADF8B1
:102B4000020032466946284600F021F808B100200C
:102B5000F8BD2088ADF80000E088ADF802003246EC
:102B60006946284600F013F808B10020F8BDA08897
:102B7000ADF80000E088ADF802003246694628460C
:102B800000F005F808B10020F8BD0120F8BD2DE9DE
:102B9000FC4105460F4614460020B7F90010B5F970
:102BA000002091420EDBB5F9042091420ADCB7F90E
:102BB0000210B5F90220914204DBB5F906209142DA
:102BC00000DC012020B1002C04DC0120BDE8FC81E8
:102BD0000020FBE7284611F056FB00EBD0704610B2
:102BE000284611F0F9FA00EBD0704010864200DA66
:102BF0003046844200DD04462888ADF8000028886D
:102C00002044ADF804006888ADF8020068882044CC
:102C1000ADF80600002239466846FFF7B8FF70B1EC
:102C2000BDF804002044ADF80400BDF806002044BF
:102C3000ADF80600394668461FF098F9C6E7E888FF
:102C4000001BADF80200E888ADF806000022394606
:102C50006846FFF79CFF70B1BDF804002044ADF852
:102C60000400BDF80200001BADF8020039466846BA
:102C70001FF07CF9AAE7A888001BADF80000A8881F
:102C8000ADF80400002239466846FFF780FF70B1B6
:102C9000BDF80000001BADF80000BDF80200001BED
:102CA000ADF80200394668461FF060F98EE7688883
:102CB000ADF8020068882044ADF8060000223946CD
:102CC0006846FFF764FF70B1BDF80000001BADF867
:102CD0000000BDF806002044ADF8060039466846FD
:102CE0001FF044F972E7012070E710B5B1F9003028
:102CF000B2F90040A34200DB23460380B1F9023061
:102D0000B2F90240A34200DB23464380B1F90440FC
:102D1000B2F904309C4200DD23468380B1F90610ED
:102D2000B2F90620914200DC1146C18010BD0000BE
:102D30002DE9F0438BB0044621F052FF06460025F2
:102D40000A95B14F14B1E068786002E013F04CFDD1
:102D50007860786800691EF0F1FF7868406908B112
:102D60001EF0ECFF7868C0691EF0E8FF7868006A22
:102D70001EF0E4FF7868016991B11FF0B7F924F003
:102D800067F823F07FFD7868B0F85011E9B3006868
:102D9000017CC9071FD0C0684068E0B1002415E07D
:102DA000A0F850510BB0BDE8F083011991F8301133
:102DB00051B900F5AC7000F06AFD796801EBC4010F
:102DC0000A6B0260496B4160641CA4B27868B0F879
:102DD0005011A142E9D878684FF4807130301AF070
:102DE0009EF97868202100F598701AF098F97868B3
:102DF000A0F85051304621F0E7FE0A90786800684C
:102E0000436A13B13A680A99984719F0CFFF00F066
:102E100045F900F019F9DFF8F491D9F81460EEBB28
:102E200019F069FD18F036FE064600227F21304673
:102E30001EF03FFE12F0D2FE0146099000223046FD
:102E40001EF021FE13F042F901460990002230469F
:102E50001EF0CEFE0022032130461EF0B5FE0022F9
:102E6000032130461EF0A1FE0022032130461EF051
:102E7000A1FE0022032130461EF0A1FE0022032104
:102E800030461EF0B0FE62A1304619F0AFFC0023C0
:102E90001A46062130461AF058FD00E001E0C9F854
:102EA0001460D9F8000021F08FFE4FF49678404569
:102EB00010D2386841F28831884243D9D9F80400E9
:102EC0000A990844C9F80400D9F80800401CC9F858
:102ED000080037E021F084FEC9F8000078684068F7
:102EE00028B100684FF47A71B1FBF0F100E02121C4
:102EF000D9F8040010B90120C9F80400D9F8080075
:102F000028B34FF47A725043D9F80420B0FBF2F49E
:102F1000C9F80450C9F808508C4200D90C46D9F8B9
:102F200010002044C9F81000D9F80C00401CC9F862
:102F30000C0021F017FFC0F16403224635A1304692
:102F400019F08CFC304D08356C6814B13AE00C4631
:102F5000DEE719F0D0FC18F09DFD044600227F2129
:102F600020461EF0A6FD12F039FE0146099000220F
:102F700020461EF088FD13F0A9F8014609900022B2
:102F800020461EF035FE0022032120461EF01CFEC6
:102F90000022032120461EF008FE002203212046C5
:102FA0001EF008FE0022032120461EF008FE18A194
:102FB000204619F01BFC00231A46042120461AF073
:102FC000C4FC6C60286821F0FFFD40457FF6EAAE46
:102FD00021F006FE286003A819F082FF05990398E6
:102FE000401A820A514200EB81206621B0FBF1F3C6
:102FF0009DF825009DF82410CDE9001009A1204678
:1030000019F02CFCCEE60000A80000202468002067
:103010003F0000002575204650530A2575252520C0
:103020004350550025752E2575206B42207573651C
:103030006420282564202525290A25642525206665
:103040007261672E0000000070B50024084EC4EBCA
:10305000C40556F8250008B119F01EFF06EB8500DF
:103060001C211AF05CF8641CE4B2042CEFD370BD90
:10307000486A0020084949680AE04A68824202D04A
:103080000A68824203D10A7E42F001020A76496947
:103090000029F2D1704700007C000020704700003A
:1030A0000421014800F093BB606900202021014801
:1030B00000F08DBB786900202DE9FF410446DDE971
:1030C0000A671D460020002D02D1B6F5807F2BD067
:1030D0000090019002900390ADF80410ADF80A2022
:1030E000ADF80C10ADF80E203B4632462946684636
:1030F0001EF098FE3B463246294601A81EF092FE7D
:103100003B463246294602A81EF08CFE3B4632461C
:10311000294603A81EF086FEBDF90000BDF9041083
:10312000884209DA054608E020806080491EA180B7
:10313000521EE280BDE8FF810D46BDF90820BDF9B1
:103140000C309A4201DA164600E01E46B54203DA18
:10315000884206DB084604E09A4201DA104600E0A5
:103160001846801E2080BDF90020BDF9040082426F
:1031700001DD154600E00546BDF90810BDF90C302B
:10318000994201DD0E4600E01E46B54203DD824253
:1031900006DD104604E0994201DD084600E01846CD
:1031A000801CA080BDF90220BDF906309A4201DAE8
:1031B000154600E01D46BDF90A10BDF90E0081421A
:1031C00001DA0E4600E00646B54205DA9A4201DA17
:1031D000104604E0184602E0814200DA0846801EEC
:1031E0006080BDF90200BDF90630984201DD054658
:1031F00000E01D46BDF90A10BDF90E20914201DD27
:103200000E4600E01646B54203DD984206DC18463D
:1032100004E0914201DD084600E01046801CE08099
:1032200088E70000F7B506461746114C21F0D8FC98
:1032300005463B4631462046019A17F0D7FD20B19E
:103240000020A062E06948B10CE02C21204619F072
:1032500066FF4FF00040A0620020FEBD284621F02E
:10326000B3FCE061E06908B90120E0612046FEBDE1
:103270009C69002010B514210C4800F0A8FA17F042
:1032800075FD02468AB10A49104617F028FE094921
:10329000104617F026FE0849104617F024FEBDE838
:1032A00010400649104617F018BEFEE7846900205A
:1032B000E9A60108DDAA0108D5AC0108B5A60108F8
:1032C00070B504460D461021284619F028FF2068E5
:1032D0000078012804D0022807D0042808D009E08B
:1032E000A08A2880E08A688004E0E068686001E0E5
:1032F0000A20686020684268002A03D02946BDE899
:103300007040104770BD2DE9FE430446A08A002896
:1033100002D1E08A002873D0D4F82C80B8F1000FD5
:1033200011D120460BF075F980465FEA080067D09E
:1033300020460EF0B9FB00220921404616F0D2FBD0
:10334000607880075CD400274FF480794E4645466C
:1033500013E0002128461CF0F4FC384407B2002199
:1033600028461CF00CFDC11700EB116000127043E1
:1033700006B228461BF07CFC0546002DE9D10FB9AA
:103380004E450CD0784201B24FF4803090FBF6F0FD
:1033900002B200956B4604F114001EF043FD029545
:1033A000019594F8400000F00F00032816D0404625
:1033B0001BF0BEFD064640461BF06AFC03460C208F
:1033C0000090B4F91610324640460AF0BBFC01905A
:1033D00040461BF0AFFCC10713D017E040461BF07E
:1033E00035FD064640461BF0CFFC02460320009008
:1033F000B4F91410334640460AF0A4FC0290E7E703
:1034000032E0BDF90810002900DD0295810704D4DF
:10341000BDF90810002900DA0295410704D4BDF96E
:103420000410002900DD0195000704D4BDF9040053
:10343000002800DA019501AA02A9204624F000F92B
:10344000BDF90420BDF90810404600F0ADFA6078DF
:10345000800709D4208BBDF8081008442083608BB6
:10346000BDF8041008446083BDE8FE832DE9FC5FCD
:103470000446D4F82C80B8F1000F7DD094F84000B9
:10348000000779D017F062FF019001980068467E2E
:10349000402140461CF0A1FD002708B9E783A7831F
:1034A00040461BF033FD814640461BF038FD054683
:1034B00094F84000642100F00F0041F6FF7ACAF151
:1034C000000B0C2802D003283DD05CE0A783D5B1C7
:1034D000204624F0FEF80090E7836A46002120464B
:1034E00024F0AEF8BDF900305246594640460BF084
:1034F00045FABDF800100123084402B200214046FD
:103500001DF02CFF3FE0B4F91E00C6F164025043E9
:1035100090FBF1F0E08340461BF0BAFB06464046C4
:103520001BF006FD02460C200090B4F91E10334635
:1035300040460AF007FCE083024600231946404655
:103540001DF00CFF1FE0E783B9F1000F23D02046E8
:1035500024F0A8F80090A78300226946204624F0B2
:103560006FF8BDF900305246594640460BF07EF9DF
:10357000BDF80010084400E078E001B20123002209
:1035800040461DF0EBFEA08B00286FD1E08B002899
:103590006CD105B33CE0B4F91C00C6F164025043A1
:1035A00090FBF1F0A08340461BF0EEFB0646404640
:1035B0001BF04CFC034603200090B4F91C1032466B
:1035C00040460AF0BFFBA083014600231A4640464E
:1035D0001DF0C4FED7E740461BF0AAFC0546404656
:1035E0001BF056FB002D01DC002811DD002D06DA52
:1035F00001232A46002140461DF0B0FE08E00028C5
:1036000006DA404202B20123002140461DF0A6FE28
:10361000B9F1000F1CD140461BF0B6FB05464046F1
:103620001BF014FC002D01DC002811DD002D06DA52
:1036300001230022294640461DF090FE08E00028A4
:1036400006DA404201B20123002240461DF086FE08
:103650000A214046019A16F045FA6078800705D4A1
:103660002C34207D20F00F0020752760BDE8FC9FE2
:103670007FB504460D46002C02D113F0B5F8044680
:10368000002C31D0204613F02CF900282CD094F8CF
:103690002800400728D400263DB3ADF80860ADF8F7
:1036A0000A60204613F0B6F8401EADF80C00204624
:1036B00013F001F9401EADF80E0002AA2946684633
:1036C000FFF767F900280FD02068017C89070FD524
:1036D000DDE90201C4E90C010120A4F85001606891
:1036E000002801D021F0C8FB7FBDA4F850617FBD48
:1036F00082690AB16946904700250AE004EBC501DA
:10370000303100226846FFF76CF90028EFD16D1CBC
:10371000ADB2B4F85001A842F0D8B4F85001202856
:1037200006D204EBC0003030694610F0D7FC06E04A
:10373000A4F8506104F1300002A910F0CFFCB4F8F5
:103740005001401CA4F8500160680028CFD021F03F
:1037500093FB7FBD70B50646304600F012F8044674
:103760000CE02146304600F023F80546214630465D
:1037700000F0B8F8204619F08FFB2C46002CF0D151
:1037800070BD002801D0406870470020704700B528
:10379000034600221846FFF7F4FF014604E0521CDE
:1037A000184600F005F801460029F8D1104600BD82
:1037B0000068091D084400687047006808440068F4
:1037C0007047002801D080687047002070470022B1
:1037D00042608260C91C21F003010160704770B52E
:1037E00004462068083019F0C7FA05469DB100224A
:1037F0002946204622F019FC29462046626822F01C
:103800000BFC616819B12A46204622F00EFC656067
:10381000A06800B9A560284670BD2DE9F0410646B4
:103820000D46002E0BD055B13046FFF7AAFFA84237
:103830000AD13046FFF7D3FF04461CB123E0002035
:10384000BDE8F0810020FBE73068083019F094FAF9
:103850000446D4B129463046FFF7AFFF074622465B
:103860003946304622F0D8FB3A462146304622F00F
:10387000DCFB22462946304622F0D7FB2A46214669
:10388000304622F0C9FB2046DAE70020D8E770B5C1
:1038900004462068083019F06FFA05469DB10022F1
:1038A0002946204622F0B8FB29462046A26822F08D
:1038B000BCFBA16819B12A46204622F0ADFBA560E9
:1038C000606800B96560284670BD002802D0416874
:1038D00011B103E001207047806808B100207047F3
:1038E0000120704770B504460B46002C13D02046CB
:1038F000FFF747FF002298420ED119462046FFF7F6
:1039000057FF606030B101462046BDE8704000229C
:1039100022F08BBBA26070BD2046FFF752FF984299
:103920000ED119462046FFF748FFA06030B101468E
:103930002046BDE87040002222F06EBB626070BD80
:1039400019462046FFF739FF054619462046FFF77E
:103950002FFF064632462946204622F05DFB2A46C6
:1039600031462046BDE8704022F05FBB10B50446EA
:10397000206882680AB121469047206800680028C4
:1039800001D02060F4E710BD8068002802D0B0F9B3
:1039900016007047002070478068002802D0807EA3
:1039A000800970470020704770B506460C461546E2
:1039B00054EA05001CD030461AF0B8F9B068018A04
:1039C00021440182B068418A2944418201232A4668
:1039D000214630461CF0C9FE00220B21304616F06D
:1039E00081F8012803D130461CF00AFE012070BD89
:1039F000012070BDF7B582B005460E46049F002D2C
:103A00001ED02846314662221CF0C7F801900446B9
:103A1000200012D0206880B12846314663221CF075
:103A2000BCF80190C2B242B123683946204698479B
:103A30000190BDF80400ADF81000049805B0F0BD89
:103A40003846FBE72DE9F04794B005461C9C0F462D
:103A500091461E46688C40F004006884A5F82090CA
:103A60002289394628461CF098F8824613902E8405
:103A70002289394628461CF090F880461290698CBD
:103A800021F004016984824505D1BDF84C00BDF8E0
:103A9000481088426AD0A5F82090228939462846E5
:103AA0001CF07BF8824613902E84394628460CF091
:103AB0001AFC2189006852461FF0D8FE20890B2885
:103AC00025D147F6FF79CA4501D0C8451FD1284600
:103AD0001CF03AFA00EBD070461028461BF089F82B
:103AE00000EBD07040101399494506D1711C421C5F
:103AF000914200DA00E0411C1391C84507D1711CC6
:103B0000421C914201DA701C00E0401C12901948DE
:103B1000FFF765FE064666B31398F06012983061B1
:103B200035602089B080B76001A80FF0BFFD019615
:103B30001148029011480390114804900020FF2181
:103B400009900A900B9120880C90608840420D905B
:103B5000E068089000209DF8461060F300018DF8A1
:103B600046102069079001A80FF01AFE14B0BDE8B6
:103B7000F087FEE790690020C1B80208F1BA020898
:103B800041BA020814210148FFF721BE90690020C4
:103B90002DE9F84F074688469146002500264FF04C
:103BA000040A1AE1F8680AEBC6014058810175D48D
:103BB00020F07F401EF08BF830EA080112D000217F
:103BC00030EA090010D00020814267D0F86850F830
:103BD00036B000246A46102158461FF065FB28B114
:103BE00001248BE00121EBE70120EDE76A4611217A
:103BF00058461FF059FB08B101247FE06A461221A4
:103C000058461FF051FB08B1012477E06A461321A2
:103C100058461FF049FB08B101246FE06A461521A0
:103C200058461FF041FB08B1012467E06A461421A1
:103C300058461FF039FB08B101245FE06A460A21AB
:103C400058461FF031FB08B1012457E06A466B214A
:103C500058461FF029FB08B101244FE06A466C2149
:103C600058461FF021FB08B1012447E06A460121B4
:103C700058461FF019FB08B101243FE06A460421B1
:103C800058461FF011FB08B1012437E06A460221B3
:103C900058461FF009FB10B101242FE09CE06A4652
:103CA000032158461FF000FB08B1012426E06A46B4
:103CB000052158461FF0F8FA08B101241EE06A46B3
:103CC000062158461FF0F0FA08B1012416E06A46B2
:103CD000322158461FF0E8FA08B101240EE06A4686
:103CE0006E2158461FF0E0FA08B1012406E06A464A
:103CF0006D2158461FF0D8FA00B1012414B10320F9
:103D0000BDE8F88F6A46692158461FF0CDFA08B120
:103D1000022561E06A466A2158461FF0C5FA08B1DB
:103D2000022559E06A466E2158461FF0BDFA08B1D7
:103D3000022551E06A466D2158461FF0B5FA08B1D8
:103D4000022549E06A46372158461FF0ADFA08B10E
:103D5000022541E06A46382158461FF0A5FA08B10D
:103D6000022539E06A46352158461FF09DFA08B110
:103D7000022531E06A46402158461FF095FA08B105
:103D8000022529E06A46452158461FF08DFA08B100
:103D9000022521E06A46412158461FF085FA08B104
:103DA000022519E06A46422158461FF07DFA08B103
:103DB000022511E06A46432158461FF075FA08B102
:103DC000022509E06A46492158461FF06DFA08B1FC
:103DD000022501E005B90125761C788CC0F3C500E9
:103DE000B0423FF6DFAE28468AE70000014840684F
:103DF00070470000A800002010B5044822F0B8F970
:103E0000BDE81040024821F09DBF0000246800205A
:103E1000B0000020C0F30410072800D90720C0B26A
:103E200070470000A0F57F41FF3905D030B17128FF
:103E300006D20A49085C70471F207047002070476F
:103E4000713880B20649096829B1064A5268904221
:103E500001D2085C70470020704700001C2E030848
:103E6000180100202C01002010B518210348FFF78D
:103E7000AEFCBDE81040012020F048BF3C690020A6
:103E80002DE9F04104460D461746002C1AD0204675
:103E9000FCF7A2FB0646DFF8308029462046D8F81A
:103EA000082090470546D8F8082060193946904701
:103EB00001462846721A03E04318E35C2354401C71
:103EC0008242F9D2BDE8F081480100202DE9F0419D
:103ED00080460C4615461F46084E394640467268D5
:103EE0009047206028B138687268404400219047AC
:103EF00000E000202860BDE8F081000048010020BB
:103F00002DE9F04F87B00446DDE910588A46934604
:103F10001E464FF00009002D01D0A5F800906CB1AD
:103F2000207878B1BAF1000F0ED0002708F0020017
:103F300008F0040108431AD0002008E0002007B070
:103F4000BDE8F08F0020FAE70020F8E7401C215C74
:103F50000A2903D00D2901D00029F7D1215C01B134
:103F6000401C002DEBD04FF0FF312980E7E75FEADE
:103F7000887001D541F6FF76CDF81890CDF81490F1
:103F800023E0CDF81090059838B3002106AA04ABC1
:103F9000CDE90221CDE90083204433465A465146FB
:103FA00021F0DCF80499721A16B239440FB288B1C4
:103FB00005990844059021780A290BD00D2909D0CC
:103FC000205C0A280BD00D2809D00598205C08B188
:103FD000002ED6DC059830B111E00121D6E7059816
:103FE000401C0590F6E7084A05A92046526890470C
:103FF000014625B10022504615F099FE07B205B1E1
:104000002F8005989BE70000480100202DE9F04132
:10401000064688461746002E21D0002F1FD0304676
:10402000FCF7DAFA04463846FCF7D6FA05462800CB
:1040300015D02C440B4A41463046926890470146C1
:10404000481903E0621BB25C3255641EA042F9D9E4
:1040500070182A463946BDE8F04119F028B8BDE885
:10406000F08100004801002010B5002223290ED164
:1040700003782BB10024012B05D0022B05D006E0DC
:104080000122027003E0047001E004700122037851
:10409000012B04D1202901D10221017001221046F7
:1040A00010BD2DE9F34182B00746039E334600213F
:1040B0003A46084621F0D8FA05464FF00008CDF8F8
:1040C0000480681C18F058FE04465CB104F80580B2
:1040D00033463A46691C204621F0C6FA04B0204611
:1040E000BDE8F081FEE72DE9F04781460D46144614
:1040F0001F46DDF8208012E0660806FB075A51468D
:104100004846C047002808DD44F30000C0EB5404D3
:10411000A4F101040AEB070501E005DA3446002C9E
:10412000EAD12046BDE8F0875046FBE72DE9FF5F66
:10413000DDE910BCDDE912A7DDE90E64149D4FF046
:1041400030085FEA85791ED46FB15FEAC5790AD07D
:1041500005F00C0959EA0B0905D07F1E03E0A146C2
:10416000641C06F80980544506D2202CF7D303E0DE
:10417000A146641C06F809805FEAC57903D0BC42F9
:1041800001D2202CF4D35FEAC5693CD55FEA4559DA
:104190000AD44CB1544501D0BC4205D1641E1CB1B7
:1041A000BCF1100F00D1641EBCF1100F0BD15FEAFF
:1041B000856908D4202C06D2A4464FF07809641CE7
:1041C00006F80C9019E0BCF1100F0BD15FEA85697D
:1041D00008D5202C06D2A4464FF05809641C06F8D6
:1041E0000C900AE0BCF1020F07D1202C05D2A446A6
:1041F0004FF06209641C06F80C90202C03D2A446F0
:10420000641C06F80C80202C1CD2BBF1000F06D0D9
:10421000A4464FF02D08641C06F80C8012E05FEAFB
:10422000457C06D5A4464FF02B08641C06F80C808C
:1042300008E05FEA057C05D5A4464FF02008641C21
:1042400006F80C80CDE90275CDE9006400F087F82E
:1042500004B0BDE8F09F2DE9F04F8FB0DDE91BAB56
:10426000DDE919971D9E189C0025002C01D126F030
:1042700010065FEA465C0DF11C0800D5FCB1B4FBEA
:10428000F7FC07FB1C4C0CF0FF0CBCF10A0F02D230
:104290000CF1300C0AE05FEA866E02D54FF0410E59
:1042A00001E04FF0610EF444ACF10A0CAE466D1C17
:1042B00008F80EC0B4FBF7F40CB1202DDFD3CDE924
:1042C00004ABCDE90085CDE902970696FFF72EFFF6
:1042D0000FB0BDE8F08F2DE9FF4F8FB0DDE91D1B5A
:1042E000DDE922A9DDE92056249F1C98002450EA2C
:1042F000010201D127F010077A050DF11C0802D543
:1043000050EA010218D02A463346FBF7DDFFD2B24D
:104310000A2A01D2303206E0BB0601D5412300E073
:1043200061231A440A3A2346641C08F8032050EA21
:10433000010201D0202CE6D3CDE904A9CDE9008407
:10434000CDE902B50FA806970FC8FFF7EFFE13B02F
:10435000BDE8F08F9A4200D28854704770472DE92B
:10436000FF5F0746DDE90EB5DDE910891446A24678
:1043700009F0020009F00101084313D12E4606E0BE
:104380002246641C2020039B0199B847761C4645B1
:10439000F6D307E02246641C6D1E039B1BF8050044
:1043A0000199B847002DF5D15FEA897006D409E07C
:1043B0002246641C2020039B0199B847A4EB0A0005
:1043C0004045F5D304B02046BDE8F09F2DE9FF4FEE
:1043D00089B0804600250A98002801D1DFF8DC84E6
:1043E0004FF00009D0E0252808D0DDE90A132A465D
:1043F0006D1CC0470C98401C0C90C5E0491C0C91EA
:1044000000240C9801782B2923D004DC202926D005
:10441000232904D129E02D2915D030290DD00020E1
:104420000028EED100260C980078FEF7E9F910B3C9
:104430000CA8FEF7CEF906462BE044F00104401C20
:104440000C900120ECE744F00204401C0C90012089
:10445000E6E744F00404401C0C900120E0E744F03F
:104460000804401C0C900120DAE744F01004401CC2
:104470000C900120D4E70C9908782A2809D11698C5
:1044800040C81690002E02DA44F002047642491C1D
:104490000C9100270C9801782E2918D144F48064DF
:1044A000401C0C900078FEF7ABF920B10CA8FEF789
:1044B00090F907460BE00C9801782A2907D1169944
:1044C00080C91691002F00DC0027401C0C900C982E
:1044D00001786C290AD004DC682913D06A292BD111
:1044E00021E074291AD07A2926D121E044F480747D
:1044F000401C0C9001786C291ED144F40074401CBF
:104500000C9019E044F08004401C0C90017868295C
:1045100012D144F04004401C0C900DE044F480742F
:10452000401C0C9008E044F40074401C0C9003E024
:1045300044F48074401C0C900C99087869282DD0A4
:104540000EDC62282AD006DC25287BD0502825D016
:10455000582811D122E0632875D064280CD11DE0C1
:10456000732871D004DC6F2818D0702804D115E0AE
:10457000752813D0782811D0DDE90A132A466D1C5E
:10458000C0470C98401C0C900C99087800287FF4C8
:104590002AAF0B9885427DD22A4686E1782813D02F
:1045A000582811D0702811D050280FD06F2818D05B
:1045B000622818D00A2224F010040C980078582899
:1045C00013D0502811D012E01022F6E7102244F048
:1045D000100040F4807448785628EED1491C0C91A4
:1045E000EBE70822E9E70222E7E744F02004692824
:1045F00003D0642801D024F00C04610501D524F017
:104600000104692821D064281FD0562870D0A00545
:104610006FD51698CDE90597CDF80890CDE90764D8
:10462000C01D20F007000492D0E90012CDE900126D
:104630000830DDE90A1316902A464046FFF74BFE84
:104640000546B1E025E1B3E0DBE0A00529D51698E9
:10465000C01D20F00701D1E9000308311691194669
:10466000CDE90597CDE907640492002901DA01221A
:1046700000E00022002302921A461B1A8A4104DB42
:104680000A460021404261EB0201CDE900012A46C1
:10469000404600E007E1DDE90A13FFF71CFE05468E
:1046A00082E0E00514D5169901C91691CDE903768B
:1046B000C10F05940292002800DC4042CDE90001C0
:1046C000DDE90A132A464046FFF7C5FD05466BE0C3
:1046D000600605D5169810F8041B1690C8B20CE0B9
:1046E000200607D5169830F8041B169008B204E08F
:1046F00015E026E0169901C91691CDE90376C10FA0
:1047000005940292002800DC4042CDE90001DDE979
:104710000A132A464046FFF79EFD054644E01699D7
:1047200001C9169141680968009103680B98421B02
:104730000A9841194046FFF749FE0544CDF82090FC
:1047400032E0E00510D5CDE9037602921698059483
:104750002A4602C8CDE90019DDE90A131690404641
:10476000FFF779FD05461FE0600605D5169810F89D
:10477000041B1690C8B20AE0200605D5169830F83A
:10478000041B169088B202E0169901C91691CDE972
:104790000192CDE9037605940090DDE90A132A46DB
:1047A0004046FFF758FD05460C98401C0C90EBE680
:1047B0000127A00706D509E02A46DDE90A136D1C8A
:1047C0002020C04738467F1CB042F5D316982A46B1
:1047D0006D1C10F8041B1690C8B2DDE90A13C0471F
:1047E000A00706D409E02A46DDE90A136D1C202043
:1047F000C04738467F1CB042F5D30C98401C0C9043
:10480000C2E6169850F804BB16900FB1394601E085
:104810004FF0FF31584600E0401C027812B1491EAB
:104820004A1CF9D1A0EB0B0A600502D5BA4500D3AA
:10483000BA46A00706D512E02A46DDE90A136D1C28
:104840002020C04750460AF1010AB042F4D306E0E6
:10485000DDE90A132A460BF1010B6D1CC0479BF8DA
:10486000000020B16105F3D57F1E791CF0D1A007AF
:1048700006D40AE02A46DDE90A136D1C2020C04751
:1048800050460AF1010AB042F4D30C98401C0C9037
:104890007AE62A46DDE90A136D1C2520C0470C98EC
:1048A000401C0C9070E60B9A521EDDE90A130020A2
:1048B000C0470DB02846BDE8F08F00005D430008FA
:1048C00010B50024002808D000F019F8B0F5803F9A
:1048D00003D20C2800D80C200446204610BD0A46FE
:1048E000491E0A4200D0FEE70140401A70470844C2
:1048F000401E4A1E9043114200D0FEE770474A1EF8
:10490000114200D0FEE70844401E9043704700006B
:104910002DE9F04104460F4601206086002500265F
:104920000BE01BA1FBF7D0FE10B16D1CADB202E095
:10493000608E401C6086761CB6B257F8260010B117
:1049400001780029EDD1208EA8421ED0A06A002651
:1049500010B118F0A1FAA662E06A10B118F09CFA42
:10496000E662E80018F008FAA06238B1680018F0B2
:1049700003FAE06218B1A16A11B102E0FEE7FEE7B6
:104980000025690018F0CBFB2586BDE8F08100000A
:104990000A0000002DE9F84F83460F469BF80900F6
:1049A00000F0070002281DD09146974200DD3A46EC
:1049B0001646032000EB460020F003051035DFF813
:1049C000C480DFF8C4A0D8F80840DAF80000201A44
:1049D000D8F804102A188A4206D2606820F00040F5
:1049E00060602CE0B946E0E78D421ED84FF0FF34FE
:1049F0000FE000940022694624480DF0CBFC002211
:104A0000694623480DF0C6FCD8F80800DAF8001013
:104A1000401AD8F8041028448842EAD8D8F8084048
:104A2000606820F00040606009E0284618F0A4F9B2
:104A30000446200019D0606840F0004060603A46AB
:104A40004946584601F0EDFD2060606800F04040A6
:104A5000401C20F080406060A681A4F80E900028E1
:104A600004DA04F11000A06008E0FEE7D8F80800BE
:104A700000F11001A1602844C8F808002046BDE8F4
:104A8000F88F0000B80000201401002001E60008A3
:104A90001F24010870B586B000220592049203928B
:104AA000494CE2888A4201D0FF22A270E18090F84E
:104AB0003C20142502F003024FF4B476012A26D0DC
:104AC000022A43D0A3789A4211D010F8263F03EB74
:104AD000031303EB4303B3FBF5F32370407800EBC0
:104AE000001000EB4000B0FBF5F06070A27003A86E
:104AF00004AACDE9002001EB41004FF6FF7101EA65
:104B0000400005AB6278217809F0A7FA3CE0A37871
:104B10009A4210D0838C03EB43035B02B3FBF6F3A2
:104B2000A38090F8270000EB001000EB4000B0FBE2
:104B3000F5F06070A27003A804AACDE90020C9B204
:104B400005AB6278A08809F088FA1DE0A3789A4244
:104B500010D0838C03EB43035B02B3FBF6F3A3801B
:104B600090F8260000EB001000EB4000B0FBF5F0E1
:104B70002070A27003A804AACDE90020CAB205AB38
:104B80002178A08809F069FA9DF814009DF81010AA
:104B90009DF80C20D308BDF8042063F304020192B1
:104BA0008A08BDF8041062F34A110191C108BDF8EA
:104BB000040061F3CF200190BDF804000290BDF81D
:104BC000080006B070BD00001C02002010B5084CA3
:104BD000012020700748FEF7D4FD20B1A068BDE891
:104BE000104020F049B9A068BDE8104020F038B965
:104BF000EC0000206C69002010B5044694F84200D7
:104C0000810709D4B4F8401031B1A1F57F42FF3AD1
:104C100002D0491EA4F84010B4F84020A16BAAB9F4
:104C200009B1820712D521461448FEF75BFEFFF753
:104C3000CDFFE16809B120468847216909B12046C6
:104C400088472046BDE8104018F026B9E26B524272
:104C50002263002911D0820702D4626B5242226380
:104C60004210521C62F3410084F84200206AA26A9A
:104C70002262A062E06AE162A06310BD6C6900205C
:104C800070B5334E70681FF09FFF0546707880F056
:104C9000010070702F48FEF774FD044652E00020BA
:104CA000307094F842007178C0F380028A423DD09F
:104CB00061F3820084F84200216B4A19030719D47A
:104CC000002917DC002A15DBC00709D1616939B159
:104CD00020468847216A01442162A16A0844A062F3
:104CE000A16809B12046884794F8420040F00800C6
:104CF00084F84200206B28442063002816DBE16A18
:104D0000884200DD2163E169204688470146606AE8
:104D1000884204D0616262680AB120689047D4E991
:104D20000B10884202DB2046FFF766FF307820B187
:104D30000848FEF726FD044604E021460548FEF734
:104D400037FD0446002CAAD11FF04AFF706070BDE9
:104D5000EC0000206C69002070B504460D466068C8
:104D6000002802D02946FFF7F7FF2268002A04D066
:104D700029462046BDE87040104770BD89B20FF04B
:104D80000CB989B20FF048B92DE9FF4F8FB09846A2
:104D9000DDE92259DDE91C0107900691002004900D
:104DA000B9F1040F16D0B9F1050F17D0B9F1060FFC
:104DB00018D0B9F1140F7DD10120059002260024EE
:104DC000119908FB01F00E901098401E0D90481E9E
:104DD0000C9060E1002005900226F0E7012005908C
:104DE0000326ECE7012005900226FEF7FFFF00688E
:104DF000806B0490E3E71E980799604301EB202342
:104E00001F980699604301EB202219121012002905
:104E100007DB109FB94204DA002802DB119FB84279
:104E200002DB0020285534E1DFB2D2B2802F05DA50
:104E30004FF0FF33C7F17F077F0002E00123803F7F
:104E40007F00802A06DA4FF0FF3CC2F17F024FEA72
:104E5000420A04E04FF0010C803A4FEA420ADDF8C2
:104E60003CB000FB08F20B92724301FB06225A444D
:104E700011EB030BCDF828B077D4DDF834E0DDF882
:104E800028B0F34571DC10EB0C0BCDF824B06CD4DA
:104E9000DDF830E0DDF824B0F34566DC03FB0623E3
:104EA0000CFB08FC0CFB062CDDF814B0BBF1000F6A
:104EB00070D000E0F3E0B9F1050F32D0B9F1140F72
:104EC00034D0B9F1060F51D0FF218B46FF208B451E
:104ED00007D00BFB0AFBCAF5807E01FB0EBBCBF3B0
:104EE000072B884206D07843C7F5807E01FB0E0071
:104EF000C0F30720584440082855002844D01078B3
:104F0000517800EB012003909CF800009CF8011000
:104F100000EB012002901878597800EB01200190F5
:104F200041E091789CF802B09878D0E7DDE90EBEB8
:104F30000EEB4B0BCDF800B0DDF800B0DDF82CE047
:104F40008B44CDF820B01EF80B10DDF800B000FB4C
:104F500008BB0A981BF80000DDF824E0DDF820B05B
:104F60000EFB08FE1EF80BB0B1E747E01188BDF854
:104F70001000814206D0BCF80010814202D019888E
:104F8000814202D10020285583E0FF218B46FF207B
:104F90009DE7FFE71088039018880190BCF8000097
:104FA0000290FF202855BDF80C00BDF8081088427B
:104FB0000AD1BDF80410884206D12198BDF80C1022
:104FC00000EB4400018064E0DDE902010AF0FF0229
:104FD00010F0DEFF0290FAB20399019810F0D8FFAA
:104FE0000190DDE901017F2210F0D2FF00902198AD
:104FF000BDF8001000EB440001804AE092F800B0D8
:1050000092F801E00BEB0E2BDDF884E01FFA8BFB2E
:105010002EF814B0B9F1050F08D0B9F1060F07D07A
:10502000B9F1140F0CD0FF2299B114E09278FBE78C
:10503000BDF81020934501D10022F5E7FF22F3E7E8
:105040000F9A00FB082B0E9A01EB42021BF802207C
:10505000EAE7002B05DBDDF834B0594507D1002B1A
:1050600005DDC7F1FF005043000A285511E010B9D3
:10507000BCF1000F05DB0C99884208D1BCF1000F90
:1050800005DDCAF1FF005043000A285501E0002069
:105090002855641C24B220988442FFF6ACAE13B0AD
:1050A000BDE8F08F2DE9F04FDDE909C8DDE90CAB73
:1050B000DDF82C900F9F002428E009FB04F50CEB91
:1050C00025260AFB04F508EB252536122D12002EA5
:1050D00005DB8E4203DA002D01DB954202DB002561
:1050E0003D5511E05D4305EB450506EB46063544AD
:1050F00005442E7895F801E006EB0E26DDF838E041
:105100002EF81460AD783D55641C24B25C45D4DBA8
:10511000BDE8F08F0BF0F8BC70B504460E4615469E
:1051200006E02046641CA4B200F006F806F8010B65
:105130006D1EADB2F5D270BD10B504460BF08AFD00
:10514000200AA02101EB4000C0B20BF055FD0BF08E
:10515000BDFDE0B20BF050FD0BF0B8FD0BF07AFD99
:10516000A1200BF049FD0BF0B1FD00200BF018FD64
:1051700004460BF08FFD204610BD70B506460D4667
:10518000144606E02978304600F007F8761CB6B2DF
:105190006D1C641EA4B2F5D270BD70B504460D46F8
:1051A0000BF058FD200AA02101EB4000C0B20BF02B
:1051B00023FD0BF08BFDE0B20BF01EFD0BF086FD26
:1051C00028460BF019FD0BF081FD0BF063FDBDE8E7
:1051D00070400A2001F044BE10B592B00446A18F81
:1051E000002915D001A80EF061FA01940B48029035
:1051F000A08F0C900020012109900A900B91084883
:1052000008900848049001A80EF0CAFA12B010BD28
:1052100012B0BDE8104021F06FB8000075630208BD
:10522000753701087763020870B504460D462046BD
:1052300000F030F800B1FEE7284600F013F961688D
:10524000001D08446060204600F030F8204670BD24
:1052500010B50C4600F006F91034A04201D301202D
:1052600010BD002010BD083870477CB505460C46BF
:10527000204600F0F7F86A4601A920F029FDDDE993
:105280000032214628460CF0CFFC7CBD007900F0AE
:105290000100704710B500F0E5F808B1002010BD1E
:1052A000012010BD007900F00200704710B50446DF
:1052B000204600F07AF8046010BD7CB506460D4625
:1052C0000020019000900024002D0DD06A4601A915
:1052D000284620F014FD01980A2805DA6A4601A93B
:1052E000304622F0F6FA04465CB1204600F0BAF8E7
:1052F000A84200D2FEE7DDE900322146304621F027
:1053000005FF20467CBD10B504462046FFF7CEFFC2
:1053100000F093F82046BDE8104000F089B810B5C1
:105320000446204600F041F800F08CF82046BDE825
:10533000104000F092B870B506460D46284600F0C1
:1053400034F8044644B12046FFF7A0FF70B1284668
:10535000FFF7A0FF08B1FEE7FEE72146304600F068
:1053600056F821462846FFF75FFF0546284670BDE0
:1053700070B506460D462846FFF794FF88B12846CB
:1053800000F03CF8044674B12046FFF77FFF58B1A7
:105390002146304600F03BF829462046FFF744FFFF
:1053A0000546284670BDFEE7FEE770B5054628466F
:1053B00000F058F8041F284600F091F8214620F02C
:1053C000D1FE04462846FFF765FF00B1FEE7204600
:1053D00070BD10B503460C460020002C0DD05AB10C
:1053E0002146184600F07DF82046FFF798FF20463A
:1053F000BDE8104000F073B8FEE710BD10B50446DC
:105400002046FFF74FFF08B1206810BDFEE77CB5CE
:1054100005460C46204600F025F86A4601A920F012
:1054200057FCDDE900322146284621F06FFE7CBDA5
:10543000416841F0010141607047416841F002015B
:1054400041607047416821F0020141607047027974
:1054500002F003020A4342607047416821F00101F3
:1054600041607047406820F0030070472DE9F0412B
:1054700006460C46304600F032F8211F20F072FE3E
:1054800080463046FFF7EEFF051B2D1F404600F01B
:1054900026F80746404600F022F80421FFF727FAD5
:1054A000874200D0FEE73046FFF7DCFF2919091DCF
:1054B000884200D0FEE729464046FFF7C8FF404635
:1054C000FFF7D0FF0C2800D2FEE721463046FFF759
:1054D000BEFF4046FFF717FF4046BDE8F0810830A9
:1054E000704770B506460D4614462846FFF7CEFEB7
:1054F000B0B121462846FFF7ABFE002811D0214667
:105500002846FFF7B3FF04462846FFF7CFFE2046A4
:10551000FFF793FF21463046BDE87040FFF7A5BE78
:10552000FEE770BD70B505460C4616462046FFF7EF
:10553000ADFE00B1FEE731462046FFF789FE0028A8
:1055400011D031462046FFF791FF04462046FFF771
:1055500079FF21462846FFF7EEFE01462846BDE8C2
:105560007040FFF782BE70BD38B5044615F0EEFE00
:105570000546284615F029FF30B1218FE1862046E7
:105580001BF03EF8012038BD204614F053F8F8B166
:10559000204613F005FF218FE08E81420CD020873A
:1055A000E08E00906A461C21204614F09BFA0128E8
:1055B000E9D120461BF024F8284615F014FF0428F2
:1055C000E0D1204619F00EFB002114F0E0FFD9E7EE
:1055D000204614F085F8D5E770B514F07FFA05463B
:1055E000284619F045FB044628460FF069FC0146A1
:1055F0002046BDE8704000221EF05CBDC0F30020D4
:105600007047C0F3C0107047C0F300207047C0F36C
:1056100040207047C0F300107047C0F380107047FF
:10562000C0F380207047C0F3C0207047C0F3401023
:10563000704700002DE9F04F87B005460C46002169
:10564000284619F0EFF960B32146284600F096FA93
:105650002146284600F072F8002128461AF095F9F4
:105660000690002128461AF03EFA059000212846AF
:105670001AF046F801281BD00027002128461AF00E
:1056800096FB8046002128461AF0AEF8064642F204
:10569000D179C8450ED1688C40050BD44FF0010874
:1056A0000AE007B02046BDE8F04F1C2117F037BDD7
:1056B0000127E2E74FF00008284619F03BFA83463D
:1056C00028460021DFF870A0BAF804201AF065FA25
:1056D0000490C2B2A36821692068CDE90013CDE926
:1056E000020741465846069B0AF076FE20834E4547
:1056F00004D1688C800501D4012600E000262846EC
:1057000019F0FBF9074628460021BAF808201AF0DC
:1057100044FAC2B2E368616960680025CDE900130C
:10572000CDE9020531463846059B0AF055FE6083F7
:1057300007B0BDE8F08F0000900100202DE9F84F80
:1057400082460C4650460AF051F80746504619F07A
:10575000F1F98146384601F0C3F82061400017F0A6
:105760003BFB20602069400017F036FBA06000255D
:1057700041F69A7836E0494E37F91500404530D168
:105780004FF0000B1EE05946504619F04BF90090BF
:10579000434900981AF028FC90B900980AF038F8AC
:1057A00001280DD100980AF029F8A84208D10098E4
:1057B0001AF0CAFBB04203DB00981AF0C5FB06469C
:1057C0000BF1010B504619F043F95845DBD8002E78
:1057D00003DBA06820F8156003E0A168002021F831
:1057E00015006D1C2069A842C5D80025AB460020D5
:1057F00041F69B7618E037F91010B14204DB0D44F6
:10580000A5F5F8559B3D0EE0414506D1A16831F85C
:10581000101059440FFA81FB05E0A26822F810101D
:1058200059440FFA81FB401C21698142E3D80021D1
:1058300050461AF0AAF82169C1F1010100FB01905C
:10584000A0EB0B0001B2002900DA00214FF0FF3C71
:105850000022002011E037F91030B3420CDBA3F531
:10586000F8539B3B1AB201FB02F3B3FBF5F3D4F8F8
:1058700008C02CF810308446401C23698342EAD8C3
:10588000BCF1000F07DBA81A4843B0FBF5F0081A7B
:10589000A16821F81C00BDE8F88F000001E0FFFFBF
:1058A000010006002DE9F05F074600221146384648
:1058B0001BF098FE0021384619F052FF04460021E3
:1058C00038461AF01CF920440FFA80F800213846B7
:1058D0001AF007F820440FFA80FA384619F0B0FEA3
:1058E000404450440FFA80F92C4C384619F0B0F877
:1058F0008346002517E0B868006850F825602849FD
:1059000030461AF071FB68B930461AF0DBFEC0B1C0
:10591000B6F91A00B7F91610401A411CA14200DB73
:10592000441C24B26D1C5D45E5D341F6FF70C442B2
:1059300032D004EB0A0000B2484500DC4846BDE81E
:10594000F09F0021304619F09FFED0B1012818D0F9
:10595000022816D0032814D0002130461AF039FA54
:105960000028DFD106F1140006460EF017FC404473
:10597000A04204DB30460EF011FC00EB080424B218
:10598000D0E7B6F91A00B7F91610401A411CA14227
:1059900000DB441C24B2C5E74846D0E701E0FFFF26
:1059A000010004002DE9F05F05460022114628465B
:1059B0001BF002FE0021284619F0D2FE0446002109
:1059C00028461AF042F820440FFA80F800212846B1
:1059D00019F0EDFF20440FFA80F9284619F03EFE39
:1059E000484440440FFA80FB5A4C284619F030F8DE
:1059F00082460021284619F065FE012801D00026C4
:105A000066E0002617E0A868006850F82670524942
:105A100038461AF0E9FA68B938461AF053FEA0B1D0
:105A2000B5F91800B7F91410401A411CA14200DB67
:105A3000441C24B2761C5645E5D341F6FF70C4429F
:105A40004FD004EB090004B24BE00021384619F0B6
:105A50001BFED0B1032818D0062816D0082814D071
:105A6000002138461AF0AFF90028E3D107F11400FD
:105A700007460EF0DEFB4044A04204DB38460EF041
:105A8000D8FB00EB080424B2D4E7B5F91800B7F945
:105A90001410401A411CA14200DB441C24B2C9E787
:105AA000A868006850F826702B4938461AF09CFA0E
:105AB00068B938461AF006FED0B1B7F91800B5F942
:105AC0001410401A411CA14200DB441C24B2761C75
:105AD0005645E5D341F6FF70C44202D004EB0800FE
